:100000000C9463000C948B000C948B000C948B006C
:100010000C948B000C948B000C948B000C94840C2F
:100020000C948B000C948B000C948B000C948B0024
:100030000C948B000C94380D0C948B000C948B005A
:100040000C943A0C0C948B000C94060D0C94E00C60
:100050000C948B000C948B000C948B000C948B00F4
:100060000C948B000C948B000000000024002700EF
:100070002A0000000000250028002B0000000000DE
:1000800023002600290004040404040404040202DA
:100090000202020203030303030301020408102007
:1000A0004080010204081020010204081020000012
:1000B0000008000201000003040700000000000027
:1000C00000000200301011241FBECFEFD8E0DEBFC9
:1000D000CDBF11E0A0E0B1E0E8E4F7E202C0059096
:1000E0000D92A234B107D9F723E0A2E4B1E001C038
:1000F0001D92AF3BB207E1F710E0C3E6D0E004C0C9
:100100002197FE010E948813C236D107C9F70E94C9
:100110005F0D0C94A2130C940000AF92BF92CF928B
:10012000DF92EF92FF920F931F93CF93DF936C01B7
:100130007B018B01040F151FEB015E01AE18BF0898
:10014000C017D10759F06991D601ED91FC9101904A
:10015000F081E02DC6010995892B79F7C501DF9162
:10016000CF911F910F91FF90EF90DF90CF90BF90B4
:10017000AF900895FC01538D448D252F30E0842FDE
:1001800090E0821B930B541710F0CF9608950197BF
:100190000895FC01918D828D981761F0A28DAE0FAC
:1001A000BF2FB11D5D968C91928D9F5F9F73928F33
:1001B00090E008958FEF9FEF0895FC01918D828D5F
:1001C000981731F0828DE80FF11D858D90E008952C
:1001D0008FEF9FEF0895FC01918D228D892F90E084
:1001E000805C9F4F821B91098F739927089582E24B
:1001F00093E00E94EB0021E0892B09F420E0822F9C
:10020000089580E090E0892B29F00E94F700811189
:100210000C9400000895FC01A48DA80FB92FB11D06
:10022000A35ABF4F2C91848D90E001968F7399272C
:10023000848FA689B7892C93A089B1898C9183700A
:1002400080648C93938D848D981306C00288F38903
:10025000E02D80818F7D80830895EF92FF920F9330
:100260001F93CF93DF93EC0181E0888F9B8D8C8D62
:1002700098131AC0E889F989808185FF15C09FB756
:10028000F894EE89FF896083E889F9898081837019
:10029000806480839FBF81E090E0DF91CF911F91C8
:1002A0000F91FF90EF900895F62E0B8D10E00F5FE9
:1002B0001F4F0F731127E02E8C8D8E110CC00FB6BF
:1002C00007FCFACFE889F989808185FFF5CFCE0157
:1002D0000E940B01F1CFEB8DEC0FFD2FF11DE35AC6
:1002E000FF4FF0829FB7F8940B8FEA89FB898081DA
:1002F0008062CFCF682F82E293E00C942D01CF93E0
:10030000DF93EC01888D8823B9F0AA89BB89E8893D
:10031000F9898C9185FD03C0808186FD0DC00FB6E3
:1003200007FCF7CF8C9185FFF2CF808185FFEDCF61
:10033000CE010E940B01E9CFDF91CF910895833068
:1003400081F028F4813099F08230A9F00895873047
:10035000A9F08830C9F08430B1F4809180008F7D9D
:1003600003C0809180008F7780938000089584B5CA
:100370008F7784BD089584B58F7DFBCF8091B000C9
:100380008F778093B00008958091B0008F7DF9CF72
:10039000CF93DF93282F30E0F901E255FF4F84918E
:1003A000F901E656FF4FD491F901EA57FF4FC49186
:1003B000CC23A1F081110E949F01EC2FF0E0EE0F01
:1003C000FF1FE458FF4FA591B491EC91ED2381E01C
:1003D00090E009F480E0DF91CF91089580E090E013
:1003E000FACF1F93CF93DF93282F30E0F901E25526
:1003F000FF4F8491F901E656FF4FD491F901EA5776
:10040000FF4FC491CC23A9F0162F81110E949F01A8
:10041000EC2FF0E0EE0FFF1FEE58FF4FA591B491C7
:100420008FB7F894EC91111108C0D095DE23DC93BE
:100430008FBFDF91CF911F910895DE2BF8CF909160
:10044000020189130BC0E2ECF0E0E4919FEF90937E
:100450000201E13049F028F0E23061F060E00C94F4
:10046000F10110926E00FACF90916F009D7F9093F2
:100470006F00F4CF909170009D7F9093700091E099
:100480009093B0009091B100987F94609093B100E8
:100490001092B300E3CFCF93DF9390E0FC01E656D8
:1004A000FF4F24918A579F4FFC0184918823D1F0FC
:1004B00090E0880F991FFC01E859FF4FA591B49176
:1004C000FC01EE58FF4FC591D491623071F49FB793
:1004D000F8943C91822F809583238C93E8812E2B76
:1004E00028839FBFDF91CF9108958FB7F894EC9147
:1004F0002E2B2C938FBFF6CF089560E08DE00E94E5
:10050000F1018CE00E941F0260E085E00E94F10191
:1005100060E084E00C94F1018F929F92AF92BF92C1
:10052000CF92DF92EF92FF92CF93DF93C09144027C
:10053000D091450280914202909143028C179D0711
:1005400009F485C06091130170911401072E000C0D
:10055000880B990B0E947B129B01AC0160E070E05C
:1005600080EF92E40E94D1116B017C01CC0FDD1F62
:10057000C658DE4F698170E090E080E00E947B12F7
:100580009B01AC01C701B6010E9407130E944312F0
:100590006B017093500160934F01888180FF2AC2E4
:1005A00061E08DE00E94F101C0900001D090010156
:1005B0001C141D0444F4809102018C3009F452C0D3
:1005C0008F3F09F4B7C080911101909112018130E1
:1005D000910509F4FFC1029709F405C260914F012A
:1005E00070915001072E000C880B990B0E947B1212
:1005F00020911701309118014091190150911A0171
:100600000E9407136B017C01609116037091170320
:10061000072E000C880B990B0E947B129B01AC01EA
:10062000C701B6010E9465110E94431270935001E8
:1006300060934F0180914402909145020196843667
:1006400091050CF008C29093450280934402DF911B
:10065000CF91FF90EF90DF90CF90BF90AF909F90A1
:100660008F900895E2ECF0E0C491C7FDACCF61E05B
:100670008CE00E944B02CC2319F0C23009F055C126
:100680000D2C000CEE08FF0860E072E18AE790E0B4
:10069000A70196010E94011149015A01DA01C9011D
:1006A0000197A109B1098F3F9105A105B10509F095
:1006B0000CF41FC160E472E48FE090E0A7019601A2
:1006C0000E9401112150310941095109C23009F03C
:1006D000A0C082E02F3F31054105510509F00CF41F
:1006E000D9C060E970ED83E090E0A70196010E9417
:1006F0000111215031094109510983E02F3F310592
:100700004105510509F00CF4C5C068E478EE81E0BC
:1007100090E0A70196010E94011121503109410981
:1007200051092F3F31054105510511F00CF0C1C0B1
:1007300084E0B0C08CE080930201E2ECF0E0C49170
:10074000CF3F09F440CFC13021F150F0C23009F45D
:100750003EC0C7FD38CF61E08CE00E944B028DCFD8
:1007600014BC15BC84B5826084BD85B5816085BD2F
:10077000E2E9F0E0E491F0E0EE0FFF1FEE58FF4FEA
:1007800085919491E6EAF0E0E491E0934401C0E0C1
:100790006ECF10928000109281008091810088605D
:1007A0008093810080918100816080938100E2E9E3
:1007B000F0E0E491F0E0EE0FFF1FEE58FF4F85915F
:1007C0009491E6EAF0E0E491E093430150CF109277
:1007D000B0001092B1008091B00082608093B000B0
:1007E0008091B10081608093B100E2E9F0E0E49192
:1007F000F0E0EE0FFF1FEE58FF4F8591949190931C
:100800006D0180936C01E6EAF0E0E491E0936E0103
:100810002ECF2F3F31054105510509F00CF483C05F
:1008200068E478EE81E090E0A70196010E94011152
:100830002150310941095109CC2309F428C12F3F26
:1008400031054105510509F00CF472CF62E17AE7F8
:1008500080E090E0A70196010E940111215031092A
:1008600041095109CC2309F4FBC086E02F3F310533
:100870004105510579F070F08AE0B594A7949794FA
:1008800087948A95D1F7A501940121503109410936
:10089000510987E09091B100987F892B8093B10036
:1008A000C13009F46FC0C23009F481C0C1118BCED0
:1008B00028C064E274EF80E090E0A70196010E94F6
:1008C0000111215031094109510985E02F3F3105BE
:1008D00041055105F9F2F4F262E17AE780E090E037
:1008E000A70196010E9401112150310941095109C6
:1008F000BCCF9C0181E0C111CDCF95B5987F892BEC
:1009000085BD27BD8FEF9FEFDC0180934901909358
:100910004A01A0934B01B0934C0180916E0082601C
:1009200080936E0050CE82E0E6CF0D2C000CEE08D6
:10093000FF0860E072E18AE790E0A70196010E945B
:100940000111215031094109510991E02115310569
:1009500081E0480751056CF068E478EE81E090E0B2
:10096000A70196010E940111215031094109510945
:1009700093E0C13009F094CF80918100887F892B6A
:100980008093810030938900209388008FEF9FEF40
:10099000DC018093450190934601A0934701B093F9
:1009A000480180916F00826080936F000CCE20938D
:1009B000B3008FEF9FEFDC0180936F019093700184
:1009C000A0937101B0937201809170008260809356
:1009D0007000F9CD60E084E00E94F10161E085E003
:1009E0000E94F101FBCD60E085E00E94F10161E031
:1009F00084E0F6CF0E947D0220911701309118010A
:100A00004091190150911A0160E070E080E89FE385
:100A10000E94D1114B015C01B601DD0C880B990BD2
:100A20000E947B129B01AC01C501B4010E94071317
:100A30006B017C016091160370911703072E000C67
:100A4000880B990B0E947B129B01AC01C701B60178
:100A50000E946411E9CD1092450210924402F7CD34
:100A600084E02F3F31054105510509F008F445CFD9
:100A70009AE0B594A794979487949A95D1F7A50195
:100A80009401215031094109510985E036CF83E0B5
:100A90002F3F31054105510509F00CF42ECFD6CE7C
:100AA00010926A011092690160E083E00E94F101F6
:100AB00060E082E00E94F1011092730110927401D3
:100AC0001092750110927601809115019091160196
:100AD0009093140180931301089510927301109262
:100AE0007401109275011092760181E090E090936C
:100AF0006A01809369018091110190911201813006
:100B0000910519F0029779F0089560E082E00E9463
:100B1000F1018091070190910801892B89F061E032
:100B200083E00C94F10160E083E00E94F101809188
:100B3000070190910801892B19F061E082E0F1CF63
:100B400008958091090190910A018130910521F168
:100B50008230910531F1892BF1F46091130170918C
:100B60001401072E000C880B990B0E947B129B012D
:100B7000AC0160E070E080EF92E40E94D11120E0CF
:100B800030E040EF51E40E9407130E94431270933B
:100B9000540160935301089510925401109253012F
:100BA00008956091130170911401072E000C880BB9
:100BB000990B0E947B129B01AC0160E070E080EF1A
:100BC00092E40E94D11120E030E040E751E4DBCF15
:100BD0008091090190910A018130910521F18230C3
:100BE000910531F1892BF1F4609113017091140199
:100BF000072E000C880B990B0E947B129B01AC0105
:100C000060E070E080EF92E40E94D11120E030E0DB
:100C100040E251E40E9407130E9443127093520174
:100C2000609351010895109252011092510108955C
:100C30006091130170911401072E000C880B990B21
:100C40000E947B129B01AC0160E070E080EF92E4B7
:100C50000E94D11120E030E040EA50E4DBCF8091E7
:100C6000420290914302FC01EE0FFF1FE658FE4F37
:100C700021E020832DE22183019684369105CCF476
:100C800090934302809342028091420290914302EA
:100C9000FC01EE0FFF1FE658FE4F10822AE0218371
:100CA00001968436910554F4909343028093420256
:100CB00008951092430210924202E6CF109243022E
:100CC0001092420208959FEB980F9A3108F4805ECB
:100CD000ECE9E80FE73108F066C00E2E000CFF0BC0
:100CE000EC58F94F0C9488138B06D3068D06D30667
:100CF0009706B006BD06D306D306D306D306D306A1
:100D0000D306D306D306C706D306D306D306D30627
:100D1000C306B606CD060C942F0680911301909160
:100D20001401029690931401809313010895809109
:100D3000420290914302FC01EE0FFF1FE658FE4F66
:100D4000108211820196843691052CF4909343020F
:100D50008093420208951092430210924202089535
:100D60008091110190911201019769F461E089E08D
:100D70000E94F10160E08AE008C080911101909129
:100D80001201019799F760E089E00C94F1018091DC
:100D90001301909114010297C5CF61E089E00E9490
:100DA000F10161E0E8CF0895809142029091430201
:100DB000FC01EE0FFF1FE658FE4F21E020832EE1DD
:100DC0002183019684369105CCF49093430280935D
:100DD00042028091420290914302FC01EE0FFF1FFC
:100DE000E658FE4F10822AE0218301968436910551
:100DF00054F4909343028093420208951092430268
:100E000010924202E6CF10924302109242020895DD
:100E10008091420290914302FC01EE0FFF1FE658C1
:100E2000FE4F21E020832AE021830196843691053C
:100E3000CCF49093430280934202809142029091BD
:100E40004302FC01EE0FFF1FE658FE4F10822AE01E
:100E5000218301968436910554F490934302809344
:100E6000420208951092430210924202E6CF10927D
:100E70004302109242020895CF9340910E03509185
:100E80000F03809110039091110348175907A9F09F
:100E9000FC01EA5BFD4FC0810196883C91057CF422
:100EA000909311038093100380914201882361F095
:100EB0008C2F0E94630610924201CF9108951092E8
:100EC000110310921003F0CFCB3301F520911003E2
:100ED0003091110342175307A9F0F901EA5BFD4F66
:100EE00080812F5F3F4F283C31053CF43093110344
:100EF00020931003CF910C9463061092110310926B
:100F00001003F8CF81E080934201D7CF8091210177
:100F100090912201909301018093000180916901D9
:100F200090916A01892B91F40E946D0580910F01C7
:100F30009091100190935601809355018091150175
:100F40009091160190931401809313018FEB8C0FF5
:100F50008A3108F4C05EE0EEEC0FEB3508F079C0A2
:100F60000E2E000CFF0BE954F84F0C948813120856
:100F7000780829082908290829087D082908290846
:100F800029082908650855088608480889088C0832
:100F9000950898089D08A008A308A808AB08AE0803
:100FA000B108290829086C08710829085E08290871
:100FB00029082908290829082908290829082908A9
:100FC0002908290829082908290829082908290899
:100FD0002908290829082908290829082908290889
:100FE00029082908290829082908120812082908A7
:100FF00050087F086708BE08B9087A08B508A50830
:1010000083089A084E08BC089208B7089008C108DF
:10101000C408690881085208750873085B08C70886
:10102000CA0862088091420290914302FC01EE0FCF
:10103000FF1FE658FE4F10821182019690934302E3
:10104000809342028436910524F01092430210925C
:1010500042028091420290914302FC01EE0FFF1F79
:10106000E658FE4F22E0208324E121830196843656
:1010700091050CF092C090934302809342028091BC
:101080000D0190910E01909358018093570115CF57
:101090000E9408070E94D4060E9408070E94D406F6
:1010A0000E9408070E94D406D4CF0E94D4060E9452
:1010B000D4060E9408070E94080734C00E9408074F
:1010C0000E9408070E94D40659C00E9408070E9487
:1010D000D4060E9408074BC00E9408070E94080718
:1010E000DBCF0E94D4060E9408070E940807D8CFD1
:1010F0000E9408070E940807ECCF0E9408070E9480
:10110000D4060E9408070E94080733C00E942F06D9
:10111000A0CF0E94D406EECF0E94D4060E94D4062F
:101120000E94D4060E94D406BDCF0E940807F6CFC5
:101130000E9408070E940807F3CF0E940807B9CF52
:101140000E940807D0CF0E9408070E940807D9CF45
:101150000E94D406FACF0E94D406D1CF0E94D406B2
:10116000B1CF0E94D4060E94D4060E94D4060E94E9
:10117000D4060E9408076DCF0E9408070E94D4067B
:10118000C2CF0E940807F1CF0E94D40687CF0E94E9
:10119000D406ABCF0E94D4068ECF10924302109299
:1011A00042026DCFCF92DF92EF92FF920F931F9387
:1011B000CF93DF9380915301909154011816190633
:1011C0002CF4019790935401809353018091510125
:1011D00090915201181619062CF401979093520120
:1011E000809351018091690190916A01892B09F0E6
:1011F000BBC08091730190917401A0917501B09171
:101200007601813422E492072FE0A207B10558F459
:101210000196A11DB11D8093730190937401A09359
:101220007501B093760180917801909179018130B8
:10123000910509F427C10CF0A0C0892B09F4CBC09B
:1012400080915D0190915E01892B89F480915C0110
:10125000882309F490C10E94080781E090E09093F0
:101260005E0180935D0110925C010E94E805D091BF
:101270001B01C0911D018091090190910A01039702
:1012800009F099C18D2F0E94C801892B09F085C1F1
:101290008C2F0E94C801892B09F07FC180915D01CC
:1012A00090915E01892B09F425C2809112039091DF
:1012B0001303892B09F0CDC280910501909106019D
:1012C0000197A1F488E00E94C801892B09F099C216
:1012D00080911101909112018130910509F481C230
:1012E000029709F487C281E080936B01C091670186
:1012F000D0916801D0936601C0936501C0906301ED
:10130000D0906401D0926801C0926701E0906101C1
:10131000F0906201F0926401E092630100915F013C
:1013200010916001109362010093610188E00E94B6
:10133000C8019093600180935F01CC0DDD1DCE0D3F
:10134000DF1DC00FD11F8C0F9D1F21E0892B09F0DD
:1013500020E020937701DF91CF911F910F91FF90B3
:10136000EF90DF90CF900895109273011092740166
:10137000109275011092760156CF8230910509F4D2
:1013800096C0039709F05CCF20914202309143024E
:1013900080914402909145022817390709F054C002
:1013A00020910E0330910F0380911003909111034F
:1013B0002817390709F4C4C00E943C072091440251
:1013C00030914502809142029091430228173907DB
:1013D00009F436CF39C02091420230914302809106
:1013E0004402909145022817390769F420910E03B1
:1013F00030910F0380911003909111032817390742
:1014000011F00E943C0720914202309143028091EA
:1014100044029091450228173907F9F080910F0195
:1014200090911001181619066CF490935601809350
:10143000550181E090E090937901809378010E94BA
:101440006D05FECE0E946D050E948C0282E090E048
:101450009093790180937801F3CE8091120390915B
:101460001303892B09F0ECCE80916B01813009F4D4
:10147000E7CE60E082E00E94F10160E083E00E943C
:10148000F101DECE80915501909156011816190692
:101490002CF401979093560180935501809155014A
:1014A00090915601181619060CF4CACECDCF809132
:1014B0004F0190915001181619062CF40197909342
:1014C000500180934F0180914F0190915001181667
:1014D00019060CF4B5CE209142023091430280915E
:1014E0004402909145022817390719F00E948C0296
:1014F000A7CE10925E0110925D0120910E033091F3
:101500000F0380911003909111032817390769F098
:101510000E943C0720914402309145028091420292
:10152000909143022817390709F78091570190914C
:10153000580190934E0180934D0183E090E088CF55
:1015400080914D0190914E01181619062CF40197C7
:1015500090934E0180934D0180914D0190914E01E9
:10156000181619060CF46CCE0E94500510927901E1
:101570001092780165CE80915B01882309F477CEC3
:101580000E94D40682E090E090935E0180935D011A
:1015900010925B010E94A1056ACE8D2F0E94C801A6
:1015A000019749F48C2F0E94C801019721F41092F1
:1015B0005A01109259018D2F0E94C801892B09F000
:1015C00044C080911F01909120019093010180936C
:1015D0000001609113017091140180EB94E00E946E
:1015E000741320910B0130910C01629FC001639F25
:1015F000900D729F900D1124909358018093570184
:101600008091140390911503009709F487C090937B
:101610001401809313018091690190916A01892BD3
:1016200051F40E946D0580910F01909110019093EB
:1016300056018093550180915D0190915E01009764
:1016400009F471C0029709F495C08C2F0E94C8015B
:10165000892B09F02ACE80911F019091200190934F
:10166000010180930001609113017091140180EBDE
:1016700094E00E94741320910B0130910C01629F41
:10168000C001639F900D729F900D1124909358019B
:10169000809357018091140390911503009709F4EA
:1016A00074C090931401809313018091690190910B
:1016B0006A01892B51F40E946D0580910F01909170
:1016C0001001909356018093550180915D01909196
:1016D0005E01009709F45EC0019709F0E6CD8091A4
:1016E000510190915201892B09F0DFCD81E0809367
:1016F0005B01DBCD8091590190915A01019749F42A
:101700000E94D40682E090E090935E0180935D0198
:10171000CCCD0E94080781E090E0F6CF80911501C2
:101720009091160174CF809144029091450290935C
:101730004302809342028091100390911103909391
:101740000F0380930E038091590190915A01892BC8
:1017500031F481E090E090935A01809359010E9406
:10176000080781E090E090935E0180935D010E9404
:10177000E8056BCF8091530190915401892B09F0BA
:1017800064CF81E080935C0160CF809115019091DE
:10179000160187CF809144029091450290934302B5
:1017A00080934202809110039091110390930F0354
:1017B00080930E038091590190915A01892B31F445
:1017C00082E090E090935A01809359010E94D406E0
:1017D00082E090E090935E0180935D010E94A105FC
:1017E00064CD60E082E00E94F10161E083E00E944C
:1017F000F10179CD60E083E00E94F10161E082E0D7
:10180000F6CF80916B01882351F08091690190910E
:101810006A01892B11F40E94500510926B0180918E
:10182000690190916A01019709F060CD80910701EB
:1018300090910801892B09F059CD0E94500556CD91
:1018400060E082E00E94F10161E083E00E94F1012A
:101850004DCD80911101909112018130910581F35C
:10186000029709F043CD60E083E00E94F10161E05E
:1018700082E0ECCF1F920F920FB60F9211242F939C
:101880003F938F939F93AF93BF9380911E0390914B
:101890001F03A0912003B091210330911D0323E089
:1018A000230F2D3758F50196A11DB11D20931D035F
:1018B00080931E0390931F03A0932003B0932103F2
:1018C0008091190390911A03A0911B03B0911C03FE
:1018D0000196A11DB11D8093190390931A03A09343
:1018E0001B03B0931C03BF91AF919F918F913F91C8
:1018F0002F910F900FBE0F901F90189526E8230F81
:101900000296A11DB11DD2CF1F920F920FB60F925A
:1019100011242F933F934F935F936F937F938F93F4
:101920009F93AF93BF93EF93FF9380916F0190913B
:101930007001A0917101B0917201892B8A2B8B2BC0
:10194000D1F190916E01E0916C01F0916D01808177
:101950008927808380916F0190917001A09171011E
:10196000B0917201181619061A061B069CF4809194
:101970006F0190917001A0917101B0917201019776
:10198000A109B10980936F0190937001A093710137
:10199000B0937201FF91EF91BF91AF919F918F91A1
:1019A0007F916F915F914F913F912F910F900FBE5B
:1019B0000F901F901895809102010E941F02EACF9C
:1019C0001F920F920FB60F9211242F933F934F93B4
:1019D0005F936F937F938F939F93AF93BF93EF9397
:1019E000FF9382E293E00E940B01FF91EF91BF9180
:1019F000AF919F918F917F916F915F914F913F91A7
:101A00002F910F900FBE0F901F9018951F920F925D
:101A10000FB60F9211242F938F939F93EF93FF9301
:101A2000E0913203F09133038081E0913803F0912B
:101A3000390382FD1BC0908180913B038F5F8F73C0
:101A400020913C03821741F0E0913B03F0E0EE5D12
:101A5000FC4F958F80933B03FF91EF919F918F9166
:101A60002F910F900FBE0F901F9018958081F4CF8B
:101A70001F920F920FB60F9211242F933F934F9303
:101A80005F936F937F938F939F93AF93BF93EF93E6
:101A9000FF93E0910301F09104010995FF91EF910B
:101AA000BF91AF919F918F917F916F915F914F9176
:101AB0003F912F910F900FBE0F901F901895789423
:101AC00084B5826084BD84B5816084BD85B5826043
:101AD00085BD85B5816085BD80916E0081608093F4
:101AE0006E0010928100809181008260809381005D
:101AF000809181008160809381008091800081606D
:101B0000809380008091B10084608093B1008091C7
:101B1000B00081608093B00080917A0084608093EF
:101B20007A0080917A00826080937A0080917A00B6
:101B3000816080937A0080917A00806880937A0037
:101B40001092C10061E08DE00E944B0262E0809142
:101B50001D010E944B0262E080911B010E944B021A
:101B600062E088E00E944B0261E085E00E944B0247
:101B700061E083E00E944B0261E084E00E944B023E
:101B800061E082E00E944B0261E089E00E944B022A
:101B900061E08AE00E944B0261E08BE00E944B0210
:101BA00080E1809381001092800080E49FE1909317
:101BB00087008093860081E18093810082ED98E028
:101BC000909304018093030181E080936F0080E48F
:101BD00080937C0080917A00806480937A00809169
:101BE0007A0086FDFCCF6091780070917900072E15
:101BF000000C880B990B611571058105910511F099
:101C00000E94F81010924302109242021092450274
:101C10001092440210920F0310920E0310921103BF
:101C200010921003E0913203F091330382E080833D
:101C3000E0912E03F0912F031082E0913003F09198
:101C4000310387E6808310923A03E0913603F091E6
:101C5000370386E08083E0913403F091350380817F
:101C600080618083E0913403F09135038081886046
:101C70008083E0913403F091350380818068808314
:101C8000E0913403F091350380818F7D8083109241
:101C900018039AEF492E512C612C712C24E3222E2B
:101CA0003AE0332E40E0842E40E0942E57ECA52EEF
:101CB000B12C06E010E0F89482E293E00E94EB0081
:101CC000181619060CF0BFC182E293E00E94C90009
:101CD000EC0180911803882309F4D3C0EEEFE80FDC
:101CE000E83108F031C00E2E000CFF0BE658F14F22
:101CF0000C948813920EA70EB10EBB0ED30EE80EF5
:101D0000EF0EF80EFD0E020FA40EA40E230F280FE7
:101D10002D0FA40EA40EA40E320FA40E370FA40E86
:101D2000A40E3C0F61E0C0FF60E089E00E94F10179
:101D300061E0C1FF60E08AE00E94F10161E0C2FF62
:101D400060E08BE00E94F10110921803B5CF3C9E39
:101D5000C0013D9E900D112490932201809321019A
:101D6000F3CF3C9EC0013D9E900D11249093200125
:101D700080931F01E9CFCD2B59F487E090E0909339
:101D80001E0180931D0110931C0100931B01DCCFE9
:101D900010931E0100931D0187E090E090931C01B9
:101DA00080931B01D1CFBE01DD0F880B990B0E94E0
:101DB0007B1220E030E048EC52E40E94D1116093A5
:101DC0001701709318018093190190931A01BCCFE9
:101DD000C058D109D0931703C0931603B5CFD09341
:101DE0001601C0931501D0931401C0931301ACCF19
:101DF000D0931503C0931403F6CFD0931303C0936D
:101E00001203A2CF8091110190911201C817D90736
:101E100009F49ACF809110039091110390930F03CE
:101E200080930E0380914402909145029093430267
:101E3000809342020E947D020E945005D0931201BD
:101E4000C093110181CFD0931001C0930F017CCFBB
:101E5000D0930E01C0930D0177CFD0930C01C093A6
:101E60000B0172CFD0930A01C09309016DCFD093BB
:101E70000801C093070168CFD0930601C093050104
:101E800063CFC032D105F4F080910E0390910F031F
:101E9000FC01EA5BFD4FC0830196883C91056CF420
:101EA00090930F0380930E0380911501909116017A
:101EB0009093140180931301FFCE10920F031092A0
:101EC0000E03F2CFCC31D10508F0BAC0FE01E559BE
:101ED000F04F0C948813870F990F201020102010BA
:101EE0002010201020102010201020102010A20FF1
:101EF000B50F201020102010CD0FD20FE70F2010AB
:101F000020102010201020102010F00F09108091B8
:101F10000E0390910F03FC01EA5BFD4F20820196B6
:101F2000883C91050CF457C010920F0310920E03D9
:101F3000C3CE47E050E069E371E082E293E00E94A3
:101F40008D00BACE8091780190917901009729F4A3
:101F500090E080E00E947A01AFCE039719F481E00F
:101F600090E0F8CF82E090E0F5CF2091100330911F
:101F7000110340910E0350910F034217530749F08C
:101F80008F5F2F5F3F4F283C3105BCF330E020E0EE
:101F9000F4CF082E000C990BDDCF809177018111D1
:101FA000DECFD6CF809110039091110390930F0351
:101FB00080930E03809144029091450290934302D6
:101FC000809342020E947D020E94500575CE80914E
:101FD00010039091110390930F0380930E036CCE26
:101FE00080910E0390910F03209110033091110303
:101FF0008217930709F4ACCF019797FD05C0909322
:102000000F0380930E03ABCFB0920F03A0920E0389
:10201000A6CF6091730170917401809175019091C8
:102020007601A30192010E9433116901822F220FD0
:10203000990B0E947A018D2D992787FD9A958ACF59
:10204000C093180339CE78948114910409F433CEE7
:102050000E94F700882309F42ECE0E9400002BCEA8
:10206000E2E2F3E01382128288EE93E0A0E0B0E0B7
:1020700084839583A683B7838BE291E091838083E9
:1020800085EC90E09587848784EC90E0978786873D
:1020900080EC90E0918B808B81EC90E0938B828B35
:1020A00082EC90E0958B848B86EC90E0978B868B0E
:1020B000118E128E138E148E08958F929F92AF926E
:1020C000BF92CF92DF92EF92FF92CF93DF93EC011A
:1020D000688179818A819B816115710581059105EE
:1020E00021F464E279ED8BE597E02DE133EF41E0F7
:1020F00050E00E94011149015A019B01AC01A7EA7D
:10210000B1E40E9420116B017C01ACEEB4EFA5019B
:1021100094010E942E11C60ED71EE81EF91EF7FE6E
:1021200006C081E0C81AD108E10880E8F80AC88230
:10213000D982EA82FB82C701B6019F77DF91CF91F6
:10214000FF90EF90DF90CF90BF90AF909F908F90D7
:1021500008958F929F92AF92BF92CF92DF92EF92AB
:10216000FF9260912301709124018091250190914B
:102170002601611571058105910521F464E279ED6F
:102180008BE597E02DE133EF41E050E00E94011133
:1021900049015A019B01AC01A7EAB1E40E94201158
:1021A0006B017C01ACEEB4EFA50194010E942E11ED
:1021B000C60ED71EE81EF91EF7FE06C081E0C81A3B
:1021C000D108E10880E8F80AC0922301D0922401E6
:1021D000E0922501F0922601C701B6019F77FF909A
:1021E000EF90DF90CF90BF90AF909F908F90089529
:1021F000609323017093240180932501909326011D
:102200000895052E97FB1EF400940E94181157FDA7
:1022100007D00E94331107FC03D04EF40C94181120
:1022200050954095309521953F4F4F4F5F4F089502
:1022300090958095709561957F4F8F4F9F4F089532
:102240000E945511A59F900DB49F900DA49F800DE5
:10225000911D11240895B7FF0C9420110E942011A4
:10226000821B930B0895A1E21A2EAA1BBB1BFD0132
:102270000DC0AA1FBB1FEE1FFF1FA217B307E40765
:10228000F50720F0A21BB30BE40BF50B661F771FBD
:10229000881F991F1A9469F760957095809590959D
:1022A0009B01AC01BD01CF010895A29FB001B39F76
:1022B000C001A39F700D811D1124911DB29F700D4F
:1022C000811D1124911D08955058BB27AA270E94F3
:1022D0007C110C94CD120E94BF1238F00E94C612DD
:1022E00020F039F49F3F19F426F40C94BC120EF43C
:1022F000E095E7FB0C94B612E92F0E94DE1258F32A
:10230000BA17620773078407950720F079F4A6F5DA
:102310000C9400130EF4E0950B2EBA2FA02D0B0198
:10232000B90190010C01CA01A0011124FF27591B1A
:1023300099F0593F50F4503E68F11A16F040A22F20
:10234000232F342F4427585FF3CF46953795279591
:10235000A795F0405395C9F77EF41F16BA0B620B90
:10236000730B840BBAF09150A1F0FF0FBB1F661FD7
:10237000771F881FC2F70EC0BA0F621F731F841F1A
:1023800048F4879577956795B795F7959E3F08F040
:10239000B0CF9395880F08F09927EE0F9795879502
:1023A00008950E94E5110C94CD120E94C61258F0B7
:1023B0000E94BF1240F029F45F3F29F00C94B6123E
:1023C00051110C9401130C94BC120E94DE1268F39C
:1023D0009923B1F3552391F3951B550BBB27AA27DE
:1023E00062177307840738F09F5F5F4F220F331F18
:1023F000441FAA1FA9F335D00E2E3AF0E0E832D0E0
:1024000091505040E695001CCAF72BD0FE2F29D0E2
:10241000660F771F881FBB1F261737074807AB07B4
:10242000B0E809F0BB0B802DBF01FF2793585F4F29
:102430003AF09E3F510578F00C94B6120C940113BB
:102440005F3FE4F3983ED4F3869577956795B7950B
:10245000F7959F5FC9F7880F911D9695879597F916
:102460000895E1E0660F771F881FBB1F621773078F
:102470008407BA0720F0621B730B840BBA0BEE1FA4
:1024800088F7E09508950E944A126894B1110C945F
:10249000011308950E94E61288F09F5798F0B92F13
:1024A0009927B751B0F0E1F0660F771F881F991F89
:1024B0001AF0BA95C9F714C0B13091F00E94001318
:1024C000B1E008950C940013672F782F8827B85F28
:1024D00039F0B93FCCF3869577956795B395D9F7E1
:1024E0003EF490958095709561957F4F8F4F9F4FEB
:1024F0000895E89409C097FB3EF4909580957095F7
:1025000061957F4F8F4F9F4F9923A9F0F92F96E93F
:10251000BB279395F695879577956795B795F111B4
:10252000F8CFFAF4BB0F11F460FF1BC06F5F7F4F51
:102530008F4F9F4F16C0882311F096E911C0772363
:1025400021F09EE8872F762F05C0662371F096E86C
:10255000862F70E060E02AF09A95660F771F881F3B
:10256000DAF7880F9695879597F9089597F99F67F9
:1025700080E870E060E008959FEF80EC089500240B
:102580000A941616170618060906089500240A94D8
:1025900012161306140605060895092E0394000C5E
:1025A00011F4882352F0BB0F40F4BF2B11F460FFED
:1025B00004C06F5F7F4F8F4F9F4F089557FD905816
:1025C000440F551F59F05F3F71F04795880F97FBF7
:1025D000991F61F09F3F79F08795089512161306B1
:1025E0001406551FF2CF4695F1DF08C016161706E0
:1025F0001806991FF1CF8695710561050894089515
:10260000E894BB2766277727CB0197F908950E94A6
:102610001A130C94CD120E94BF1238F00E94C612F9
:1026200020F0952311F00C94B6120C94BC121124D6
:102630000C9401130E94DE1270F3959FC1F3950F65
:1026400050E0551F629FF001729FBB27F00DB11D36
:10265000639FAA27F00DB11DAA1F649F6627B00DC6
:10266000A11D661F829F2227B00DA11D621F739FAF
:10267000B00DA11D621F839FA00D611D221F749FBD
:102680003327A00D611D231F849F600D211D822F04
:10269000762F6A2F11249F5750409AF0F1F088232B
:1026A0004AF0EE0FFF1FBB1F661F771F881F915058
:1026B0005040A9F79E3F510580F00C94B6120C943F
:1026C00001135F3FE4F3983ED4F3869577956795C1
:1026D000B795F795E7959F5FC1F7FE2B880F911D82
:1026E0009695879597F9089597FB072E16F4009411
:1026F00007D077FD09D00E948E1307FC05D03EF469
:10270000909581959F4F0895709561957F4F08959D
:10271000EE0FFF1F0590F491E02D0994AA1BBB1B3F
:1027200051E107C0AA1FBB1FA617B70710F0A61BD1
:10273000B70B881F991F5A95A9F780959095BC01F2
:08274000CD010895F894FFCFCC
:10274800F401FF7C020100010002000A00050005F7
:102758000001001E001E006666863F06000700BCDA
:1027680002F40101000000000000002D018D00BAF4
:10277800007F01EB00C900DD005452435720563456
:0227880000004F
:00000001FF
