:100000000C9463000C948B000C948B000C948B006C
:100010000C948B000C948B000C948B000C941B2183
:100020000C948B000C948B000C948B000C948B0024
:100030000C948B000C94CF210C948B000C948B00AF
:100040000C94D1200C948B000C949D210C9477215E
:100050000C948B000C948B000C948B000C948B00F4
:100060000C948B000C948B000000000024002700EF
:100070002A0000000000250028002B0000000000DE
:1000800023002600290004040404040404040202DA
:100090000202020203030303030301020408102007
:1000A0004080010204081020010204081020000012
:1000B0000008000201000003040700000000000027
:1000C00000000200DB2411241FBECFEFD8E0DEBF0A
:1000D000CDBF11E0A0E0B1E0EEE9F0E502C005908F
:1000E0000D92A234B107D9F723E0A2E4B1E001C038
:1000F0001D92AA3CB207E1F710E0C3E6D0E004C0CD
:100100002197FE010E943328C236D107C9F70E9409
:10011000F6210C944D280C940000AF92BF92CF9220
:10012000DF92EF92FF920F931F93CF93DF936C01B7
:100130007B018B01040F151FEB015E01AE18BF0898
:10014000C017D10759F06991D601ED91FC9101904A
:10015000F081E02DC6010995892B79F7C501DF9162
:10016000CF911F910F91FF90EF90DF90CF90BF90B4
:10017000AF900895FC01538D448D252F30E0842FDE
:1001800090E0821B930B541710F0CF9608950197BF
:100190000895FC01918D828D981761F0A28DAE0FAC
:1001A000BF2FB11D5D968C91928D9F5F9F73928F33
:1001B00090E008958FEF9FEF0895FC01918D828D5F
:1001C000981731F0828DE80FF11D858D90E008952C
:1001D0008FEF9FEF0895FC01918D228D892F90E084
:1001E000805C9F4F821B91098F73992708958DE240
:1001F00093E00E94EB0021E0892B09F420E0822F9C
:10020000089580E090E0892B29F00E94F700811189
:100210000C9400000895FC01A48DA80FB92FB11D06
:10022000A35ABF4F2C91848D90E001968F7399272C
:10023000848FA689B7892C93A089B1898C9183700A
:1002400080648C93938D848D981306C00288F38903
:10025000E02D80818F7D80830895EF92FF920F9330
:100260001F93CF93DF93EC0181E0888F9B8D8C8D62
:1002700098131AC0E889F989808185FF15C09FB756
:10028000F894EE89FF896083E889F9898081837019
:10029000806480839FBF81E090E0DF91CF911F91C8
:1002A0000F91FF90EF900895F62E0B8D10E00F5FE9
:1002B0001F4F0F731127E02E8C8D8E110CC00FB6BF
:1002C00007FCFACFE889F989808185FFF5CFCE0157
:1002D0000E940B01F1CFEB8DEC0FFD2FF11DE35AC6
:1002E000FF4FF0829FB7F8940B8FEA89FB898081DA
:1002F0008062CFCF682F8DE293E00C942D01CF93D5
:10030000DF93EC01888D8823B9F0AA89BB89E8893D
:10031000F9898C9185FD03C0808186FD0DC00FB6E3
:1003200007FCF7CF8C9185FFF2CF808185FFEDCF61
:10033000CE010E940B01E9CFDF91CF910895833068
:1003400081F028F4813099F08230A9F00895873047
:10035000A9F08830C9F08430B1F4809180008F7D9D
:1003600003C0809180008F7780938000089584B5CA
:100370008F7784BD089584B58F7DFBCF8091B000C9
:100380008F778093B00008958091B0008F7DF9CF72
:10039000CF93DF93282F30E0F901E255FF4F84918E
:1003A000F901E656FF4FD491F901EA57FF4FC49186
:1003B000CC23A1F081110E949F01EC2FF0E0EE0F01
:1003C000FF1FE458FF4FA591B491EC91ED2381E01C
:1003D00090E009F480E0DF91CF91089580E090E013
:1003E000FACF1F93CF93DF93282F30E0F901E25526
:1003F000FF4F8491F901E656FF4FD491F901EA5776
:10040000FF4FC491CC23A9F0162F81110E949F01A8
:10041000EC2FF0E0EE0FFF1FEE58FF4FA591B491C7
:100420008FB7F894EC91111108C0D095DE23DC93BE
:100430008FBFDF91CF911F910895DE2BF8CF909160
:10044000020189130BC0E2ECF0E0E4919FEF90937E
:100450000201E13049F028F0E23061F060E00C94F4
:10046000F10110926E00FACF90916F009D7F9093F2
:100470006F00F4CF909170009D7F9093700091E099
:100480009093B0009091B100987F94609093B100E8
:100490001092B300E3CFCF93DF9390E0FC01E656D8
:1004A000FF4F24918A579F4FFC0184918823D1F0FC
:1004B00090E0880F991FFC01E859FF4FA591B49176
:1004C000FC01EE58FF4FC591D491623071F49FB793
:1004D000F8943C91822F809583238C93E8812E2B76
:1004E00028839FBFDF91CF9108958FB7F894EC9147
:1004F0002E2B2C938FBFF6CF089560E08DE00E94E5
:10050000F1018CE00E941F0260E085E00E94F10191
:1005100060E084E00C94F1018F929F92AF92BF92C1
:10052000CF92DF92EF92FF92CF9361E08DE00E9435
:10053000F101C0900001D09001011C141D043CF495
:10054000809102018C30C1F08F3F09F47DC0809111
:100550001101909112018130910509F494C1029723
:1005600009F4A2C1CF91FF90EF90DF90CF90BF90A0
:10057000AF909F908F900895E2ECF0E0C491C7FD9A
:10058000E6CF61E08CE00E944B02CC2319F0C23030
:1005900009F024C10D2C000CEE08FF0860E072E1A8
:1005A0008AE790E0A70196010E94AC2549015A0113
:1005B000DA01C9010197A109B1098F3F9105A10590
:1005C000B10509F00CF4EEC060E472E48FE090E055
:1005D000A70196010E94AC2521503109410951091A
:1005E000C23009F0A0C082E02F3F3105410551051E
:1005F00009F00CF4A2C160E970ED83E090E0A7017E
:1006000096010E94AC25215031094109510983E02E
:100610002F3F31054105510509F00CF48EC168E406
:1006200078EE81E090E0A70196010E94AC25215070
:100630003109410951092F3F31054105510511F09B
:100640000CF08FC084E079C18CE080930201E2EC71
:10065000F0E0C491CF3F09F47ACFC13021F150F0DE
:10066000C23009F43EC0C7FD72CF61E08CE00E9449
:100670004B028DCF14BC15BC84B5826084BD85B59A
:10068000816085BDE2E9F0E0E491F0E0EE0FFF1F4C
:10069000EE58FF4F85919491E6EAF0E0E491E09303
:1006A0004301C0E06ECF10928000109281008091D3
:1006B00081008860809381008091810081608093B7
:1006C0008100E2E9F0E0E491F0E0EE0FFF1FEE5868
:1006D000FF4F85919491E6EAF0E0E491E0934201C6
:1006E00050CF1092B0001092B1008091B0008260A3
:1006F0008093B0008091B10081608093B100E2E905
:10070000F0E0E491F0E0EE0FFF1FEE58FF4F85910F
:1007100094919093740180937301E6EAF0E0E49180
:10072000E09375012ECF2F3F31054105510509F0AA
:100730000CF452C068E478EE81E090E0A7019601E5
:100740000E94AC252150310941095109CC2309F4FB
:10075000C9C02F3F31054105510511F00CF0CAC049
:1007600071CF64E274EF80E090E0A70196010E94EF
:10077000AC25215031094109510985E02F3F310550
:100780004105510509F00CF4D8C062E17AE780E038
:1007900090E0A70196010E94AC2521503109410942
:1007A0005109B6C09C0181E0C111C7C095B5987FC1
:1007B000892B85BD27BD8FEF9FEFDC01809348011A
:1007C00090934901A0934A01B0934B0180916E0030
:1007D000826080936E00BBCE82E0E6CF0D2C000CD1
:1007E000EE08FF0860E072E18AE790E0A701960159
:1007F0000E94AC25215031094109510991E0211590
:10080000310581E0480751056CF068E478EE81E03D
:1008100090E0A70196010E94AC25215031094109C1
:10082000510993E0C13009F08EC080918100887F2A
:10083000892B8093810030938900209388008FEF6B
:100840009FEFDC018093440190934501A093460102
:10085000B093470180916F00826080936F0077CEE4
:100860002093B3008FEF9FEFDC018093760190938C
:100870007701A0937801B093790180917000826034
:100880008093700064CE60E084E00E94F10161E03A
:1008900085E0CF91FF90EF90DF90CF90BF90AF9029
:1008A0009F908F900C94F10160E085E00E94F1012F
:1008B00061E084E0EECF84E02F3F31054105510532
:1008C00009F008F473CF8AE0B594A79497948794BD
:1008D0008A95D1F7A50194012150310941095109A7
:1008E00085E064CF83E02F3F31054105510509F0D4
:1008F0000CF45CCF62E17AE780E090E0A70196011A
:100900000E94AC252150310941095109CC2399F2AB
:1009100086E02F3F31054105510579F070F09AE0EE
:10092000B594A794979487949A95D1F7A5019401CB
:10093000215031094109510987E09091B100987F18
:10094000892B8093B100C13009F475CFC23009F40E
:1009500087CFC111FCCD2ECF4F925F926F927F92C5
:100960008F929F92AF92BF92CF92DF92EF92FF92BF
:100970000F931F93CF93DF93C0914F02D0915002FA
:1009800080914D0290914E028C179D0709F468C02A
:100990006091130170911401072E000C880B990BC4
:1009A0000E9426279B01AC0160E070E080EF92E49A
:1009B0000E947C266B017C018E01000F111F0B57DA
:1009C0001E4FF801618170E090E080E00E942627D0
:1009D0009B01AC01C701B6010E94B2270E94EE261E
:1009E00070934E0160934D01809017019090180113
:1009F000A0901901B0901A01409021035090220359
:100A0000F80120816B01770FEE08FF08052C000C20
:100A10006608770820FF35C00E948C02C701B60126
:100A20000E942627A50194010E94B2276B017C0138
:100A3000C301B2010E9426279B01AC01C701B60188
:100A40000E9410260E94EE2670934E0160934D0185
:100A50002196C436D105C4F5D0935002C0934F02FD
:100A6000DF91CF911F910F91FF90EF90DF90CF908A
:100A7000BF90AF909F908F907F906F905F904F90BE
:100A800008950E947D02C701B6010E9426276B01CE
:100A90007C01A501940160E070E080E89FE30E9482
:100AA0007C269B01AC01C701B6010E94B2276B01F5
:100AB0007C01C301B2010E9426279B01AC01C70142
:100AC000B6010E940F26BECF1092500210924F0224
:100AD000C7CF10926B0110926A0160E083E00E9420
:100AE000F10160E082E00E94F10110927A0110921F
:100AF0007B0110927C0110927D01809115019091F3
:100B000016019093140180931301089510927A01B5
:100B100010927B0110927C0110927D0181E090E0A7
:100B200090936B0180936A01809111019091120161
:100B30008130910519F0029779F0089560E082E024
:100B40000E94F1018091070190910801892B89F0A1
:100B500061E083E00C94F10160E083E00E94F10128
:100B60008091070190910801892B19F061E082E0E2
:100B7000F1CF08958091090190910A01813091058A
:100B800021F18230910531F1892BF1F4609113014B
:100B900070911401072E000C880B990B0E942627D8
:100BA0009B01AC0160E070E080EF92E40E947C2643
:100BB00020E030E040EF51E40E94B2270E94EE2690
:100BC0007093520160935101089510925201109256
:100BD000510108956091130170911401072E000CCA
:100BE000880B990B0E9426279B01AC0160E070E006
:100BF00080EF92E40E947C2620E030E040E751E460
:100C0000DBCF8091090190910A018130910521F19A
:100C10008230910531F1892BF1F4609113017091CB
:100C20001401072E000C880B990B0E9426279B01AC
:100C3000AC0160E070E080EF92E40E947C2620E04E
:100C400030E040E251E40E94B2270E94EE26709309
:100C5000500160934F0108951092500110924F017E
:100C600008956091130170911401072E000C880BF8
:100C7000990B0E9426279B01AC0160E070E080EF99
:100C800092E40E947C2620E030E040EA50E4DBCF92
:100C900080914D0290914E02FC01EE0FFF1FEB5729
:100CA000FE4F21E020832DE22183019684369105B9
:100CB000CCF490934E0280934D0280914D0290911E
:100CC0004E02FC01EE0FFF1FEB57FE4F10822AE091
:100CD000218301968436910554F490934E028093BB
:100CE0004D02089510924E0210924D02E6CF1092DE
:100CF0004E0210924D0208959FEB980F9A3108F41E
:100D0000805EECE9E80FE73108F066C00E2E000CBB
:100D1000FF0BE357F94F0C943328A406EC06A60604
:100D2000EC06B006C906D606EC06EC06EC06EC06A8
:100D3000EC06EC06EC06EC06E006EC06EC06EC062F
:100D4000EC06DC06CF06E6060C94480680911301FB
:100D500090911401029690931401809313010895C9
:100D600080914D0290914E02FC01EE0FFF1FEB5758
:100D7000FE4F108211820196843691052CF49093D7
:100D80004E0280934D02089510924E0210924D0231
:100D900008958091110190911201019769F461E029
:100DA00089E00E94F10160E08AE008C080911101B1
:100DB00090911201019799F760E089E00C94F1019C
:100DC00080911301909114010297C5CF61E089E0F1
:100DD0000E94F10161E0E8CF089580914D02909169
:100DE0004E02FC01EE0FFF1FEB57FE4F21E0208368
:100DF0002EE12183019684369105CCF490934E0226
:100E000080934D0280914D0290914E02FC01EE0FB5
:100E1000FF1FEB57FE4F10822AE021830196843694
:100E2000910554F490934E0280934D0208951092D0
:100E30004E0210924D02E6CF10924E0210924D02D9
:100E4000089580914D0290914E02FC01EE0FFF1F1C
:100E5000EB57FE4F21E020832AE021830196843660
:100E60009105CCF490934E0280934D0280914D02F7
:100E700090914E02FC01EE0FFF1FEB57FE4F1082C8
:100E80002AE0218301968436910554F490934E0212
:100E900080934D02089510924E0210924D02E6CFBB
:100EA00010924E0210924D0208950E94542520E1A6
:100EB00030E040E050E00E94AC25DC01CB018096A0
:100EC000A11DB11D08950E94542523E030E040E0AB
:100ED00050E00E94AC25DC01CB010996A11DB11D9B
:100EE00008950E94542524E030E040E050E00E9444
:100EF000AC25DC01CB010796A11DB11D0895CF9350
:100F00004091190350911A0380911B0390911C0387
:100F100048175907A9F0FC01EF5AFD4FC08101960F
:100F2000883C91057CF490931C0380931B03809173
:100F30004C01882361F08C2F0E947C0610924C019A
:100F4000CF91089510921C0310921B03F0CFCB3366
:100F500001F520911B0330911C0342175307A9F0A0
:100F6000F901EF5AFD4F80812F5F3F4F283C31053B
:100F70003CF430931C0320931B03CF910C947C060C
:100F800010921C0310921B03F8CF81E080934C0158
:100F9000D7CF8091210190912201909301018093FC
:100FA000000180916A0190916B01892B91F40E945C
:100FB000860580910F019091100190935E018093BE
:100FC0005D01809115019091160190931401809319
:100FD00013018FEB8C0F8A3108F4C05E809183017E
:100FE00090918401E0EEEC0F019711F00C94021B3C
:100FF000EB3508F079C00E2E000CFF0BEE5FF74FBB
:101000000C9433285D08D0087408740874087408B8
:10101000D5087408740874087408BB08A108DC08B3
:101020009608DF08B519AF13AD14C3157516481728
:10103000DE17F5174918DC1874087408C408C908C5
:101040007408AE0874087408740874087408740886
:1010500074087408740874087408740874087408B0
:1010600074087408740874087408740874087408A0
:101070007408740874087408740874087408740890
:101080005D085D087408E2083209160AAB0AF10A25
:10109000140B960BC00B6F0C9B0C710DB70D210E32
:1010A0005B0EB50E280F7C0FE60F43102009A01031
:1010B0006D10C610661165120A1380914D02909151
:1010C0004E02FC01EE0FFF1FEB57FE4F1082118204
:1010D000019690934E0280934D028436910524F040
:1010E00010924E0210924D0280914D0290914E024C
:1010F000FC01EE0FFF1FEB57FE4F22E020832EE195
:101100002183019690934E0280934D02843691057F
:1011100024F010924E0210924D0280910D01909198
:101120000E0190935401809353010ACF0E9421072E
:101130000E94ED060E9421070E94ED060E942107F1
:101140000AC00E94ED060E94ED060E9421070E943F
:1011500021070E94ED060E94ED06C6CF0E942107DE
:101160000E9421070E94ED060E94ED060E942107C1
:101170000E942107B9CF0E9421070E94ED060E941C
:1011800021070E94ED06F4CF0E9421070E9421074B
:10119000D1CF0E94ED060E9421070E942107CECFE9
:1011A0000E9421070E942107EACF0E9421070E9486
:1011B000ED060E942107DACF0E94480695CF0E94D3
:1011C000ED06F0CFE0914D02F0914E02EE0FFF1FC1
:1011D000EB57FE4F81E080830E94630720914D0210
:1011E00030914E02F901EE0FFF1FEB57FE4F818346
:1011F0002F5F3F4F2436310584F530934E02209304
:101200004D02E0914D02F0914E02EE0FFF1FEB57A1
:10121000FE4F10820E94710720914D0230914E02C4
:10122000F901EE0FFF1FEB57FE4F81832F5F3F4FFA
:10123000243631050CF007C630934E0220934D0240
:10124000E0914D02F0914E02EE0FFF1FEB57FE4F63
:1012500081E080830E9455076EC510924E02109265
:101260004D02CFCFE0914D02F0914E02EE0FFF1FE5
:10127000EB57FE4F81E080830E94550720914D027D
:1012800030914E02F901EE0FFF1FEB57FE4F8183A5
:101290002F5F3F4F243631050CF0AFC030934E0224
:1012A00020934D02E0914D02F0914E02EE0FFF1F90
:1012B000EB57FE4F10820E94710720914D02309132
:1012C0004E02F901EE0FFF1FEB57FE4F81832F5F98
:1012D0003F4F243631050CF095C030934E022093D9
:1012E0004D02E0914D02F0914E02EE0FFF1FEB57C1
:1012F000FE4F81E080830E94630720914D02309170
:101300004E02F901EE0FFF1FEB57FE4F81832F5F57
:101310003F4F243631050CF07AC030934E022093B3
:101320004D02E0914D02F0914E02EE0FFF1FEB5780
:10133000FE4F10820E94710720914D0230914E02A3
:10134000F901EE0FFF1FEB57FE4F81832F5F3F4FD9
:10135000243631050CF060C030934E0220934D02CC
:10136000E0914D02F0914E02EE0FFF1FEB57FE4F42
:1013700081E080830E94630720914D0230914E02EC
:10138000F901EE0FFF1FEB57FE4F81832F5F3F4F99
:10139000243631050CF045C030934E0220934D02A7
:1013A000E0914D02F0914E02EE0FFF1FEB57FE4F02
:1013B00010820E94710720914D0230914E02F90176
:1013C000EE0FFF1FEB57FE4F81832F5F3F4F2436F9
:1013D000310514F00C94A91930934E0220934D025C
:1013E000E0914D02F0914E02EE0FFF1FEB57FE4FC2
:1013F00081E080830E9463074AC310924E021092DC
:101400004D0250CF10924E0210924D026ACF1092B0
:101410004E0210924D0285CF10924E0210924D0254
:101420009FCF10924E0210924D02BACFE0914D0222
:10143000F0914E02EE0FFF1FEB57FE4F81E08083CD
:101440000E94550720914D0230914E02F901EE0F96
:10145000FF1FEB57FE4F81832F5F3F4F243631052F
:101460000CF06FC030934E0220934D0280914D02DC
:1014700090914E02FC01EE0FFF1FEB57FE4F1082C2
:1014800026E021830196843691050CF05FC090938D
:101490004E0280934D02E0914D02F0914E02EE0F0C
:1014A000FF1FEB57FE4F81E080830E94630720916E
:1014B0004D0230914E02F901EE0FFF1FEB57FE4F28
:1014C00081832F5F3F4F243631050CF00BC53093DD
:1014D0004E0220934D0280914D0290914E02FC01EC
:1014E000EE0FFF1FEB57FE4F108227E0218301967E
:1014F000843691050CF0FBC490934E0280934D020C
:10150000E0914D02F0914E02EE0FFF1FEB57FE4FA0
:1015100081E080830E94550720914D0230914E0258
:10152000F901EE0FFF1FEB57FE4F81832F5F3F4FF7
:10153000243631050CF0C7C530934E0220934D027E
:10154000DFC010924E0210924D0290CF10924E02C8
:1015500010924D02A0CFE0914D02F0914E02EE0F9D
:10156000FF1FEB57FE4F81E080830E9455072091BB
:101570004D0230914E02F901EE0FFF1FEB57FE4F67
:1015800081832F5F3F4F2436310534F530934E026F
:1015900020934D0280914D0290914E02FC01EE0F7E
:1015A000FF1FEB57FE4F108226E021830196843601
:1015B00091050CF083C590934E0280934D02E0910B
:1015C0004D02F0914E02EE0FFF1FEB57FE4F81E0F0
:1015D00080830E946307A0CF10924E0210924D02AA
:1015E000D9CF80914D0290914E02FC01EE0FFF1F6A
:1015F000EB57FE4F21E0208327E0218301968436BC
:1016000091050CF065C590934E0280934D02809138
:101610004D0290914E02FC01EE0FFF1FEB57FE4F63
:10162000108227E0218354CD80914D0290914E028B
:10163000FC01EE0FFF1FEB57FE4F21E0208327E058
:1016400021830196843691050CF066C090934E027A
:1016500080934D0280914D0290914E02FC01EE0F5D
:10166000FF1FEB57FE4F108226E021830196843640
:1016700091050CF056C090934E0280934D028091DC
:101680004D0290914E02FC01EE0FFF1FEB57FE4FF3
:1016900021E0208328E021830196843691050CF017
:1016A00065C090934E0280934D0280914D029091BF
:1016B0004E02FC01EE0FFF1FEB57FE4F108227E09A
:1016C00021830196843691050CF055C090934E020B
:1016D00080934D0280914D0290914E02FC01EE0FDD
:1016E000FF1FEB57FE4F21E020832DE2218301965F
:1016F000843691050CF0E7C490934E0280934D021E
:1017000080914D0290914E02FC01EE0FFF1FEB57AE
:10171000FE4F108227E0BEC010924E0210924D0282
:1017200099CF10924E0210924D02A9CFE0914D0236
:10173000F0914E02EE0FFF1FEB57FE4F81E08083CA
:101740000E94550720914D0230914E02F901EE0F93
:10175000FF1FEB57FE4F81832F5F3F4F243631052C
:101760002CF430934E0220934D029FCF10924E02E4
:1017700010924D029ACF10924E0210924D02AACFB3
:1017800080914D0290914E02FC01EE0FFF1FEB572E
:10179000FE4F21E0208329E02183019684369105C4
:1017A0000CF084C090934E0280934D0280914D02C4
:1017B00090914E02FC01EE0FFF1FEB57FE4F10827F
:1017C00026E021830196843691050CF074C0909335
:1017D0004E0280934D02E0914D02F0914E02EE0FC9
:1017E000FF1FEB57FE4F81E080830E94630720912B
:1017F0004D0230914E02F901EE0FFF1FEB57FE4FE5
:1018000081832F5F3F4F243631050CF059C0309350
:101810004E0220934D0280914D0290914E02FC01A8
:10182000EE0FFF1FEB57FE4F108226E0218301963B
:10183000843691050CF049C090934E0280934D027E
:10184000E0914D02F0914E02EE0FFF1FEB57FE4F5D
:1018500081E080830E94630720914D0230914E0207
:10186000F901EE0FFF1FEB57FE4F81832F5F3F4FB4
:10187000243631057CF530934E0220934D02809141
:101880004D0290914E02FC01EE0FFF1FEB57FE4FF1
:10189000108226E0218301968436910514F00C9481
:1018A000A91990934E0280934D029ACD10924E0248
:1018B00010924D027BCF10924E0210924D028BCFB0
:1018C00010924E0210924D02A6CF10924E0210922C
:1018D0004D02B6CF10924E0210924D02D0CFE09141
:1018E0004D02F0914E02EE0FFF1FEB57FE4F81E0CD
:1018F00080830E94630720914D0230914E02F901CE
:10190000EE0FFF1FEB57FE4F81832F5F3F4F2436B3
:1019100031050CF0AEC330934E0220934D028091FE
:101920004D0290914E02FC01EE0FFF1FEB57FE4F50
:10193000108227E0EAC1E0914D02F0914E02EE0FD5
:10194000FF1FEB57FE4F81E080830E9463072091C9
:101950004D0230914E02F901EE0FFF1FEB57FE4F83
:1019600081832F5F3F4F243631050CF0A6C03093A2
:101970004E0220934D0280914D0290914E02FC0147
:10198000EE0FFF1FEB57FE4F108226E021830196DA
:10199000843691050CF096C090934E0280934D02D0
:1019A000E0914D02F0914E02EE0FFF1FEB57FE4FFC
:1019B00081E080830E94550720914D0230914E02B4
:1019C000F901EE0FFF1FEB57FE4F81832F5F3F4F53
:1019D000243631050CF07BC030934E0220934D022B
:1019E00080914D0290914E02FC01EE0FFF1FEB57CC
:1019F000FE4F108227E021830196843691050CF07A
:101A00006BC090934E0280934D02E0914D02F09195
:101A10004E02EE0FFF1FEB57FE4F81E080830E94C6
:101A2000550720914D0230914E02F901EE0FFF1F34
:101A3000EB57FE4F81832F5F3F4F243631050CF06B
:101A4000A0C330934E0220934D0280914D0290919D
:101A50004E02FC01EE0FFF1FEB57FE4F108227E0F6
:101A6000218301968436910514F00C9442179093CB
:101A70004E0280934D02E0914D02F0914E02EE0F26
:101A8000FF1FEB57FE4F81E080830E945507209196
:101A90004D0230914E02F901EE0FFF1FEB57FE4F42
:101AA00081832F5F3F4F2436310514F00C94AF191A
:101AB00030934E0220934D02E9C310924E021092D1
:101AC0004D0259CF10924E0210924D0269CF1092E2
:101AD0004E0210924D0284CF10924E0210924D028F
:101AE00094CFE0914D02F0914E02EE0FFF1FEB57A5
:101AF000FE4F81E080830E94550720914D02309176
:101B00004E02F901EE0FFF1FEB57FE4F81832F5F4F
:101B10003F4F2436310534F530934E0220934D0269
:101B200080914D0290914E02FC01EE0FFF1FEB578A
:101B3000FE4F108226E021830196843691050CF039
:101B40001BC390934E0280934D02E0914D02F091A1
:101B50004E02EE0FFF1FEB57FE4F81E080830E9485
:101B600063075FCF10924E0210924D02D9CFE091E1
:101B70004D02F0914E02EE0FFF1FEB57FE4F81E03A
:101B800080830E94630720914D0230914E02F9013B
:101B9000EE0FFF1FEB57FE4F81832F5F3F4F243621
:101BA00031050CF044C030934E0220934D028091D9
:101BB0004D0290914E02FC01EE0FFF1FEB57FE4FBE
:101BC000108226E02183019684369105ACF590932E
:101BD0004E0280934D02E0914D02F0914E02EE0FC5
:101BE000FF1FEB57FE4F81E080830E945507209135
:101BF0004D0230914E02F901EE0FFF1FEB57FE4FE1
:101C000081832F5F3F4F243631050CF052C2309351
:101C10004E0220934D0280914D0290914E02FC01A4
:101C2000EE0FFF1FEB57FE4F108227E0BECC109245
:101C30004E0210924D02BBCF10924E0210924D02F6
:101C4000CACFE0914D02F0914E02EE0FFF1FEB570D
:101C5000FE4F81E080830E94550720914D02309114
:101C60004E02F901EE0FFF1FEB57FE4F81832F5FEE
:101C70003F4F24363105D4F430934E0220934D0269
:101C800080914D0290914E02FC01EE0FFF1FEB5729
:101C9000FE4F108226E021830196843691050CF0D8
:101CA000D2C090934E0280934D02CACA10924E0247
:101CB00010924D02E5CFE0914D02F0914E02EE0FF1
:101CC000FF1FEB57FE4F81E080830E945507209154
:101CD0004D0230914E02F901EE0FFF1FEB57FE4F00
:101CE00081832F5F3F4F24363105D4F530934E0268
:101CF00020934D0280914D0290914E02FC01EE0F17
:101D0000FF1FEB57FE4F108226E021830196843699
:101D100091050CF0B3C190934E0280934D02E09177
:101D20004D02F0914E02EE0FFF1FEB57FE4F81E088
:101D300080830E94630720914D0230914E02F90189
:101D4000EE0FFF1FEB57FE4F81832F5F3F4F24366F
:101D500031050CF0BDC130934E0220934D0257CC9B
:101D600010924E0210924D02C5CFE0914D02F091BB
:101D70004E02EE0FFF1FEB57FE4F81E080830E9463
:101D8000550720914D0230914E02F901EE0FFF1FD1
:101D9000EB57FE4F81832F5F3F4F243631050CF008
:101DA00043C030934E0220934D0280914D0290919A
:101DB0004E02FC01EE0FFF1FEB57FE4F108226E094
:101DC0002183019684369105A4F590934E02809369
:101DD0004D02E0914D02F0914E02EE0FFF1FEB57C6
:101DE000FE4F81E080830E94550720914D02309183
:101DF0004E02F901EE0FFF1FEB57FE4F81832F5F5D
:101E00003F4F24363105D4F430934E0220934D02D7
:101E100080914D0290914E02FC01EE0FFF1FEB5797
:101E2000FE4F108227E037CF10924E0210924D02E3
:101E3000BCCF10924E0210924D02CBCF10924E02A8
:101E400010924D02E5CF10924E0210924D02F8C949
:101E5000E0914D02F0914E02EE0FFF1FEB57FE4F47
:101E600081E080830E94630720914D0230914E02F1
:101E7000F901EE0FFF1FEB57FE4F81832F5F3F4F9E
:101E8000243631052CF530934E0220934D0280917B
:101E90004D0290914E02FC01EE0FFF1FEB57FE4FDB
:101EA000108226E02183019684369105B4F4909344
:101EB0004E0280934D02E0914D02F0914E02EE0FE2
:101EC000FF1FEB57FE4F81E080830E945507EFCA4A
:101ED00010924E0210924D02DACF10924E021092E2
:101EE0004D02E9CF10924E0210924D02F4CA1092A8
:101EF0004E0210924D0204CBE0914D02F0914E0241
:101F0000EE0FFF1FEB57FE4F81E080830E945507C5
:101F100020914D0230914E02F901EE0FFF1FEB5759
:101F2000FE4F81832F5F3F4F243631050CF044C0B4
:101F300030934E0220934D0280914D0290914E02BB
:101F4000FC01EE0FFF1FEB57FE4F108226E02183AE
:101F5000019684369105ACF590934E0280934D0224
:101F6000E0914D02F0914E02EE0FFF1FEB57FE4F36
:101F700081E080830E94550720914D0230914E02EE
:101F8000F901EE0FFF1FEB57FE4F81832F5F3F4F8D
:101F9000243631050CF0EBC030934E0220934D02F5
:101FA00080914D0290914E02FC01EE0FFF1FEB5706
:101FB000FE4F108227E0BFCD10924E0210924D02CC
:101FC000BBCF10924E0210924D02CACFE0914D024B
:101FD000F0914E02EE0FFF1FEB57FE4F81E0808322
:101FE0000E94630720914D0230914E02F901EE0FDD
:101FF000FF1FEB57FE4F81832F5F3F4F2436310584
:1020000074F530934E0220934D0280914D029091D1
:102010004E02FC01EE0FFF1FEB57FE4F108226E031
:102020002183019684369105FCF490934E028093AF
:102030004D0280914D0290914E02FC01EE0FFF1F68
:10204000EB57FE4F21E020832DE221830196843659
:1020500091057CF490934E0280934D0260CC1092D7
:102060004E0210924D02D1CF10924E0210924D02AC
:10207000E0CF10924E0210924D0251CC10924E02BF
:1020800010924D024CCE80914D0290914E02FC0177
:10209000EE0FFF1FEB57FE4F21E0208329E0218345
:1020A0000196843691052CF490934E0280934D0254
:1020B000B2CD10924E0210924D02ADCD10924E0252
:1020C00010924D027CCA10924E0210924D0218CB13
:1020D00010924E0210924D029ACAE0914D02F09178
:1020E0004E02EE0FFF1FEB57FE4F81E080830E94F0
:1020F000630720914D0230914E02F901EE0FFF1F50
:10210000EB57FE4F81832F5F3F4F243631052CF56F
:1021100030934E0220934D0280914D0290914E02D9
:10212000FC01EE0FFF1FEB57FE4F108227E02183CB
:10213000019684369105B4F490934E0280934D023B
:10214000E0914D02F0914E02EE0FFF1FEB57FE4F54
:1021500081E080830E9463070FCF10924E0210929D
:102160004D02DACF10924E0210924D02E9CF10923A
:102170004E0210924D0214CF10924E0210924D0258
:10218000E4CC10924E0210924D025FCCE0914D02D1
:10219000F0914E02EE0FFF1FEB57FE4F81E0808360
:1021A0000E94630720914D0230914E02F901EE0F1B
:1021B000FF1FEB57FE4F81832F5F3F4F24363105C2
:1021C0000CF070C030934E0220934D0280914D026E
:1021D00090914E02FC01EE0FFF1FEB57FE4F108255
:1021E00027E021830196843691050CF060C090931E
:1021F0004E0280934D02E0914D02F0914E02EE0F9F
:10220000FF1FEB57FE4F81E080830E94550720910E
:102210004D0230914E02F901EE0FFF1FEB57FE4FBA
:1022200081832F5F3F4F243631050CF045C030933A
:102230004E0220934D0280914D0290914E02FC017E
:10224000EE0FFF1FEB57FE4F108227E02183019610
:1022500084369105B4F590934E0280934D0280919F
:102260004D0290914E02FC01EE0FFF1FEB57FE4F07
:1022700021E020832CE2218301968436910514F01D
:102280000C94AF1990934E0280934D0280914D02B1
:1022900090914E02FC01EE0FFF1FEB57FE4F108294
:1022A00028E0C0C910924E0210924D028FCF1092BA
:1022B0004E0210924D029FCF10924E0210924D028C
:1022C000BACF10924E0210924D02C9CF80914D02AA
:1022D00090914E02FC01EE0FFF1FEB57FE4F21E0E5
:1022E000208323E221830196843691050CF0CFC030
:1022F00090934E0280934D0280914D0290914E0238
:10230000FC01EE0FFF1FEB57FE4F108227E02183E9
:102310000196843691050CF0BFC090934E028093D5
:102320004D02E0914D02F0914E02EE0FFF1FEB5770
:10233000FE4F81E080830E94630720914D0230911F
:102340004E02F901EE0FFF1FEB57FE4F81832F5F07
:102350003F4F243631050CF0A4C030934E02209339
:102360004D0280914D0290914E02FC01EE0FFF1F35
:10237000EB57FE4F108227E02183019684369105AA
:102380000CF094C090934E0280934D02E0914D0268
:10239000F0914E02EE0FFF1FEB57FE4F81E080835E
:1023A0000E94630720914D0230914E02F901EE0F19
:1023B000FF1FEB57FE4F81832F5F3F4F24363105C0
:1023C0000CF079C030934E0220934D02E0914D0203
:1023D000F0914E02EE0FFF1FEB57FE4F10820E944E
:1023E000630720914D0230914E02F901EE0FFF1F5D
:1023F000EB57FE4F81832F5F3F4F243631050CF0A2
:102400005FC030934E0220934D02E0914D02F09157
:102410004E02EE0FFF1FEB57FE4F81E080830E94BC
:10242000550720914D0230914E02F901EE0FFF1F2A
:10243000EB57FE4F81832F5F3F4F243631050CF061
:102440009DC330934E0220934D02E0914D02F091D6
:102450004E02EE0FFF1FEB57FE4F10820E946307E4
:1024600020914D0230914E02F901EE0FFF1FEB5704
:10247000FE4F81832F5F3F4F30934E0220934D02DA
:102480002436310514F00C9470080C9474081092E2
:102490004E0210924D0230CF10924E0210924D0219
:1024A00040CF10924E0210924D025BCF10924E021E
:1024B00010924D026BCF10924E0210924D0286CFB9
:1024C00010924E0210924D02A0CFE0914D02F09179
:1024D0004E02EE0FFF1FEB57FE4F81E080830E94FC
:1024E000550720914D0230914E02F901EE0FFF1F6A
:1024F000EB57FE4F81832F5F3F4F243631050CF0A1
:102500007AC030934E0220934D0280914D029091FB
:102510004E02FC01EE0FFF1FEB57FE4F108227E02B
:1025200021830196843691050CF06AC090934E0287
:1025300080934D02E0914D02F0914E02EE0FFF1F8D
:10254000EB57FE4F81E080830E94630720914D028C
:1025500030914E02F901EE0FFF1FEB57FE4F8183C2
:102560002F5F3F4F243631050CF04FC030934E02A1
:1025700020934D0280914D0290914E02FC01EE0F8E
:10258000FF1FEB57FE4F108227E021830196843610
:1025900091050CF0A5C390934E0280934D02E091FB
:1025A0004D02F0914E02EE0FFF1FEB57FE4F81E000
:1025B00080830E94550720914D0230914E02F9010F
:1025C000EE0FFF1FEB57FE4F81832F5F3F4F2436E7
:1025D00031050CF052C430934E0220934D0280918D
:1025E0004D0290914E02FC01EE0FFF1FEB57FE4F84
:1025F000108228E035CA10924E0210924D0285CF0B
:1026000010924E0210924D0295CF10924E021092EF
:102610004D02B0CFE0914D02F0914E02EE0FFF1F40
:10262000EB57FE4F81E080830E94550720914D02B9
:1026300030914E02F901EE0FFF1FEB57FE4F8183E1
:102640002F5F3F4F243631050CF07AC030934E0295
:1026500020934D0280914D0290914E02FC01EE0FAD
:10266000FF1FEB57FE4F108227E02183019684362F
:1026700091050CF06AC090934E0280934D02E09158
:102680004D02F0914E02EE0FFF1FEB57FE4F81E01F
:1026900080830E94550720914D0230914E02F9012E
:1026A000EE0FFF1FEB57FE4F81832F5F3F4F243606
:1026B00031050CF04FC030934E0220934D028091B3
:1026C0004D0290914E02FC01EE0FFF1FEB57FE4FA3
:1026D000108227E021830196843691050CF067C5AE
:1026E00090934E0280934D02E0914D02F0914E0284
:1026F000EE0FFF1FEB57FE4F81E080830E946307C0
:1027000020914D0230914E02F901EE0FFF1FEB5761
:10271000FE4F81832F5F3F4F243631050CF014C6E6
:1027200030934E0220934D0280914D0290914E02C3
:10273000FC01EE0FFF1FEB57FE4F108228E0AAC8E6
:1027400010924E0210924D0285CF10924E021092BE
:102750004D0295CF10924E0210924D02B0CF809153
:102760004D0290914E02FC01EE0FFF1FEB57FE4F02
:1027700021E0208329E021830196843691050CF025
:10278000C4C090934E0280934D02E0914D02F091AF
:102790004E02EE0FFF1FEB57FE4F10820E946307A1
:1027A00020914D0230914E02F901EE0FFF1FEB57C1
:1027B000FE4F81832F5F3F4F243631050CF0AAC0B6
:1027C00030934E0220934D0280914D0290914E0223
:1027D000FC01EE0FFF1FEB57FE4F21E0208323E2A9
:1027E00021830196843691050CF099C090934E0296
:1027F00080934D0280914D0290914E02FC01EE0FAC
:10280000FF1FEB57FE4F108227E02183019684368D
:1028100091050CF089C090934E0280934D028091F7
:102820004D0290914E02FC01EE0FFF1FEB57FE4F41
:1028300021E0208323E221830196843691050CF068
:1028400078C090934E0280934D02E0914D02F0913A
:102850004E02EE0FFF1FEB57FE4F10820E946307E0
:1028600020914D0230914E02F901EE0FFF1FEB5700
:10287000FE4F81832F5F3F4F243631050CF05EC041
:1028800030934E0220934D02E0914D02F0914E02A2
:10289000EE0FFF1FEB57FE4F81E080830E9455072C
:1028A00020914D0230914E02F901EE0FFF1FEB57C0
:1028B000FE4F81832F5F3F4F243631050CF043C01C
:1028C00030934E0220934D0280914D0290914E0222
:1028D000FC01EE0FFF1FEB57FE4F108228E0218313
:1028E000019684369105A4F590934E0280934D0293
:1028F00080914D0290914E02FC01EE0FFF1FEB57AD
:10290000FE4F21E020832DE2B6CC10924E021092B1
:102910004D023BCF10924E0210924D0255CF1092B5
:102920004E0210924D0266CF10924E0210924D024E
:1029300076CF10924E0210924D0287CF10924E0227
:1029400010924D02A1CF10924E0210924D02BCCFB8
:1029500010924E0210924D02CBCF80914D02909179
:102960004E02FC01EE0FFF1FEB57FE4F21E02083CC
:1029700029E021830196843691050CF0D7C090930D
:102980004E0280934D0280914D0290914E02FC01C7
:10299000EE0FFF1FEB57FE4F108229E021830196B7
:1029A000843691050CF0C7C090934E0280934D027F
:1029B000E0914D02F0914E02EE0FFF1FEB57FE4FDC
:1029C00081E080830E94630720914D0230914E0286
:1029D000F901EE0FFF1FEB57FE4F81832F5F3F4F33
:1029E000243631050CF0ACC030934E0220934D02DA
:1029F00080914D0290914E02FC01EE0FFF1FEB57AC
:102A0000FE4F108229E021830196843691050CF057
:102A10009CC090934E0280934D02E0914D02F09144
:102A20004E02EE0FFF1FEB57FE4F81E080830E94A6
:102A3000550720914D0230914E02F901EE0FFF1F14
:102A4000EB57FE4F81832F5F3F4F243631050CF04B
:102A500081C030934E0220934D0280914D0290919F
:102A60004E02FC01EE0FFF1FEB57FE4F108228E0D5
:102A700021830196843691050CF071C090934E022B
:102A800080934D02E0914D02F0914E02EE0FFF1F38
:102A9000EB57FE4F81E080830E94550720914D0245
:102AA00030914E02F901EE0FFF1FEB57FE4F81836D
:102AB0002F5F3F4F243631050CF056C030934E0245
:102AC00020934D02E0914D02F0914E02EE0FFF1F58
:102AD000EB57FE4F10820E94630720914D02309108
:102AE0004E02F901EE0FFF1FEB57FE4F81832F5F60
:102AF0003F4F24363105ECF530934E0220934D02C2
:102B000080914D0290914E02FC01EE0FFF1FEB579A
:102B1000FE4F21E020832DE221830196843691052A
:102B20006CF590934E0280934D028FCC10924E0222
:102B300010924D0228CF10924E0210924D0238CFC3
:102B400010924E0210924D0253CF10924E021092EC
:102B50004D0263CF10924E0210924D027ECF109222
:102B60004E0210924D028ECF10924E0210924D02E4
:102B7000A9CF10924E0210924D02C2CF10924E0277
:102B800010924D0262CCE0914D02F0914E02EE0F98
:102B9000FF1FEB57FE4F81E080830E946307209167
:102BA0004D0230914E02F901EE0FFF1FEB57FE4F21
:102BB00081832F5F3F4F243631050CF078C030936E
:102BC0004E0220934D0280914D0290914E02FC01E5
:102BD000EE0FFF1FEB57FE4F108227E02183019677
:102BE000843691050CF068C090934E0280934D029C
:102BF000E0914D02F0914E02EE0FFF1FEB57FE4F9A
:102C000081E080830E94630720914D0230914E0243
:102C1000F901EE0FFF1FEB57FE4F81832F5F3F4FF0
:102C2000243631050CF04DC030934E0220934D02F6
:102C300080914D0290914E02FC01EE0FFF1FEB5769
:102C4000FE4F108227E02183019684369105F4F52A
:102C500090934E0280934D02E0914D02F0914E020E
:102C6000EE0FFF1FEB57FE4F81E080830E9463074A
:102C700020914D0230914E02F901EE0FFF1FEB57EC
:102C8000FE4F81832F5F3F4F2436310524F530936B
:102C90004E0220934D0280914D0290914E02FC0114
:102CA000EE0FFF1FEB57FE4F108228E06ECC109204
:102CB0004E0210924D0287CF10924E0210924D029A
:102CC00097CF10924E0210924D02B2CF10924E0248
:102CD00010924D02C1CF10924E0210924D02DBCFE6
:102CE00010924E0210924D025ACCE0914D02F0919A
:102CF0004E02EE0FFF1FEB57FE4F81E080830E94D4
:102D0000630720914D0230914E02F901EE0FFF1F33
:102D1000EB57FE4F81832F5F3F4F243631050CF078
:102D20008EC030934E0220934D0280914D029091BF
:102D30004E02FC01EE0FFF1FEB57FE4F108227E003
:102D400021830196843691050CF07EC090934E024B
:102D500080934D02E0914D02F0914E02EE0FFF1F65
:102D6000EB57FE4F81E080830E94630720914D0264
:102D700030914E02F901EE0FFF1FEB57FE4F81839A
:102D80002F5F3F4F243631050CF063C030934E0265
:102D900020934D0280914D0290914E02FC01EE0F66
:102DA000FF1FEB57FE4F108227E0218301968436E8
:102DB00091050CF053C090934E0280934D02E09128
:102DC0004D02F0914E02EE0FFF1FEB57FE4F81E0D8
:102DD00080830E94630720914D0230914E02F901D9
:102DE000EE0FFF1FEB57FE4F81832F5F3F4F2436BF
:102DF0003105CCF530934E0220934D0280914D0267
:102E000090914E02FC01EE0FFF1FEB57FE4F108218
:102E100028E0218301968436910554F590934E0263
:102E200080934D02E0914D02F0914E02EE0FFF1F94
:102E3000EB57FE4F81E080830E946307BCCB10926A
:102E40004E0210924D0271CF10924E0210924D021E
:102E500081CF10924E0210924D029CCF10924E02E2
:102E600010924D02ACCF10924E0210924D02C6CF7E
:102E700010924E0210924D02D5CF10924E02109237
:102E80004D02ADCB10924E0210924D020C943B0DB0
:102E9000E0914D02F0914E02EE0FFF1FEB57FE4FF7
:102EA00081E080830E94630720914D0230914E02A1
:102EB000F901EE0FFF1FEB57FE4F81832F5F3F4F4E
:102EC000243631050CF087C030934E0220934D021A
:102ED00080914D0290914E02FC01EE0FFF1FEB57C7
:102EE000FE4F108227E021830196843691050CF075
:102EF00077C090934E0280934D02E0914D02F09185
:102F00004E02EE0FFF1FEB57FE4F81E080830E94C1
:102F1000630720914D0230914E02F901EE0FFF1F21
:102F2000EB57FE4F81832F5F3F4F243631050CF066
:102F3000A6C030934E0220934D0280914D02909195
:102F40004E02FC01EE0FFF1FEB57FE4F108227E0F1
:102F500021830196843691050CF096C090934E0221
:102F600080934D02E0914D02F0914E02EE0FFF1F53
:102F7000EB57FE4F81E080830E94630720914D0252
:102F800030914E02F901EE0FFF1FEB57FE4F818388
:102F90002F5F3F4F243631050CF004C130934E02B1
:102FA00020934D0280914D0290914E02FC01EE0F54
:102FB000FF1FEB57FE4F108228E08CCBE0914D02B3
:102FC000F0914E02EE0FFF1FEB57FE4F81E0808322
:102FD0000E94550769CF10924E0210924D0278CF91
:102FE00010924E0210924D0288CFE0914D02F09166
:102FF0004E02EE0FFF1FEB57FE4F81E080830E94D1
:10300000550720914D0230914E02F901EE0FFF1F3E
:10301000EB57FE4F81832F5F3F4F243631052CF550
:1030200030934E0220934D0280914D0290914E02BA
:10303000FC01EE0FFF1FEB57FE4F108227E02183AC
:10304000019684369105B4F490934E0280934D021C
:10305000E0914D02F0914E02EE0FFF1FEB57FE4F35
:1030600081E080830E94550754CF10924E02109247
:103070004D02DACF10924E0210924D02E9CF10921B
:103080004E0210924D0259CF10924E0210924D02F4
:1030900069CFE0914D02F0914E02EE0FFF1FEB570A
:1030A000FE4F81E080830E94550720914D023091B0
:1030B0004E02F901EE0FFF1FEB57FE4F81832F5F8A
:1030C0003F4F243631050CF059C030934E02209307
:1030D0004D0280914D0290914E02FC01EE0FFF1FB8
:1030E000EB57FE4F108227E021830196843691052D
:1030F0000CF049C090934E0280934D02E0914D0236
:10310000F0914E02EE0FFF1FEB57FE4F81E08083E0
:103110000E94550720914D0230914E02F901EE0FA9
:10312000FF1FEB57FE4F81832F5F3F4F2436310542
:103130007CF530934E0220934D0280914D02909188
:103140004E02FC01EE0FFF1FEB57FE4F108227E0EF
:10315000218301968436910504F590934E02809365
:103160004D02E0914D02F0914E02EE0FFF1FEB5722
:10317000FE4F81E080830E94550700CF10924E02DF
:1031800010924D02A6CF10924E0210924D02B6CF71
:1031900010924E0210924D02D0CF10924E02109219
:1031A0004D02DFCF10924E0210924D02FBCE1092D4
:1031B0004E0210924D0298CAE0914D02F0914E02DB
:1031C000EE0FFF1FEB57FE4F81E080830E945507F3
:1031D00020914D0230914E02F901EE0FFF1FEB5787
:1031E000FE4F81832F5F3F4F243631050CF08EC098
:1031F00030934E0220934D0280914D0290914E02E9
:10320000FC01EE0FFF1FEB57FE4F108227E02183DA
:103210000196843691050CF07EC090934E02809307
:103220004D02E0914D02F0914E02EE0FFF1FEB5761
:10323000FE4F81E080830E94550720914D0230911E
:103240004E02F901EE0FFF1FEB57FE4F81832F5FF8
:103250003F4F243631050CF063C030934E0220936B
:103260004D0280914D0290914E02FC01EE0FFF1F26
:10327000EB57FE4F108227E021830196843691059B
:103280000CF053C090934E0280934D02E0914D029A
:10329000F0914E02EE0FFF1FEB57FE4F81E080834F
:1032A0000E94550720914D0230914E02F901EE0F18
:1032B000FF1FEB57FE4F81832F5F3F4F24363105B1
:1032C000CCF530934E0220934D0280914D029091A7
:1032D0004E02FC01EE0FFF1FEB57FE4F108228E05D
:1032E000218301968436910554F590934E02809384
:1032F0004D02E0914D02F0914E02EE0FFF1FEB5791
:10330000FE4F81E080830E945507FAC910924E0259
:1033100010924D0271CF10924E0210924D0281CF49
:1033200010924E0210924D029CCF10924E021092BB
:103330004D02ACCF10924E0210924D02C6CF1092A9
:103340004E0210924D02D5CF10924E0210924D02B5
:10335000EBC910924E0210924D020C94F00910929B
:103360004E0210924D020C9446110E945425E09199
:103370004D02F0914E02EE0FFF1FEB57FE4F81E022
:1033800080830E94550720914D0230914E02F90131
:10339000EE0FFF1FEB57FE4F81832F5F3F4F243609
:1033A00031050CF002C130934E0220934D02E091A2
:1033B0004D02F0914E02EE0FFF1FEB57FE4F1082B1
:1033C0000E94710720914D0230914E02F901EE0FDB
:1033D000FF1FEB57FE4F81832F5F3F4F2436310590
:1033E0000CF0E8C030934E0220934D02E0914D0264
:1033F000F0914E02EE0FFF1FEB57FE4F81E08083EE
:103400000E94550720914D0230914E02F901EE0FB6
:10341000FF1FEB57FE4F81832F5F3F4F243631054F
:103420000CF0CDC030934E0220934D02E0914D023E
:10343000F0914E02EE0FFF1FEB57FE4F10820E94DD
:10344000710720914D0230914E02F901EE0FFF1FDE
:10345000EB57FE4F81832F5F3F4F243631050CF031
:10346000B3C030934E0220934D02E0914D02F09193
:103470004E02EE0FFF1FEB57FE4F81E080830E944C
:10348000550720914D0230914E02F901EE0FFF1FBA
:10349000EB57FE4F81832F5F3F4F243631050CF0F1
:1034A00098C030934E0220934D02E0914D02F0916E
:1034B0004E02EE0FFF1FEB57FE4F10820E94710766
:1034C00020914D0230914E02F901EE0FFF1FEB5794
:1034D000FE4F81832F5F3F4F243631050CF07EC0B5
:1034E00030934E0220934D02E0914D02F0914E0236
:1034F000EE0FFF1FEB57FE4F81E080830E945507C0
:1035000020914D0230914E02F901EE0FFF1FEB5753
:10351000FE4F81832F5F3F4F243631050CF063C08F
:1035200030934E0220934D02E0914D02F0914E02F5
:10353000EE0FFF1FEB57FE4F10820E947107209184
:103540004D0230914E02F901EE0FFF1FEB57FE4F77
:1035500081832F5F3F4F243631050CF049C03093F3
:103560004E0220934D0280914D0290914E02FC013B
:10357000EE0FFF1FEB57FE4F21E020832DE221834A
:10358000019684369105CCF590934E0280934D02BE
:10359000E0914D02F0914E02EE0FFF1FEB57FE4FF0
:1035A00010820E9471070C94301210924E021092F9
:1035B0004D02FDCE10924E0210924D0217CF109286
:1035C0004E0210924D0232CF10924E0210924D02D6
:1035D0004CCF10924E0210924D0267CF10924E02C5
:1035E00010924D0281CF10924E0210924D029CCF4C
:1035F00010924E0210924D02B6CF10924E021092CF
:103600004D02C6CFEB3508F079C00E2E000CFF0B33
:10361000E45FF44E0C943328671BBC1B7E1B7E1B9F
:103620007E1B7E1BC11B7E1B7E1B7E1B7E1BA91B64
:10363000991BCA1B8C1BCD1BD01BD91BDC1BE11B90
:10364000E41BE71BEC1BEF1BF21BF51B7E1B7E1B19
:10365000B01BB51B7E1BA21B7E1B7E1B7E1B7E1B15
:103660007E1B7E1B7E1B7E1B7E1B7E1B7E1B7E1B92
:103670007E1B7E1B7E1B7E1B7E1B7E1B7E1B7E1B82
:103680007E1B7E1B7E1B7E1B7E1B7E1B7E1B7E1B72
:103690007E1B7E1B671B671B7E1B941BC31BAB1B08
:1036A000021CFD1BBE1BF91BE91BC71BDE1B921B6B
:1036B000001CD61BFB1BD41B051C081CAD1BC51B0B
:1036C000961BB91BB71B9F1B0B1C0E1CA61B8091C6
:1036D0004D0290914E02FC01EE0FFF1FEB57FE4F83
:1036E00010821182019690934E0280934D0284368F
:1036F000910524F010924E0210924D0280914D02DD
:1037000090914E02FC01EE0FFF1FEB57FE4F22E09F
:10371000208324E10C9480080E9421070E94ED067A
:103720000E9421070E94ED060E9421070E94ED06DB
:10373000E5CF0E94ED060E94ED060E9421070E943F
:10374000210734C00E9421070E9421070E94ED0634
:1037500059C00E9421070E94ED060E9421074BC01C
:103760000E9421070E942107DBCF0E94ED060E94E4
:1037700021070E942107D8CF0E9421070E9421071C
:10378000ECCF0E9421070E94ED060E9421070E94B3
:10379000210733C00E944806B1CF0E94ED06EECF4C
:1037A0000E94ED060E94ED060E94ED060E94ED06C5
:1037B000BDCF0E942107F6CF0E9421070E9421075A
:1037C000F3CF0E942107B9CF0E942107D0CF0E94DA
:1037D00021070E942107D9CF0E94ED06FACF0E944F
:1037E000ED06D1CF0E94ED06B1CF0E94ED060E94FA
:1037F000ED060E94ED060E94ED060E9421077ECF95
:103800000E9421070E94ED06C2CF0E942107F1CF3E
:103810000E94ED0687CF0E94ED06ABCF0E94ED0619
:103820008ECFCF92DF92EF92FF920F931F93CF93A1
:10383000DF93C0910501D0910601C230D10509F492
:103840008BC48091510190915201181619062CF4E5
:103850000197909352018093510180914F01909173
:103860005001181619062CF401979093500180937B
:103870004F0180916A0190916B01892B09F0C3C0BF
:1038800080917A0190917B01A0917C01B0917D01A2
:10389000813422E492072FE0A207B10558F4019683
:1038A000A11DB11D80937A0190937B01A0937C01AF
:1038B000B0937D0180915F01882309F4ADC08091B0
:1038C0005D0190915E01181619060CF026C1019752
:1038D00090935E0180935D01C0910501D091060136
:1038E000C230D10509F438C480915F01882309F4FE
:1038F000DDC180911D010E94C801019709F0D6C168
:1039000080915D0190915E01892B09F0CFC11092E9
:103910005F010E947D02609113017091140180EBA0
:1039200094E00E941F2820910B0130910C01629FAE
:10393000C001639F900D729F900D112490935C01C4
:1039400080935B0183E090E09093800180937F01FE
:1039500010925A0110925901C330D10509F44EC397
:1039600080911D0390911E03892B09F0E4C32197D8
:10397000A1F488E00E94C801892B09F0B4C38091AA
:103980001101909112018130910509F49CC30297B5
:1039900009F4A2C381E080936C01C0916801D091C9
:1039A0006901D0936701C0936601C0906401D09013
:1039B0006501D0926901C0926801E0906201F090C7
:1039C0006301F0926501E092640100916001109141
:1039D0006101109363010093620188E00E94C801B5
:1039E0009093610180936001CC0DDD1DCE0DDF1D34
:1039F000C00FD11F8C0F9D1F21E0892B09F020E003
:103A000020937E01FBC210927A0110927B011092EA
:103A10007C0110927D014ECF80917F0190918001B9
:103A20008230910509F4A7C0D4F4009739F10197C9
:103A300009F052CF80915D0190915E011816190630
:103A40002CF4019790935E0180935D0180915D015C
:103A500090915E01181619060CF45FC072C0833095
:103A6000910509F4D1C0049709F036CFC330D105D0
:103A700009F44DC01092800110927F01239709F440
:103A800051C020914D0230914E0280914F02909191
:103A900050022817390769F42091190330911A034D
:103AA00080911B0390911C032817390711F00E9485
:103AB0007F0720914D0230914E0280914F029091EC
:103AC00050022817390709F441C0809105019091EF
:103AD0000601039741F461E088E00E944B0260E038
:103AE00088E00E94F10180910F0190911001181659
:103AF00019062CF590935E0180935D0181E090E0C2
:103B00009093800180937F010E948605E5CE88E036
:103B10000E94C801892B09F0ADCFC0910501D09159
:103B20000601E2CE88E00E94C801892B09F0A9CFE6
:103B300084E090E09093800180937F01CDCE0E943D
:103B400086050E94AC0482E090E0F4CF80911D03D2
:103B500090911E03892B09F0BFCE80916C018130BA
:103B600009F4BACE60E082E00E94F10160E083E0F7
:103B70000E94F101B1CE80914D0190914E01181635
:103B800019062CF4019790934E0180934D0180917A
:103B90004D0190914E01181619060CF4BECF2091DC
:103BA0004D0230914E0280914F02909150022817A1
:103BB000390719F00E94AC048FCE10925A0110926E
:103BC00059012091190330911A0380911B039091A0
:103BD0001C032817390769F00E947F0720914F02C4
:103BE0003091500280914D0290914E022817390772
:103BF00009F7809153019091540190935C01809357
:103C00005B0183E090E096CF20914D0230914E020F
:103C100080914F02909150022817390709F091CFF7
:103C20002091190330911A0380911B0390911C037A
:103C30002817390779F00E947F0720914F023091B1
:103C4000500280914D0290914E022817390709F4D5
:103C500043CE77CF80915B0190915C0118161906D5
:103C60002CF4019790935C0180935B0180911D037C
:103C700090911E03892B09F050CF80915B019091A8
:103C80005C01181619060CF448CF239741F461E043
:103C900088E00E94F10162E088E00E944B020E94ED
:103CA00069051092800110927F0116CE80917F01EC
:103CB00090918001049709F44FCE80915901909121
:103CC0005A01892B81F4809158018823C1F10E9407
:103CD000210781E090E090935A018093590110925E
:103CE00058010E94010600911B0110911D01809155
:103CF000090190910A01039709F040C0802F0E94AA
:103D0000C801892B69F5812F0E94C801892B41F5D3
:103D10008091590190915A01892B09F01DCE809113
:103D2000550190915601019709F0E2C00E94ED06FD
:103D300082E090E090935A01809359010DCE8091DA
:103D40005701882381F20E94ED0682E090E0909373
:103D50005A0180935901109257010E94BA05C3CFAE
:103D6000802F0E94C801019749F4812F0E94C80149
:103D7000019721F41092560110925501802F0E9454
:103D8000C801892B09F044C080911F019091200146
:103D900090930101809300016091130170911401CF
:103DA00080EB94E00E941F2820910B0130910C01C0
:103DB000629FC001639F900D729F900D112490939C
:103DC00054018093530180911F0390912003009729
:103DD00009F493C0909314018093130180916A01B8
:103DE00090916B01892B51F40E94860580910F01FF
:103DF0009091100190935E0180935D018091590133
:103E000090915A01009709F47DC0029709F4A1C06E
:103E1000812F0E94C801892B09F09ECD80911F013E
:103E20009091200190930101809300016091130112
:103E30007091140180EB94E00E941F2820910B01E7
:103E400030910C01629FC001639F900D729F900D95
:103E50001124909354018093530180911F039091FA
:103E60002003009709F480C09093140180931301FC
:103E700080916A0190916B01892B51F40E94860513
:103E800080910F019091100190935E0180935D01EC
:103E90008091830190918401019709F06AC081E0CB
:103EA00080935F0180914F029091500290934E0257
:103EB00080934D0280911B0390911C0390931A03F1
:103EC000809319038091550190915601892B31F40B
:103ED00082E090E0909356018093550180916A01B1
:103EE00090916B01892B09F437CD0E948C0234CD5F
:103EF0000E94210781E090E01DCF809115019091F3
:103F0000160168CF80914F029091500290934E021B
:103F100080934D0280911B0390911C0390931A0390
:103F2000809319038091550190915601892B31F4AA
:103F300081E090E090935601809355010E94210703
:103F400081E090E090935A01809359010E9401060C
:103F50005FCF8091510190915201892B09F058CF88
:103F600081E08093580154CF809115019091160102
:103F70007BCF8091590190915A01009771F0019780
:103F800009F0EACC80914F0190915001892B09F002
:103F9000E3CC81E080935701DFCC80914F02909178
:103FA000500290934E0280934D0280911B0390919A
:103FB0001C0390931A0380931903809155019091EB
:103FC0005601892B31F482E090E090935601809362
:103FD00055010E94ED0682E090E090935A01809393
:103FE00059010E94BA05B8CC2197D0937201C093B1
:103FF000710160E083E0CD2B09F4C9C0DF91CF915E
:104000001F910F91FF90EF90DF90CF9008958091D6
:104010001B010E94C801892BF9F461E083E00E9432
:10402000F10160E08BE00E94F10180916E0181114D
:10403000A9C0809181019091820190937001809339
:104040006F011816190624F461E082E00E94F10164
:1040500081E080936E01D2CF80911D010E94C80142
:10406000892BF9F461E082E00E94F10161E08BE0CC
:104070000E94F10180916D0181110FC08091810139
:104080009091820190937201809371011816190624
:1040900024F461E083E00E94F10181E080936D01EE
:1040A000ADCFC02BD12BCD2B09F0A8CF60E082E0A3
:1040B0000E94F10160E083E00E94F10110926E0124
:1040C00010926D019BCF60E082E00E94F10161E0FF
:1040D00083E00E94F1015ECC60E083E00E94F10188
:1040E00061E082E0F6CF80916C01882351F08091ED
:1040F0006A0190916B01892B11F40E94690510925D
:104100006C0180916A0190916B01019709F045CC97
:104110008091070190910801892B09F03ECC0E9403
:1041200069053BCC60E082E00E94F10161E083E040
:104130000E94F10132CC80911101909112018130E5
:10414000910581F3029709F028CC60E083E00E949A
:10415000F10161E082E0ECCFC0917101D091720178
:104160001C161D060CF440CF00916F0110917001D8
:10417000101611060CF04BCF01501109109370016D
:1041800000936F01012B09F039CF60E082E0DF91ED
:10419000CF911F910F91FF90EF90DF90CF900C94F3
:1041A000F1011F920F920FB60F9211242F933F939C
:1041B0008F939F93AF93BF938091290390912A038C
:1041C000A0912B03B0912C033091280323E0230FFF
:1041D0002D3758F50196A11DB11D2093280380931A
:1041E000290390932A03A0932B03B0932C0380916F
:1041F000240390912503A0912603B09127030196F3
:10420000A11DB11D8093240390932503A093260341
:10421000B0932703BF91AF919F918F913F912F91C1
:104220000F900FBE0F901F90189526E8230F02964F
:10423000A11DB11DD2CF1F920F920FB60F92112464
:104240002F933F934F935F936F937F938F939F939E
:10425000AF93BF93EF93FF93809176019091770195
:10426000A0917801B0917901892B8A2B8B2BD1F108
:1042700090917501E0917301F0917401808189271B
:1042800080838091760190917701A0917801B0911F
:104290007901181619061A061B069CF480917601FE
:1042A00090917701A0917801B09179010197A109CE
:1042B000B1098093760190937701A0937801B09330
:1042C0007901FF91EF91BF91AF919F918F917F9174
:1042D0006F915F914F913F912F910F900FBE0F9073
:1042E0001F901895809102010E941F02EACF1F9231
:1042F0000F920FB60F9211242F933F934F935F931A
:104300006F937F938F939F93AF93BF93EF93FF939D
:104310008DE293E00E940B01FF91EF91BF91AF916D
:104320009F918F917F916F915F914F913F912F91CD
:104330000F900FBE0F901F9018951F920F920FB6FF
:104340000F9211242F938F939F93EF93FF93E091FC
:104350003D03F0913E038081E0914303F0914403DB
:1043600082FD1BC09081809146038F5F8F732091E7
:104370004703821741F0E0914603F0E0E35DFC4F14
:10438000958F80934603FF91EF919F918F912F918D
:104390000F900FBE0F901F9018958081F4CF1F9241
:1043A0000F920FB60F9211242F933F934F935F9369
:1043B0006F937F938F939F93AF93BF93EF93FF93ED
:1043C000E0910301F09104010995FF91EF91BF91F4
:1043D000AF919F918F917F916F915F914F913F919D
:1043E0002F910F900FBE0F901F901895789484B561
:1043F000826084BD84B5816084BD85B5826085BDE1
:1044000085B5816085BD80916E00816080936E006E
:104410001092810080918100826080938100809160
:104420008100816080938100809180008160809311
:1044300080008091B10084608093B1008091B000D1
:1044400081608093B00080917A00846080937A00CC
:1044500080917A00826080937A0080917A008160F6
:1044600080937A0080917A00806880937A0010921D
:10447000C10061E08DE00E944B0262E080911D016D
:104480000E944B0262E080911B010E944B0262E09D
:1044900088E00E944B0261E085E00E944B0261E0EF
:1044A00083E00E944B0261E084E00E944B0261E0E5
:1044B00082E00E944B0261E089E00E944B0261E0D1
:1044C0008AE00E944B0261E08BE00E944B0280E197
:1044D000809381001092800080E49FE19093870098
:1044E0008093860081E18093810081E19CE190933B
:1044F00004018093030181E080936F0080E4809346
:104500007C0080917A00806480937A0080917A00A8
:1045100086FDFCCF6091780070917900072E000C29
:10452000880B990B611571058105910511F00E94A9
:10453000A32510924E0210924D021092500210923A
:104540004F0210921A031092190310921C0310923A
:104550001B03E0913D03F0913E0382E08083E091F4
:104560003903F0913A031082E0913B03F0913C0350
:1045700087E6808310924503E0914103F091420366
:1045800086E08083E0913F03F09140038081806169
:104590008083E0913F03F0914003808188608083B5
:1045A000E0913F03F0914003808180688083E09137
:1045B0003F03F091400380818F7D8083109223031D
:1045C0009AEF492E512C612C712C24E3222E3AE0D3
:1045D000332E40E0842E40E0942E57ECA52EB12CD3
:1045E00006E010E0F8948DE293E00E94EB001816CC
:1045F00019060CF0D3C18DE293E00E94C900EC01D2
:1046000080912303882309F4E1C0EEEFE80FE8313D
:1046100008F031C00E2E000CFF0BEF5EFC4D0C9429
:10462000332829233E23482352236A237F238623CA
:104630008F23942399233B233B23BA23BF23C423F3
:104640003B233B233B23C923CE23D3233B233B23C1
:10465000D82361E0C0FF60E089E00E94F10161E0E1
:10466000C1FF60E08AE00E94F10161E0C2FF60E00A
:104670008BE00E94F10110922303B5CF3C9EC00154
:104680003D9E900D11249093220180932101F3CF40
:104690003C9EC0013D9E900D11249093200180937B
:1046A0001F01E9CFCD2B59F487E090E090931E01D4
:1046B00080931D0110931C0100931B01DCCF10930C
:1046C0001E0100931D0187E090E090931C018093F0
:1046D0001B01D1CFBE01DD0F880B990B0E9426274D
:1046E00020E030E048EC52E40E947C266093170101
:1046F000709318018093190190931A01BCCFC05890
:10470000D109D0932203C0932103B5CFD0931601D2
:10471000C0931501D0931401C0931301ACCFD09373
:104720002003C0931F03F6CFD0931E03C0931D0335
:10473000A2CF8091110190911201C817D90709F4F5
:104740009ACF80911B0390911C0390931A0380933E
:10475000190380914F029091500290934E028093E2
:104760004D020E947D020E946905D0931201C09300
:10477000110181CFD0931001C0930F017CCFD09352
:104780000E01C0930D0177CFD0930C01C0930B01A4
:1047900072CFD0930A01C09309016DCFD0938401E9
:1047A000C093830168CFD0930801C093070163CF02
:1047B000CE01837099279093060180930501CC7FE9
:1047C000DD27D0938201C093810155CFC032D1053E
:1047D000F4F08091190390911A03FC01EF5AFD4FF8
:1047E000C0830196883C91056CF490931A038093E2
:1047F00019038091150190911601909314018093F3
:104800001301F1CE10921A0310921903F2CFCC319A
:10481000D10508F0C0C0FE01E05FFB4D0C943328C9
:104820002C243E24CB24CB24CB24CB24CB24CB243C
:10483000CB24CB24CB24CB244D246024CB24CB24E9
:10484000CB2478247D249224CB24CB24CB24CB24CA
:10485000CB24CB249B24B4248091190390911A0378
:10486000FC01EF5AFD4F20820196883C91050CF423
:104870005DC010921A0310921903B5CE47E050E0C4
:1048800069E371E08DE293E00E948D0081E090E0A9
:104890009093060180930501A6CE80917F019091AF
:1048A0008001009729F490E080E00E947A019BCE7D
:1048B000039719F481E090E0F8CF82E090E0F5CF23
:1048C00020911B0330911C034091190350911A034E
:1048D0004217530749F08F5F2F5F3F4F283C310548
:1048E000BCF330E020E0F4CF082E000C990BDDCFB4
:1048F00080917E018111DECFD6CF80911B039091F4
:104900001C0390931A038093190380914F02909196
:10491000500290934E0280934D020E947D020E94AD
:10492000690561CE80911B0390911C0390931A033B
:104930008093190358CE8091190390911A03209106
:104940001B0330911C038217930709F4ACCF019726
:1049500097FD05C090931A0380931903ABCFB092D3
:104960001A03A0921903A6CF60917A0170917B017E
:1049700080917C0190917D01A30192010E94DE252E
:104980006901822F220F990B0E947A018D2D9927A0
:1049900087FD9A958ACFC093230325CE78948114FE
:1049A000910409F41FCE0E94F700882309F41ACE5F
:1049B0000E94000017CEEDE2F3E01382128288EE2F
:1049C00093E0A0E0B0E084839583A683B7838BE275
:1049D00091E09183808385EC90E09587848784ECD7
:1049E00090E09787868780EC90E0918B808B81ECBC
:1049F00090E0938B828B82EC90E0958B848B86EC9D
:104A000090E0978B868B118E128E138E148E0895E4
:104A10008F929F92AF92BF92CF92DF92EF92FF92CE
:104A2000CF93DF93EC01688179818A819B81611545
:104A300071058105910521F464E279ED8BE597E03C
:104A40002DE133EF41E050E00E94AC2549015A01CD
:104A50009B01AC01A7EAB1E40E94CB256B017C016C
:104A6000ACEEB4EFA50194010E94D925C60ED71E65
:104A7000E81EF91EF7FE06C081E0C81AD108E10859
:104A800080E8F80AC882D982EA82FB82C701B601AF
:104A90009F77DF91CF91FF90EF90DF90CF90BF9005
:104AA000AF909F908F9008958F929F92AF92BF92F8
:104AB000CF92DF92EF92FF926091230170912401D7
:104AC000809125019091260161157105810591055F
:104AD00021F464E279ED8BE597E02DE133EF41E0DD
:104AE00050E00E94AC2549015A019B01AC01A7EAA4
:104AF000B1E40E94CB256B017C01ACEEB4EFA501C3
:104B000094010E94D925C60ED71EE81EF91EF7FE95
:104B100006C081E0C81AD108E10880E8F80AC0920E
:104B20002301D0922401E0922501F0922601C701D1
:104B3000B6019F77FF90EF90DF90CF90BF90AF903E
:104B40009F908F9008956093230170932401809328
:104B50002501909326010895052E97FB1EF40094DD
:104B60000E94C32557FD07D00E94DE2507FC03D015
:104B70004EF40C94C32550954095309521953F4FA8
:104B80004F4F5F4F089590958095709561957F4F39
:104B90008F4F9F4F08950E940026A59F900DB49FB0
:104BA000900DA49F800D911D11240895B7FF0C94C2
:104BB000CB250E94CB25821B930B0895A1E21A2ED0
:104BC000AA1BBB1BFD010DC0AA1FBB1FEE1FFF1FB1
:104BD000A217B307E407F50720F0A21BB30BE40B01
:104BE000F50B661F771F881F991F1A9469F7609548
:104BF0007095809590959B01AC01BD01CF01089502
:104C0000A29FB001B39FC001A39F700D811D11240D
:104C1000911DB29F700D811D1124911D0895505852
:104C2000BB27AA270E9427260C9478270E946A2770
:104C300038F00E94712720F039F49F3F19F426F4D0
:104C40000C9467270EF4E095E7FB0C946127E92F9D
:104C50000E94892758F3BA176207730784079507DC
:104C600020F079F4A6F50C94AB270EF4E0950B2E0A
:104C7000BA2FA02D0B01B90190010C01CA01A001AE
:104C80001124FF27591B99F0593F50F4503E68F109
:104C90001A16F040A22F232F342F4427585FF3CF4A
:104CA000469537952795A795F0405395C9F77EF41B
:104CB0001F16BA0B620B730B840BBAF09150A1F064
:104CC000FF0FBB1F661F771F881FC2F70EC0BA0FEA
:104CD000621F731F841F48F4879577956795B79572
:104CE000F7959E3F08F0B0CF9395880F08F099276D
:104CF000EE0F9795879508950E9490260C9478273B
:104D00000E94712758F00E946A2740F029F45F3F03
:104D100029F00C94612751110C94AC270C9467274F
:104D20000E94892768F39923B1F3552391F3951BCA
:104D3000550BBB27AA2762177307840738F09F5FBC
:104D40005F4F220F331F441FAA1FA9F335D00E2E29
:104D50003AF0E0E832D091505040E695001CCAF796
:104D60002BD0FE2F29D0660F771F881FBB1F261759
:104D700037074807AB07B0E809F0BB0B802DBF0130
:104D8000FF2793585F4F3AF09E3F510578F00C94FF
:104D900061270C94AC275F3FE4F3983ED4F38695EB
:104DA00077956795B795F7959F5FC9F7880F911D20
:104DB0009695879597F90895E1E0660F771F881F0C
:104DC000BB1F621773078407BA0720F0621B730BBF
:104DD000840BBA0BEE1F88F7E09508950E94F52624
:104DE0006894B1110C94AC2708950E94912788F023
:104DF0009F5798F0B92F9927B751B0F0E1F0660F9F
:104E0000771F881F991F1AF0BA95C9F714C0B130DF
:104E100091F00E94AB27B1E008950C94AB27672F67
:104E2000782F8827B85F39F0B93FCCF3869577950E
:104E30006795B395D9F73EF49095809570956195F7
:104E40007F4F8F4F9F4F0895E89409C097FB3EF422
:104E500090958095709561957F4F8F4F9F4F9923C7
:104E6000A9F0F92F96E9BB279395F6958795779545
:104E70006795B795F111F8CFFAF4BB0F11F460FF05
:104E80001BC06F5F7F4F8F4F9F4F16C0882311F05D
:104E900096E911C0772321F09EE8872F762F05C071
:104EA000662371F096E8862F70E060E02AF09A950C
:104EB000660F771F881FDAF7880F9695879597F901
:104EC000089597F99F6780E870E060E008959FEF8C
:104ED00080EC089500240A94161617061806090691
:104EE000089500240A941216130614060506089560
:104EF000092E0394000C11F4882352F0BB0F40F4E8
:104F0000BF2B11F460FF04C06F5F7F4F8F4F9F4F27
:104F1000089557FD9058440F551F59F05F3F71F0A9
:104F20004795880F97FB991F61F09F3F79F0879510
:104F30000895121613061406551FF2CF4695F1DF99
:104F400008C0161617061806991FF1CF8695710529
:104F5000610508940895E894BB2766277727CB015D
:104F600097F908950E94C5270C9478270E946A2714
:104F700038F00E94712720F0952311F00C946127DE
:104F80000C94672711240C94AC270E94892770F396
:104F9000959FC1F3950F50E0551F629FF001729FDE
:104FA000BB27F00DB11D639FAA27F00DB11DAA1FED
:104FB000649F6627B00DA11D661F829F2227B00D3A
:104FC000A11D621F739FB00DA11D621F839FA00DC5
:104FD000611D221F749F3327A00D611D231F849F15
:104FE000600D211D822F762F6A2F11249F5750406C
:104FF0009AF0F1F088234AF0EE0FFF1FBB1F661FE7
:10500000771F881F91505040A9F79E3F510580F0AF
:105010000C9461270C94AC275F3FE4F3983ED4F3E3
:10502000869577956795B795F795E7959F5FC1F753
:10503000FE2B880F911D9695879597F9089597FBFC
:10504000072E16F4009407D077FD09D00E94392866
:1050500007FC05D03EF4909581959F4F089570957B
:1050600061957F4F0895EE0FFF1F0590F491E02D9D
:105070000994AA1BBB1B51E107C0AA1FBB1FA6179F
:10508000B70710F0A61BB70B881F991F5A95A9F7F1
:0E50900080959095BC01CD010895F894FFCF56
:10509E00F401FF7C020100010002000A0005000578
:1050AE000001001E001E006666863F06000700BC5B
:1050BE0002F40101000000000000002D018D00BA75
:1050CE00007F01EB00C900DD0054524357205636D5
:0250DE000000D0
:00000001FF
