:020000040000FA
:100000000C9463000C948B000C948B000C948B006C
:100010000C948B000C948B000C948B000C94560C5D
:100020000C948B000C948B000C948B000C948B0024
:100030000C948B000C940A0D0C948B000C948B0088
:100040000C940C0C0C948B000C94D80C0C94B20CEB
:100050000C948B000C948B000C948B000C948B00F4
:100060000C948B000C948B000000000024002700EF
:100070002A0000000000250028002B0000000000DE
:1000800023002600290004040404040404040202DA
:100090000202020203030303030301020408102007
:1000A0004080010204081020010204081020000012
:1000B0000008000201000003040700000000000027
:1000C00000000200EE0F11241FBECFEFD8E0DEBF0C
:1000D000CDBF11E0A0E0B1E0E4ECF6E202C0059093
:1000E0000D92A034B107D9F723E0A0E4B1E001C03C
:1000F0001D92A63BB207E1F710E0C3E6D0E004C0D2
:100100002197FE010E944613C236D107C9F70E940B
:10011000310D0C9460130C940000AF92BF92CF92FB
:10012000DF92EF92FF920F931F93CF93DF936C01B7
:100130007B018B01040F151FEB015E01AE18BF0898
:10014000C017D10759F06991D601ED91FC9101904A
:10015000F081E02DC6010995892B79F7C501DF9162
:10016000CF911F910F91FF90EF90DF90CF90BF90B4
:10017000AF900895FC01538D448D252F30E0842FDE
:1001800090E0821B930B541710F0CF9608950197BF
:100190000895FC01918D828D981761F0A28DAE0FAC
:1001A000BF2FB11D5D968C91928D9F5F9F73928F33
:1001B00090E008958FEF9FEF0895FC01918D828D5F
:1001C000981731F0828DE80FF11D858D90E008952C
:1001D0008FEF9FEF0895FC01918D228D892F90E084
:1001E000805C9F4F821B91098F739927089589E145
:1001F00093E00E94EB0021E0892B09F420E0822F9C
:10020000089580E090E0892B29F00E94F700811189
:100210000C9400000895FC01A48DA80FB92FB11D06
:10022000A35ABF4F2C91848D90E001968F7399272C
:10023000848FA689B7892C93A089B1898C9183700A
:1002400080648C93938D848D981306C00288F38903
:10025000E02D80818F7D80830895EF92FF920F9330
:100260001F93CF93DF93EC0181E0888F9B8D8C8D62
:1002700098131AC0E889F989808185FF15C09FB756
:10028000F894EE89FF896083E889F9898081837019
:10029000806480839FBF81E090E0DF91CF911F91C8
:1002A0000F91FF90EF900895F62E0B8D10E00F5FE9
:1002B0001F4F0F731127E02E8C8D8E110CC00FB6BF
:1002C00007FCFACFE889F989808185FFF5CFCE0157
:1002D0000E940B01F1CFEB8DEC0FFD2FF11DE35AC6
:1002E000FF4FF0829FB7F8940B8FEA89FB898081DA
:1002F0008062CFCF682F89E193E00C942D01CF93DA
:10030000DF93EC01888D8823B9F0AA89BB89E8893D
:10031000F9898C9185FD03C0808186FD0DC00FB6E3
:1003200007FCF7CF8C9185FFF2CF808185FFEDCF61
:10033000CE010E940B01E9CFDF91CF910895833068
:1003400081F028F4813099F08230A9F00895873047
:10035000A9F08830C9F08430B1F4809180008F7D9D
:1003600003C0809180008F7780938000089584B5CA
:100370008F7784BD089584B58F7DFBCF8091B000C9
:100380008F778093B00008958091B0008F7DF9CF72
:10039000CF93DF93282F30E0F901E255FF4F84918E
:1003A000F901E656FF4FD491F901EA57FF4FC49186
:1003B000CC23A1F081110E949F01EC2FF0E0EE0F01
:1003C000FF1FE458FF4FA591B491EC91ED2381E01C
:1003D00090E009F480E0DF91CF91089580E090E013
:1003E000FACF1F93CF93DF93282F30E0F901E25526
:1003F000FF4F8491F901E656FF4FD491F901EA5776
:10040000FF4FC491CC23A9F0162F81110E949F01A8
:10041000EC2FF0E0EE0FFF1FEE58FF4FA591B491C7
:100420008FB7F894EC91111108C0D095DE23DC93BE
:100430008FBFDF91CF911F910895DE2BF8CF909160
:10044000020189130BC0E2ECF0E0E4919FEF90937E
:100450000201E13049F028F0E23061F060E00C94F4
:10046000F10110926E00FACF90916F009D7F9093F2
:100470006F00F4CF909170009D7F9093700091E099
:100480009093B0009091B100987F94609093B100E8
:100490001092B300E3CFCF93DF9390E0FC01E656D8
:1004A000FF4F24918A579F4FFC0184918823D1F0FC
:1004B00090E0880F991FFC01E859FF4FA591B49176
:1004C000FC01EE58FF4FC591D491623071F49FB793
:1004D000F8943C91822F809583238C93E8812E2B76
:1004E00028839FBFDF91CF9108958FB7F894EC9147
:1004F0002E2B2C938FBFF6CF60E08DE00E94F10190
:100500008CE00E941F0260E085E00E94F10160E043
:1005100084E00C94F1018F929F92AF92BF92CF92A0
:10052000DF92EF92FF92CF93DF93C0913B02D09185
:100530003C028091390290913A028C179D0709F490
:1005400085C06091110170911201072E000C880B7B
:10055000990B0E9439129B01AC0160E070E080EFC2
:1005600092E40E948F116B017C01CC0FDD1FCF58EC
:10057000DE4F698170E090E080E00E9439129B01BB
:10058000AC01C701B6010E94C5120E9401126B01A5
:1005900070934E0160934D01888180FF2AC261E013
:1005A0008DE00E94F101C0900001D09001011C1467
:1005B0001D0444F4809102018C3009F452C08F3F35
:1005C00009F4B7C080910F0190911001813091051D
:1005D00009F4FFC1029709F405C260914D017091C1
:1005E0004E01072E000C880B990B0E9439122091A6
:1005F00015013091160140911701509118010E9488
:10060000C5126B017C0160910D0370910E03072EE2
:10061000000C880B990B0E9439129B01AC01C70199
:10062000B6010E9423110E94011270934E01609343
:100630004D0180913B0290913C02019684369105D8
:100640000CF008C290933C0280933B02DF91CF9163
:10065000FF90EF90DF90CF90BF90AF909F908F90E2
:100660000895E2ECF0E0C491C7FDACCF61E08CE00E
:100670000E944B02CC2319F0C23009F055C10D2C59
:10068000000CEE08FF0860E072E18AE790E0A70145
:1006900096010E94BF1049015A01DA01C901019770
:1006A000A109B1098F3F9105A105B10509F00CF42D
:1006B0001FC160E472E48FE090E0A70196010E9400
:1006C000BF102150310941095109C23009F0A0C0C1
:1006D00082E02F3F31054105510509F00CF4D9C0E6
:1006E00060E970ED83E090E0A70196010E94BF10E1
:1006F000215031094109510983E02F3F310541055E
:10070000510509F00CF4C5C068E478EE81E090E092
:10071000A70196010E94BF102150310941095109DA
:100720002F3F31054105510511F00CF0C1C084E0A7
:10073000B0C08CE080930201E2ECF0E0C491CF3FC6
:1007400009F440CFC13021F150F0C23009F43EC06D
:10075000C7FD38CF61E08CE00E944B028DCF14BC06
:1007600015BC84B5826084BD85B5816085BDE2E934
:10077000F0E0E491F0E0EE0FFF1FEE58FF4F85919F
:100780009491E6EAF0E0E491E0934201C0E06ECF9C
:100790001092800010928100809181008860809387
:1007A000810080918100816080938100E2E9F0E026
:1007B000E491F0E0EE0FFF1FEE58FF4F859194910A
:1007C000E6EAF0E0E491E093410150CF1092B000EE
:1007D0001092B1008091B00082608093B00080914F
:1007E000B10081608093B100E2E9F0E0E491F0E0D3
:1007F000EE0FFF1FEE58FF4F859194919093620189
:1008000080936101E6EAF0E0E491E09363012ECF8A
:100810002F3F31054105510509F00CF483C068E410
:1008200078EE81E090E0A70196010E94BF10215070
:10083000310941095109CC2309F428C12F3F310561
:100840004105510509F00CF472CF62E17AE780E0CE
:1008500090E0A70196010E94BF1021503109410983
:100860005109CC2309F4FBC086E02F3F3105410537
:10087000510579F070F08AE0B594A7949794879425
:100880008A95D1F7A50194012150310941095109F7
:1008900087E09091B100987F892B8093B100C1309F
:1008A00009F46FC0C23009F481C0C1118BCE28C0D9
:1008B00064E274EF80E090E0A70196010E94BF100F
:1008C000215031094109510985E02F3F310541058A
:1008D0005105F9F2F4F262E17AE780E090E0A701D5
:1008E00096010E94BF102150310941095109BCCF26
:1008F0009C0181E0C111CDCF95B5987F892B85BD35
:1009000027BD8FEF9FEFDC01809347019093480153
:10091000A0934901B0934A0180916E008260809358
:100920006E0050CE82E0E6CF0D2C000CEE08FF08E2
:1009300060E072E18AE790E0A70196010E94BF1093
:10094000215031094109510991E02115310581E01A
:10095000480751056CF068E478EE81E090E0A7016B
:1009600096010E94BF10215031094109510993E0BD
:10097000C13009F094CF80918100887F892B8093CA
:10098000810030938900209388008FEF9FEFDC0176
:100990008093430190934401A0934501B093460195
:1009A00080916F00826080936F000CCE2093B30023
:1009B0008FEF9FEFDC018093640190936501A0931A
:1009C0006601B0936701809170008260809370002F
:1009D000F9CD60E084E00E94F10161E085E00E94D1
:1009E000F101FBCD60E085E00E94F10161E084E06F
:1009F000F6CF0E947C0220911501309116014091A2
:100A000017015091180160E070E080E89FE30E94B8
:100A10008F114B015C01B601DD0C880B990B0E9414
:100A200039129B01AC01C501B4010E94C5126B01D2
:100A30007C0160910D0370910E03072E000C880B52
:100A4000990B0E9439129B01AC01C701B6010E94AB
:100A50002211E9CD10923C0210923B02F7CD84E0C6
:100A60002F3F31054105510509F008F445CF9AE0C3
:100A7000B594A794979487949A95D1F7A50194017A
:100A8000215031094109510985E036CF83E02F3FDC
:100A900031054105510509F00CF42ECFD6CE109248
:100AA0005F0110925E0160E083E00E94F10160E06E
:100AB00082E00E94F10110926A0110926B01109283
:100AC0006C0110926D01809113019091140190932B
:100AD000120180931101089510926A0110926B0126
:100AE00010926C0110926D0181E090E090935F0193
:100AF00080935E0180910F019091100181309105EA
:100B000019F0029779F0089560E082E00E94F10107
:100B10008091050190910601892B89F061E083E0C5
:100B20000C94F10160E083E00E94F10180910501E5
:100B300090910601892B19F061E082E0F1CF0895D0
:100B400080910701909108018130910521F1823057
:100B5000910531F1892BF1F460911101709112012D
:100B6000072E000C880B990B0E9439129B01AC01D7
:100B700060E070E080EF92E40E948F1120E030E0AE
:100B800040EF51E40E94C5120E940112709352017D
:100B900060935101089510925201109251010895ED
:100BA0006091110170911201072E000C880B990BB6
:100BB0000E9439129B01AC0160E070E080EF92E48A
:100BC0000E948F1120E030E040E751E4DBCF8091BC
:100BD0000701909108018130910521F18230910542
:100BE00031F1892BF1F46091110170911201072EFE
:100BF000000C880B990B0E9439129B01AC0160E03C
:100C000070E080EF92E40E948F1120E030E040E23B
:100C100051E40E94C5120E9401127093500160932A
:100C20004F0108951092500110924F010895609164
:100C3000110170911201072E000C880B990B0E9474
:100C400039129B01AC0160E070E080EF92E40E94F9
:100C50008F1120E030E040EA50E4DBCF8091390290
:100C600090913A02FC01EE0FFF1FEF58FE4F21E07A
:100C700020832DE22183019684369105CCF4909354
:100C80003A02809339028091390290913A02FC0134
:100C9000EE0FFF1FEF58FE4F10822AE021830196CE
:100CA0008436910554F490933A0280933902089562
:100CB00010923A0210923902E6CF10923A02109244
:100CC000390208959FEB980F9A3108F4805EECE9A1
:100CD000E80FE73108F066C00E2E000CFF0BED5850
:100CE000F94F0C9446138A06D2068C06D206960655
:100CF000AF06BC06D206D206D206D206D206D2066D
:100D0000D206D206C606D206D206D206D206C2063F
:100D1000B506CC060C942E0680911101909112011B
:100D200002969093120180931101089580913902E7
:100D300090913A02FC01EE0FFF1FEF58FE4F108218
:100D400011820196843691052CF490933A02809397
:100D50003902089510923A02109239020895809152
:100D60000F0190911001019769F461E089E00E9400
:100D7000F10160E08AE008C080910F0190911001BC
:100D8000019799F760E089E00C94F10180911101DD
:100D9000909112010297C5CF61E089E00E94F101B4
:100DA00061E0E8CF08958091390290913A02FC0108
:100DB000EE0FFF1FEF58FE4F21E020832EE121832D
:100DC000019684369105CCF490933A0280933902CF
:100DD0008091390290913A02FC01EE0FFF1FEF580B
:100DE000FE4F10822AE0218301968436910554F447
:100DF00090933A0280933902089510923A02109229
:100E00003902E6CF10923A02109239020895809189
:100E1000390290913A02FC01EE0FFF1FEF58FE4F8E
:100E200021E020832AE02183019684369105CCF4C9
:100E300090933A02809339028091390290913A025C
:100E4000FC01EE0FFF1FEF58FE4F10822AE02183B6
:100E500001968436910554F490933A0280933902B6
:100E6000089510923A0210923902E6CF10923A0297
:100E7000109239020895CF934091050350910603D3
:100E8000809107039091080348175907A9F0FC01C6
:100E9000E35CFD4FC0810196883C91057CF4909302
:100EA00008038093070380914001882361F08C2F11
:100EB0000E94620610924001CF910895109208039B
:100EC00010920703F0CFCB3301F520910703309147
:100ED000080342175307A9F0F901E35CFD4F808135
:100EE0002F5F3F4F283C31053CF43093080320939B
:100EF0000703CF910C946206109208031092070327
:100F0000F8CF81E080934001D7CF80911F0190916D
:100F10002001909301018093000180915E019091E6
:100F20005F01892B91F40E946C0580910D019091D5
:100F30000E0190935401809353018091130190917D
:100F4000140190931201809311018FEB8C0F8A3161
:100F500008F4C05EE0EEEC0FEB3508F079C00E2E21
:100F6000000CFF0BEA54F84F0C9446131108770855
:100F700028082808280828087C082808280828089D
:100F80002808640854088508470888088B089408CE
:100F900097089C089F08A208A708AA08AD08B008EF
:100FA000280828086B08700828085D082808280801
:100FB00028082808280828082808280828082808B1
:100FC00028082808280828082808280828082808A1
:100FD0002808280828082808280828082808280891
:100FE00028082808280828081108110828084F0888
:100FF0007E086608BD08B8087908B408A408820805
:1010000099084D08BB089108B6088F08C008C308A6
:10101000680880085108740872085A08C608C90888
:1010200061088091390290913A02FC01EE0FFF1F96
:10103000EF58FE4F10821182019690933A028093EE
:1010400039028436910524F010923A021092390246
:101050008091390290913A02FC01EE0FFF1FEF5888
:10106000FE4F22E0208324E12183019684369105FE
:101070000CF092C090933A028093390280910B0158
:1010800090910C01909356018093550115CF0E94C9
:1010900007070E94D3060E9407070E94D3060E94FA
:1010A00007070E94D306D4CF0E94D3060E94D3061E
:1010B0000E9407070E94070734C00E9407070E948A
:1010C00007070E94D30659C00E9407070E94D30653
:1010D0000E9407074BC00E9407070E940707DBCF4B
:1010E0000E94D3060E9407070E940707D8CF0E94DC
:1010F00007070E940707ECCF0E9407070E94D3064C
:101100000E9407070E94070733C00E942E06A0CF47
:101110000E94D306EECF0E94D3060E94D3060E94FF
:10112000D3060E94D306BDCF0E940707F6CF0E94C8
:1011300007070E940707F3CF0E940707B9CF0E9455
:101140000707D0CF0E9407070E940707D9CF0E9448
:10115000D306FACF0E94D306D1CF0E94D306B1CFD7
:101160000E94D3060E94D3060E94D3060E94D30693
:101170000E9407076DCF0E9407070E94D306C2CFC7
:101180000E940707F1CF0E94D30687CF0E94D306A3
:10119000ABCF0E94D3068ECF10923A021092390242
:1011A0006DCFCF93DF93809151019091520118162A
:1011B00019062CF40197909352018093510180916C
:1011C0004F0190915001181619062CF40197909335
:1011D000500180934F0180915E0190915F01892BB6
:1011E00009F09CC080916A0190916B01A0916C0103
:1011F000B0916D01813422E492072FE0A207B1057E
:1012000058F40196A11DB11D80936A0190936B0162
:10121000A0936C01B0936D0180916F01909170016A
:101220008130910509F403C10CF081C0892B09F4C8
:10123000ACC080915B0190915C01892B89F4809115
:101240005A01882309F46CC10E94070781E090E0ED
:1012500090935C0180935B0110925A010E94E70514
:10126000D0911901C0911B01809107019091080153
:10127000039709F075C18D2F0E94C801892B09F0D1
:1012800061C18C2F0E94C801892B09F05BC180913C
:101290005B0190915C01892B09F401C2C0910903A3
:1012A000D0910A038091030190910401019711F0FC
:1012B0002097B1F488E00E94C801892B09F076C21A
:1012C00080910F01909110018130910509F45EC267
:1012D000029709F464C281E080936001CD2B59F03C
:1012E00080910F01909110018130910509F47DC228
:1012F000029709F483C288E00E94C80120915D0131
:10130000892B09F082C2222319F081E080936E01BB
:1013100081E080935D01DF91CF91089510926A0181
:1013200010926B0110926C0110926D0175CF82309A
:10133000910509F491C0039709F07BCF2091390200
:1013400030913A0280913B0290913C022817390774
:1013500009F054C0209105033091060380910703E2
:10136000909108032817390709F4BFC00E943B0772
:1013700020913B0230913C028091390290913A02D7
:101380002817390709F455CF39C020913902309117
:101390003A0280913B0290913C022817390769F488
:1013A0002091050330910603809107039091080373
:1013B0002817390711F00E943B072091390230911C
:1013C0003A0280913B0290913C0228173907F9F0CC
:1013D00080910D0190910E01181619066CF49093EE
:1013E00054018093530181E090E0909370018093C9
:1013F0006F010E946C051DCF0E946C050E948B023C
:1014000082E090E09093700180936F0112CF809101
:10141000090390910A03892B09F00BCF60E082E069
:101420000E94F10160E083E00E94F10102CF80910F
:10143000530190915401181619062CF401979093BA
:1014400054018093530180915301909154011816D7
:1014500019060CF4EECED2CF80914D0190914E0141
:10146000181619062CF4019790934E0180934D01A4
:1014700080914D0190914E01181619060CF4D9CEA9
:101480002091390230913A0280913B0290913C02C6
:101490002817390719F00E948B02CBCE10925C01FD
:1014A00010925B01209105033091060380910703A0
:1014B000909108032817390769F00E943B07209193
:1014C0003B0230913C028091390290913A022817F8
:1014D000390709F7809155019091560190934C017D
:1014E00080934B0183E090E08DCF80914B019091F0
:1014F0004C01181619062CF4019790934C01809317
:101500004B0180914B0190914C01181619060CF477
:1015100090CE0E944F051092700110926F0189CEFB
:1015200080915901882309F49BCE0E94D30682E062
:1015300090E090935C0180935B01109259010E94AE
:10154000A0058ECE8D2F0E94C801019749F48C2FE3
:101550000E94C801019721F410925801109257017E
:101560008D2F0E94C801892B09F044C080911D0174
:1015700090911E01909301018093000160911101EF
:101580007091120180EB94E00E94321320910901C6
:1015900030910A01629FC001639F900D729F900D70
:1015A0001124909356018093550180910B039091E3
:1015B0000C03009709F487C09093120180931101E6
:1015C00080915E0190915F01892B51F40E946C051E
:1015D00080910D0190910E019093540180935301DD
:1015E00080915B0190915C01009709F471C00297B2
:1015F00009F495C08C2F0E94C801892B09F04ECEAA
:1016000080911D0190911E01909301018093000132
:10161000609111017091120180EB94E00E943213ED
:101620002091090130910A01629FC001639F900DD2
:10163000729F900D112490935601809355018091D3
:101640000B0390910C03009709F474C0909312015E
:101650008093110180915E0190915F01892B51F47B
:101660000E946C0580910D0190910E0190935401A0
:101670008093530180915B0190915C01009709F484
:101680005EC0019709F00ACE80914F019091500100
:10169000892B09F003CE81E080935901FFCD809121
:1016A000570190915801019749F40E94D30682E0B6
:1016B00090E090935C0180935B01F0CD0E9407075E
:1016C00081E090E0F6CF809113019091140174CFE6
:1016D00080913B0290913C0290933A0280933902B0
:1016E000809107039091080390930603809305036C
:1016F0008091570190915801892B31F481E090E05D
:1017000090935801809357010E94070781E090E071
:1017100090935C0180935B010E94E7056BCF809101
:10172000510190915201892B09F064CF81E080939F
:101730005A0160CF809113019091140187CF80915D
:101740003B0290913C0290933A028093390280913F
:1017500007039091080390930603809305038091FB
:10176000570190915801892B31F482E090E09093D9
:101770005801809357010E94D30682E090E0909335
:101780005C0180935B010E94A00588CD60E082E04F
:101790000E94F10161E083E00E94F1019CCD60E0D4
:1017A00083E00E94F10161E082E0F6CF8091600168
:1017B000882351F080915E0190915F01892B11F493
:1017C0000E944F051092600180915E0190915F012F
:1017D000019709F083CD8091050190910601892B35
:1017E00009F07CCD0E944F0579CD60E082E00E9437
:1017F000F10161E083E00E94F1017DCD60E083E0D2
:101800000E94F10161E082E0F6CF211102C0109246
:101810006E0110925D017FCD1F920F920FB60F9255
:1018200011242F933F938F939F93AF93BF938091F6
:10183000150390911603A0911703B09118033091EE
:10184000140323E0230F2D3758F50196A11DB11D78
:10185000209314038093150390931603A09317030A
:10186000B09318038091100390911103A09112037B
:10187000B09113030196A11DB11D809310039093A5
:101880001103A0931203B0931303BF91AF919F91E3
:101890008F913F912F910F900FBE0F901F90189531
:1018A00026E8230F0296A11DB11DD2CF1F920F92E1
:1018B0000FB60F9211242F933F934F935F936F9323
:1018C0007F938F939F93AF93BF93EF93FF938091F9
:1018D000640190916501A0916601B0916701892B27
:1018E0008A2B8B2BD1F190916301E0916101F091F2
:1018F00062018081892780838091640190916501D4
:10190000A0916601B0916701181619061A061B0608
:101910009CF48091640190916501A0916601B09161
:1019200067010197A109B109809364019093650152
:10193000A0936601B0936701FF91EF91BF91AF91C2
:101940009F918F917F916F915F914F913F912F91D7
:101950000F900FBE0F901F901895809102010E946A
:101960001F02EACF1F920F920FB60F9211242F93EE
:101970003F934F935F936F937F938F939F93AF9317
:10198000BF93EF93FF9389E193E00E940B01FF91D6
:10199000EF91BF91AF919F918F917F916F915F91E7
:1019A0004F913F912F910F900FBE0F901F90189560
:1019B0001F920F920FB60F9211242F938F939F9324
:1019C000EF93FF93E0912903F0912A038081E09146
:1019D0002F03F091300382FD1BC090818091320370
:1019E0008F5F8F7320913303821741F0E0913203B0
:1019F000F0E0E75EFC4F958F80933203FF91EF910B
:101A00009F918F912F910F900FBE0F901F9018955F
:101A10008081F4CF1F920F920FB60F9211242F9353
:101A20003F934F935F936F937F938F939F93AF9366
:101A3000BF93EF93FF93E0916801F09169010995DD
:101A4000FF91EF91BF91AF919F918F917F916F9196
:101A50005F914F913F912F910F900FBE0F901F906C
:101A60001895789484B5826084BD84B5816084BD06
:101A700085B5826085BD85B5816085BD80916E002C
:101A8000816080936E00109281008091810082605D
:101A9000809381008091810081608093810080919A
:101AA00080008160809380008091B1008460809389
:101AB000B1008091B00081608093B00080917A0085
:101AC000846080937A0080917A00826080937A00AB
:101AD00080917A00816080937A0080917A0080689A
:101AE00080937A001092C10061E08DE00E944B0269
:101AF00062E080911B010E944B0262E0809119011B
:101B00000E944B0262E088E00E944B0261E085E0A7
:101B10000E944B0261E083E00E944B0261E084E09E
:101B20000E944B0261E082E00E944B0261E089E08A
:101B30000E944B0261E08AE00E944B0261E08BE070
:101B40000E944B0280E1809381001092800080E42B
:101B50009FE1909387008093860081E180938100CC
:101B600081ED98E0909369018093680181E0809312
:101B70006F0080E480937C0080917A008064809381
:101B80007A0080917A0086FDFCCF60917800709198
:101B90007900072E000C880B990B611571058105E2
:101BA000910511F00E94B61010923A02109239027B
:101BB00010923C0210923B02109206031092050311
:101BC0001092080310920703E0912903F0912A0371
:101BD00082E08083E0912503F09126031082E0915A
:101BE0002703F091280387E6808310923103E09168
:101BF0002D03F0912E0386E08083E0912B03F0917A
:101C00002C03808180618083E0912B03F0912C0371
:101C1000808188608083E0912B03F0912C03808188
:101C200080688083E0912B03F0912C0380818F7D6D
:101C3000808310920F039AEF492E512C612C712C46
:101C40002AE0322E30E0832E30E0932E47ECA42E93
:101C5000B12C06E010E0F89489E193E00E94EB00DB
:101C6000181619060CF0ADC189E193E00E94C90075
:101C7000EC0180910F03882309F4D3C0EEEFE80F45
:101C8000E83108F031C00E2E000CFF0BE65BF14F7F
:101C90000C944613620E770E810E8B0EA30EB80EB7
:101CA000BF0EC80ECD0ED20E740E740EF30EF80ECB
:101CB000FD0E740E740E740E020F740E070F740E68
:101CC000740E0C0F61E0C0FF60E089E00E94F1013A
:101CD00061E0C1FF60E08AE00E94F10161E0C2FFC3
:101CE00060E08BE00E94F10110920F03B5CF3C9EA3
:101CF000C0013D9E900D11249093200180931F01FF
:101D0000F3CF3C9EC0013D9E900D112490931E0187
:101D100080931D01E9CFCD2B59F487E090E090939B
:101D20001C0180931B0110931A0100931901DCCF51
:101D300010931C0100931B0187E090E090931A011F
:101D400080931901D1CFBE01DD0F880B990B0E9442
:101D5000391220E030E048EC52E40E948F11609389
:101D60001501709316018093170190931801BCCF51
:101D7000C058D109D0930E03C0930D03B5CFD093B3
:101D80001401C0931301D0931201C0931101ACCF81
:101D9000D0930C03C0930B03F6CFD0930A03C093E8
:101DA0000903A2CF80910F0190911001C817D907A4
:101DB00009F49ACF8091070390910803909306034A
:101DC0008093050380913B0290913C0290933A02EC
:101DD000809339020E947C020E944F05D09310012B
:101DE000C0930F0181CFD0930E01C0930D017CCF22
:101DF000D0930C01C0930B0177CFD0930A01C0930D
:101E0000090172CFD0930801C09307016DCFD09321
:101E10000601C093050168CFD0930401C09303016C
:101E200063CFC032D105F4F0809105039091060391
:101E3000FC01E35CFD4FC0830196883C91056CF486
:101E400090930603809305038091130190911401F0
:101E50009093120180931101FFCE1092060310920D
:101E60000503F2CFCC31D10508F0A8C0FE01E55C36
:101E7000F04F0C9446132C0E570FDE0FDE0FDE0FC3
:101E8000DE0FDE0FDE0FDE0FDE0FDE0FDE0F600F68
:101E9000730FDE0FDE0FDE0F8B0F900FA50FDE0F1F
:101EA000DE0FDE0FDE0FDE0FDE0FAE0FC70F47E0D7
:101EB00050E067E371E089E193E00E948D00CCCEB1
:101EC00080916F0190917001009729F490E080E07B
:101ED0000E947A01C1CE039719F481E090E0F8CF17
:101EE00082E090E0F5CF2091070330910803409104
:101EF0000503509106034217530749F08F5F2F5F88
:101F00003F4F283C3105BCF330E020E0F4CF082EF1
:101F1000000C990BDDCF80916E018111DECFD6CF01
:101F20008091070390910803909306038093050323
:101F300080913B0290913C0290933A028093390247
:101F40000E947C020E944F0587CE809107039091EA
:101F5000080390930603809305037ECE80910503CA
:101F6000909106032091070330910803821793078D
:101F700009F4ACCF019797FD05C0909306038093B9
:101F80000503ABCFB0920603A0920503A6CF6091E4
:101F90006A0170916B0180916C0190916D01A301B8
:101FA00092010E94F1106901822F220F990B0E9469
:101FB0007A018D2D992787FD9A958ACFC0930F03BB
:101FC0004BCE78948114910409F445CE0E94F70019
:101FD000882309F440CE0E9400003DCEE9E1F3E001
:101FE0001382128288EE93E0A0E0B0E084839583B0
:101FF000A683B78389E291E09183808385EC90E0AA
:102000009587848784EC90E09787868780EC90E0C2
:10201000918B808B81EC90E0938B828B82EC90E0B3
:10202000958B848B86EC90E0978B868B118E128E2D
:10203000138E148E08958F929F92AF92BF92CF927B
:10204000DF92EF92FF92CF93DF93EC016881798169
:102050008A819B81611571058105910521F464E2F6
:1020600079ED8BE597E02DE133EF41E050E00E9400
:10207000BF1049015A019B01AC01A7EAB1E40E94DB
:10208000DE106B017C01ACEEB4EFA50194010E945F
:10209000EC10C60ED71EE81EF91EF7FE06C081E042
:1020A000C81AD108E10880E8F80AC882D982EA8211
:1020B000FB82C701B6019F77DF91CF91FF90EF9030
:1020C000DF90CF90BF90AF909F908F9008958F92A8
:1020D0009F92AF92BF92CF92DF92EF92FF92609168
:1020E00021017091220180912301909124016115B9
:1020F00071058105910521F464E279ED8BE597E0A6
:102100002DE133EF41E050E00E94BF1049015A0138
:102110009B01AC01A7EAB1E40E94DE106B017C01D7
:10212000ACEEB4EFA50194010E94EC10C60ED71ED0
:10213000E81EF91EF7FE06C081E0C81AD108E108C2
:1021400080E8F80AC0922101D0922201E092230196
:10215000F0922401C701B6019F77FF90EF90DF90C6
:10216000CF90BF90AF909F908F9008956093210182
:102170007093220180932301909324010895052EEA
:1021800097FB1EF400940E94D61057FD07D00E94C2
:10219000F11007FC03D04EF40C94D61050954095E6
:1021A000309521953F4F4F4F5F4F08959095809503
:1021B000709561957F4F8F4F9F4F08950E94131127
:1021C000A59F900DB49F900DA49F800D911D11248B
:1021D0000895B7FF0C94DE100E94DE10821B930B53
:1021E0000895A1E21A2EAA1BBB1BFD010DC0AA1F58
:1021F000BB1FEE1FFF1FA217B307E407F50720F070
:10220000A21BB30BE40BF50B661F771F881F991FEA
:102210001A9469F760957095809590959B01AC0133
:10222000BD01CF010895A29FB001B39FC001A39F3C
:10223000700D811D1124911DB29F700D811D1124FF
:10224000911D08955058BB27AA270E943A110C945B
:102250008B120E947D1238F00E94841220F039F413
:102260009F3F19F426F40C947A120EF4E095E7FBE4
:102270000C947412E92F0E949C1258F3BA1762074B
:1022800073078407950720F079F4A6F50C94BE1225
:102290000EF4E0950B2EBA2FA02D0B01B901900181
:1022A0000C01CA01A0011124FF27591B99F0593FC5
:1022B00050F4503E68F11A16F040A22F232F342F0D
:1022C0004427585FF3CF469537952795A795F0405B
:1022D0005395C9F77EF41F16BA0B620B730B840B70
:1022E000BAF09150A1F0FF0FBB1F661F771F881F28
:1022F000C2F70EC0BA0F621F731F841F48F4879580
:1023000077956795B795F7959E3F08F0B0CF939571
:10231000880F08F09927EE0F9795879508950E94EA
:10232000A3110C948B120E94841258F00E947D120B
:1023300040F029F45F3F29F00C94741251110C9471
:10234000BF120C947A120E949C1268F39923B1F385
:10235000552391F3951B550BBB27AA2762177307CB
:10236000840738F09F5F5F4F220F331F441FAA1F5F
:10237000A9F335D00E2E3AF0E0E832D0915050401B
:10238000E695001CCAF72BD0FE2F29D0660F771FC9
:10239000881FBB1F261737074807AB07B0E809F0AF
:1023A000BB0B802DBF01FF2793585F4F3AF09E3F34
:1023B000510578F00C9474120C94BF125F3FE4F353
:1023C000983ED4F3869577956795B795F7959F5F77
:1023D000C9F7880F911D9695879597F90895E1E0C3
:1023E000660F771F881FBB1F621773078407BA0722
:1023F00020F0621B730B840BBA0BEE1F88F7E0957D
:1024000008950E9408126894B1110C94BF120895A7
:102410000E94A41288F09F5798F0B92F9927B751BE
:10242000B0F0E1F0660F771F881F991F1AF0BA9578
:10243000C9F714C0B13091F00E94BE12B1E0089506
:102440000C94BE12672F782F8827B85F39F0B93FF8
:10245000CCF3869577956795B395D9F73EF490952B
:102460008095709561957F4F8F4F9F4F0895E894A9
:1024700009C097FB3EF490958095709561957F4FCC
:102480008F4F9F4F9923A9F0F92F96E9BB2793957A
:10249000F695879577956795B795F111F8CFFAF48A
:1024A000BB0F11F460FF1BC06F5F7F4F8F4F9F4FBB
:1024B00016C0882311F096E911C0772321F09EE819
:1024C000872F762F05C0662371F096E8862F70E07F
:1024D00060E02AF09A95660F771F881FDAF7880F59
:1024E0009695879597F9089597F99F6780E870E02A
:1024F00060E008959FEF80EC089500240A9416167A
:10250000170618060906089500240A9412161306E1
:10251000140605060895092E0394000C11F488236F
:1025200052F0BB0F40F4BF2B11F460FF04C06F5F8B
:102530007F4F8F4F9F4F089557FD9058440F551F61
:1025400059F05F3F71F04795880F97FB991F61F035
:102550009F3F79F087950895121613061406551FAC
:10256000F2CF4695F1DF08C0161617061806991F18
:10257000F1CF86957105610508940895E894BB270D
:1025800066277727CB0197F908950E94D8120C94FB
:102590008B120E947D1238F00E94841220F0952345
:1025A00011F00C9474120C947A1211240C94BF1232
:1025B0000E949C1270F3959FC1F3950F50E0551F38
:1025C000629FF001729FBB27F00DB11D639FAA2788
:1025D000F00DB11DAA1F649F6627B00DA11D661FD7
:1025E000829F2227B00DA11D621F739FB00DA11DF8
:1025F000621F839FA00D611D221F749F3327A00DB2
:10260000611D231F849F600D211D822F762F6A2F4D
:1026100011249F5750409AF0F1F088234AF0EE0FB2
:10262000FF1FBB1F661F771F881F91505040A9F7DF
:102630009E3F510580F00C9474120C94BF125F3FC2
:10264000E4F3983ED4F3869577956795B795F7951B
:10265000E7959F5FC1F7FE2B880F911D9695879593
:1026600097F9089597FB072E16F4009407D077FD8D
:1026700009D00E944C1307FC05D03EF4909581953B
:102680009F4F0895709561957F4F0895EE0FFF1F3E
:102690000590F491E02D0994AA1BBB1B51E107C0E2
:1026A000AA1FBB1FA617B70710F0A61BB70B881FE2
:1026B000991F5A95A9F780959095BC01CD01089571
:1026C000F894FFCFF401FF0100010002000A0005A9
:1026D00000050001001E001E006666863F0600071A
:1026E00000BC02F40101000000000000002D018D7B
:1026F00000BA007F01EB00C900DD005452435720AF
:04270000563400004B
:107E000085E08093810082E08093C00088E18093C8
:107E1000C10086E08093C20080E18093C40084B7F3
:107E200014BE81FFD0D089E2C8D0259A86E020E335
:107E30003CEF91E0309385002093840096BBB09B8B
:107E4000FECF1D9AA8958150A9F7DD24D394A5E013
:107E5000EA2EF1E1FF2EA4D0813421F481E0BED0DE
:107E600083E024C0823411F484E103C0853419F422
:107E700085E0B4D08AC08535A1F492D0082F10E0F7
:107E800010930102009300028BD090E0982F882776
:107E9000802B912B880F991F9093010280930002F1
:107EA00073C0863529F484E099D080E071D06DC02C
:107EB000843609F043C07CD0E0910002F0910102C9
:107EC00083E080935700E895C0E0D1E069D08993C2
:107ED000809102028150809302028823B9F778D002
:107EE00007B600FCFDCF4091000250910102A0E0D6
:107EF000B1E02C9130E011968C91119790E0982F81
:107F00008827822B932B1296FA010C01D0925700EE
:107F1000E89511244E5F5F4FF1E0A038BF0749F7A5
:107F2000E0910002F0910102E0925700E89507B657
:107F300000FCFDCFF0925700E89527C08437B9F4D4
:107F400037D046D0E0910002F09101023196F093D3
:107F50000102E09300023197E4918E2F19D08091B5
:107F60000202815080930202882361F70EC0853798
:107F700039F42ED08EE10CD085E90AD08FE096CF6F
:107F8000813511F488E019D023D080E101D063CF8E
:107F9000982F8091C00085FFFCCF9093C600089574
:107FA000A8958091C00087FFFCCF8091C6000895FE
:107FB000F7DFF6DF80930202F3CFE0E6F0E098E12E
:107FC00090838083089580E0F8DFEE27FF270994EF
:107FD000E7DF803209F0F7DF84E1DACF1F93182F53
:0C7FE000DFDF1150E9F7F4DF1F91089576
:00000001FF
