:100000000C9463000C948B000C948B000C948B006C
:100010000C948B000C948B000C948B000C9411218D
:100020000C948B000C948B000C948B000C948B0024
:100030000C948B000C94C5210C948B000C948B00B9
:100040000C94C7200C948B000C9493210C946D217C
:100050000C948B000C948B000C948B000C948B00F4
:100060000C948B000C948B000000000024002700EF
:100070002A0000000000250028002B0000000000DE
:1000800023002600290004040404040404040202DA
:100090000202020203030303030301020408102007
:1000A0004080010204081020010204081020000012
:1000B0000008000201000003040700000000000027
:1000C00000000200C82411241FBECFEFD8E0DEBF1D
:1000D000CDBF11E0A0E0B1E0E8E7F0E502C0059097
:1000E0000D92A234B107D9F723E0A2E4B1E001C038
:1000F0001D92A83CB207E1F710E0C3E6D0E004C0CF
:100100002197FE010E942028C236D107C9F70E941C
:10011000EC210C943A280C940000AF92BF92CF923D
:10012000DF92EF92FF920F931F93CF93DF936C01B7
:100130007B018B01040F151FEB015E01AE18BF0898
:10014000C017D10759F06991D601ED91FC9101904A
:10015000F081E02DC6010995892B79F7C501DF9162
:10016000CF911F910F91FF90EF90DF90CF90BF90B4
:10017000AF900895FC01538D448D252F30E0842FDE
:1001800090E0821B930B541710F0CF9608950197BF
:100190000895FC01918D828D981761F0A28DAE0FAC
:1001A000BF2FB11D5D968C91928D9F5F9F73928F33
:1001B00090E008958FEF9FEF0895FC01918D828D5F
:1001C000981731F0828DE80FF11D858D90E008952C
:1001D0008FEF9FEF0895FC01918D228D892F90E084
:1001E000805C9F4F821B91098F73992708958BE242
:1001F00093E00E94EB0021E0892B09F420E0822F9C
:10020000089580E090E0892B29F00E94F700811189
:100210000C9400000895FC01A48DA80FB92FB11D06
:10022000A35ABF4F2C91848D90E001968F7399272C
:10023000848FA689B7892C93A089B1898C9183700A
:1002400080648C93938D848D981306C00288F38903
:10025000E02D80818F7D80830895EF92FF920F9330
:100260001F93CF93DF93EC0181E0888F9B8D8C8D62
:1002700098131AC0E889F989808185FF15C09FB756
:10028000F894EE89FF896083E889F9898081837019
:10029000806480839FBF81E090E0DF91CF911F91C8
:1002A0000F91FF90EF900895F62E0B8D10E00F5FE9
:1002B0001F4F0F731127E02E8C8D8E110CC00FB6BF
:1002C00007FCFACFE889F989808185FFF5CFCE0157
:1002D0000E940B01F1CFEB8DEC0FFD2FF11DE35AC6
:1002E000FF4FF0829FB7F8940B8FEA89FB898081DA
:1002F0008062CFCF682F8BE293E00C942D01CF93D7
:10030000DF93EC01888D8823B9F0AA89BB89E8893D
:10031000F9898C9185FD03C0808186FD0DC00FB6E3
:1003200007FCF7CF8C9185FFF2CF808185FFEDCF61
:10033000CE010E940B01E9CFDF91CF910895833068
:1003400081F028F4813099F08230A9F00895873047
:10035000A9F08830C9F08430B1F4809180008F7D9D
:1003600003C0809180008F7780938000089584B5CA
:100370008F7784BD089584B58F7DFBCF8091B000C9
:100380008F778093B00008958091B0008F7DF9CF72
:10039000CF93DF93282F30E0F901E255FF4F84918E
:1003A000F901E656FF4FD491F901EA57FF4FC49186
:1003B000CC23A1F081110E949F01EC2FF0E0EE0F01
:1003C000FF1FE458FF4FA591B491EC91ED2381E01C
:1003D00090E009F480E0DF91CF91089580E090E013
:1003E000FACF1F93CF93DF93282F30E0F901E25526
:1003F000FF4F8491F901E656FF4FD491F901EA5776
:10040000FF4FC491CC23A9F0162F81110E949F01A8
:10041000EC2FF0E0EE0FFF1FEE58FF4FA591B491C7
:100420008FB7F894EC91111108C0D095DE23DC93BE
:100430008FBFDF91CF911F910895DE2BF8CF909160
:10044000020189130BC0E2ECF0E0E4919FEF90937E
:100450000201E13049F028F0E23061F060E00C94F4
:10046000F10110926E00FACF90916F009D7F9093F2
:100470006F00F4CF909170009D7F9093700091E099
:100480009093B0009091B100987F94609093B100E8
:100490001092B300E3CFCF93DF9390E0FC01E656D8
:1004A000FF4F24918A579F4FFC0184918823D1F0FC
:1004B00090E0880F991FFC01E859FF4FA591B49176
:1004C000FC01EE58FF4FC591D491623071F49FB793
:1004D000F8943C91822F809583238C93E8812E2B76
:1004E00028839FBFDF91CF9108958FB7F894EC9147
:1004F0002E2B2C938FBFF6CF089560E08DE00E94E5
:10050000F1018CE00E941F0260E085E00E94F10191
:1005100060E084E00C94F1018F929F92AF92BF92C1
:10052000CF92DF92EF92FF92CF9361E08DE00E9435
:10053000F101C0900001D09001011C141D043CF495
:10054000809102018C30C1F08F3F09F47DC0809111
:100550001101909112018130910509F494C1029723
:1005600009F4A2C1CF91FF90EF90DF90CF90BF90A0
:10057000AF909F908F900895E2ECF0E0C491C7FD9A
:10058000E6CF61E08CE00E944B02CC2319F0C23030
:1005900009F024C10D2C000CEE08FF0860E072E1A8
:1005A0008AE790E0A70196010E94992549015A0126
:1005B000DA01C9010197A109B1098F3F9105A10590
:1005C000B10509F00CF4EEC060E472E48FE090E055
:1005D000A70196010E94992521503109410951092D
:1005E000C23009F0A0C082E02F3F3105410551051E
:1005F00009F00CF4A2C160E970ED83E090E0A7017E
:1006000096010E949925215031094109510983E041
:100610002F3F31054105510509F00CF48EC168E406
:1006200078EE81E090E0A70196010E949925215083
:100630003109410951092F3F31054105510511F09B
:100640000CF08FC084E079C18CE080930201E2EC71
:10065000F0E0C491CF3F09F47ACFC13021F150F0DE
:10066000C23009F43EC0C7FD72CF61E08CE00E9449
:100670004B028DCF14BC15BC84B5826084BD85B59A
:10068000816085BDE2E9F0E0E491F0E0EE0FFF1F4C
:10069000EE58FF4F85919491E6EAF0E0E491E09303
:1006A0004301C0E06ECF10928000109281008091D3
:1006B00081008860809381008091810081608093B7
:1006C0008100E2E9F0E0E491F0E0EE0FFF1FEE5868
:1006D000FF4F85919491E6EAF0E0E491E0934201C6
:1006E00050CF1092B0001092B1008091B0008260A3
:1006F0008093B0008091B10081608093B100E2E905
:10070000F0E0E491F0E0EE0FFF1FEE58FF4F85910F
:1007100094919093740180937301E6EAF0E0E49180
:10072000E09375012ECF2F3F31054105510509F0AA
:100730000CF452C068E478EE81E090E0A7019601E5
:100740000E9499252150310941095109CC2309F40E
:10075000C9C02F3F31054105510511F00CF0CAC049
:1007600071CF64E274EF80E090E0A70196010E94EF
:100770009925215031094109510985E02F3F310563
:100780004105510509F00CF4D8C062E17AE780E038
:1007900090E0A70196010E94992521503109410955
:1007A0005109B6C09C0181E0C111C7C095B5987FC1
:1007B000892B85BD27BD8FEF9FEFDC01809348011A
:1007C00090934901A0934A01B0934B0180916E0030
:1007D000826080936E00BBCE82E0E6CF0D2C000CD1
:1007E000EE08FF0860E072E18AE790E0A701960159
:1007F0000E949925215031094109510991E02115A3
:10080000310581E0480751056CF068E478EE81E03D
:1008100090E0A70196010E949925215031094109D4
:10082000510993E0C13009F08EC080918100887F2A
:10083000892B8093810030938900209388008FEF6B
:100840009FEFDC018093440190934501A093460102
:10085000B093470180916F00826080936F0077CEE4
:100860002093B3008FEF9FEFDC018093760190938C
:100870007701A0937801B093790180917000826034
:100880008093700064CE60E084E00E94F10161E03A
:1008900085E0CF91FF90EF90DF90CF90BF90AF9029
:1008A0009F908F900C94F10160E085E00E94F1012F
:1008B00061E084E0EECF84E02F3F31054105510532
:1008C00009F008F473CF8AE0B594A79497948794BD
:1008D0008A95D1F7A50194012150310941095109A7
:1008E00085E064CF83E02F3F31054105510509F0D4
:1008F0000CF45CCF62E17AE780E090E0A70196011A
:100900000E9499252150310941095109CC2399F2BE
:1009100086E02F3F31054105510579F070F09AE0EE
:10092000B594A794979487949A95D1F7A5019401CB
:10093000215031094109510987E09091B100987F18
:10094000892B8093B100C13009F475CFC23009F40E
:1009500087CFC111FCCD2ECF4F925F926F927F92C5
:100960008F929F92AF92BF92CF92DF92EF92FF92BF
:100970000F931F93CF93DF93C0914D02D0914E02FE
:1009800080914B0290914C028C179D0709F468C02E
:100990006091130170911401072E000C880B990BC4
:1009A0000E9413279B01AC0160E070E080EF92E4AD
:1009B0000E9469266B017C018E01000F111F0D57EB
:1009C0001E4FF801618170E090E080E00E941327E3
:1009D0009B01AC01C701B6010E949F270E94DB2644
:1009E00070934E0160934D01809017019090180113
:1009F000A0901901B0901A0140901F03509020035D
:100A0000F80120816B01770FEE08FF08052C000C20
:100A10006608770820FF35C00E948C02C701B60126
:100A20000E941327A50194010E949F276B017C015E
:100A3000C301B2010E9413279B01AC01C701B6019B
:100A40000E94FD250E94DB2670934E0160934D01AC
:100A50002196C436D105C4F5D0934E02C0934D0201
:100A6000DF91CF911F910F91FF90EF90DF90CF908A
:100A7000BF90AF909F908F907F906F905F904F90BE
:100A800008950E947D02C701B6010E9413276B01E1
:100A90007C01A501940160E070E080E89FE30E9482
:100AA00069269B01AC01C701B6010E949F276B011B
:100AB0007C01C301B2010E9413279B01AC01C70155
:100AC000B6010E94FC25BECF10924E0210924D023C
:100AD000C7CF10926B0110926A0160E083E00E9420
:100AE000F10160E082E00E94F10110927A0110921F
:100AF0007B0110927C0110927D01809115019091F3
:100B000016019093140180931301089510927A01B5
:100B100010927B0110927C0110927D0181E090E0A7
:100B200090936B0180936A01809111019091120161
:100B30008130910519F0029779F0089560E082E024
:100B40000E94F1018091070190910801892B89F0A1
:100B500061E083E00C94F10160E083E00E94F10128
:100B60008091070190910801892B19F061E082E0E2
:100B7000F1CF08958091090190910A01813091058A
:100B800021F18230910531F1892BF1F4609113014B
:100B900070911401072E000C880B990B0E941327EB
:100BA0009B01AC0160E070E080EF92E40E94692656
:100BB00020E030E040EF51E40E949F270E94DB26B6
:100BC0007093520160935101089510925201109256
:100BD000510108956091130170911401072E000CCA
:100BE000880B990B0E9413279B01AC0160E070E019
:100BF00080EF92E40E94692620E030E040E751E473
:100C0000DBCF8091090190910A018130910521F19A
:100C10008230910531F1892BF1F4609113017091CB
:100C20001401072E000C880B990B0E9413279B01BF
:100C3000AC0160E070E080EF92E40E94692620E061
:100C400030E040E251E40E949F270E94DB2670932F
:100C5000500160934F0108951092500110924F017E
:100C600008956091130170911401072E000C880BF8
:100C7000990B0E9413279B01AC0160E070E080EFAC
:100C800092E40E94692620E030E040EA50E4DBCFA5
:100C900080914B0290914C02FC01EE0FFF1FED572B
:100CA000FE4F21E020832DE22183019684369105B9
:100CB000CCF490934C0280934B0280914B02909124
:100CC0004C02FC01EE0FFF1FED57FE4F10822AE091
:100CD000218301968436910554F490934C028093BD
:100CE0004B02089510924C0210924B02E6CF1092E4
:100CF0004C0210924B0208959FEB980F9A3108F422
:100D0000805EECE9E80FE73108F066C00E2E000CBB
:100D1000FF0BE357F94F0C942028A406EC06A60617
:100D2000EC06B006C906D606EC06EC06EC06EC06A8
:100D3000EC06EC06EC06EC06E006EC06EC06EC062F
:100D4000EC06DC06CF06E6060C94480680911301FB
:100D500090911401029690931401809313010895C9
:100D600080914B0290914C02FC01EE0FFF1FED575A
:100D7000FE4F108211820196843691052CF49093D7
:100D80004C0280934B02089510924C0210924B0239
:100D900008958091110190911201019769F461E029
:100DA00089E00E94F10160E08AE008C080911101B1
:100DB00090911201019799F760E089E00C94F1019C
:100DC00080911301909114010297C5CF61E089E0F1
:100DD0000E94F10161E0E8CF089580914B0290916B
:100DE0004C02FC01EE0FFF1FED57FE4F21E0208368
:100DF0002EE12183019684369105CCF490934C0228
:100E000080934B0280914B0290914C02FC01EE0FBB
:100E1000FF1FED57FE4F10822AE021830196843692
:100E2000910554F490934C0280934B0208951092D4
:100E30004C0210924B02E6CF10924C0210924B02E1
:100E4000089580914B0290914C02FC01EE0FFF1F20
:100E5000ED57FE4F21E020832AE02183019684365E
:100E60009105CCF490934C0280934B0280914B02FD
:100E700090914C02FC01EE0FFF1FED57FE4F1082C8
:100E80002AE0218301968436910554F490934C0214
:100E900080934B02089510924C0210924B02E6CFC1
:100EA00010924C0210924B0208950E94412520E1BD
:100EB00030E040E050E00E949925DC01CB018096B3
:100EC000A11DB11D08950E94412523E030E040E0BE
:100ED00050E00E949925DC01CB010996A11DB11DAE
:100EE00008950E94412524E030E040E050E00E9457
:100EF0009925DC01CB010796A11DB11D0895CF9363
:100F000040911703509118038091190390911A038F
:100F100048175907A9F0FC01E15BFD4FC08101961C
:100F2000883C91057CF490931A0380931903809177
:100F30004C01882361F08C2F0E947C0610924C019A
:100F4000CF91089510921A0310921903F0CFCB336A
:100F500001F52091190330911A0342175307A9F0A4
:100F6000F901E15BFD4F80812F5F3F4F283C310548
:100F70003CF430931A0320931903CF910C947C0610
:100F800010921A0310921903F8CF81E080934C015C
:100F9000D7CF8091210190912201909301018093FC
:100FA000000180916A0190916B01892B91F40E945C
:100FB000860580910F019091100190935E018093BE
:100FC0005D01809115019091160190931401809319
:100FD00013018FEB8C0F8A3108F4C05E8091810180
:100FE00090918201E0EEEC0F019711F00C94021B3E
:100FF000EB3508F079C00E2E000CFF0BEE5FF74FBB
:101000000C9420285D08D0087408740874087408CB
:10101000D5087408740874087408BB08A108DC08B3
:101020009608DF08B519AF13AD14C3157516481728
:10103000DE17F5174918DC1874087408C408C908C5
:101040007408AE0874087408740874087408740886
:1010500074087408740874087408740874087408B0
:1010600074087408740874087408740874087408A0
:101070007408740874087408740874087408740890
:101080005D085D087408E2083209160AAB0AF10A25
:10109000140B960BC00B6F0C9B0C710DB70D210E32
:1010A0005B0EB50E280F7C0FE60F43102009A01031
:1010B0006D10C610661165120A1380914B02909153
:1010C0004C02FC01EE0FFF1FED57FE4F1082118204
:1010D000019690934C0280934B028436910524F044
:1010E00010924C0210924B0280914B0290914C0254
:1010F000FC01EE0FFF1FED57FE4F22E020832EE193
:101100002183019690934C0280934B028436910583
:1011100024F010924C0210924B0280910D0190919C
:101120000E0190935401809353010ACF0E9421072E
:101130000E94ED060E9421070E94ED060E942107F1
:101140000AC00E94ED060E94ED060E9421070E943F
:1011500021070E94ED060E94ED06C6CF0E942107DE
:101160000E9421070E94ED060E94ED060E942107C1
:101170000E942107B9CF0E9421070E94ED060E941C
:1011800021070E94ED06F4CF0E9421070E9421074B
:10119000D1CF0E94ED060E9421070E942107CECFE9
:1011A0000E9421070E942107EACF0E9421070E9486
:1011B000ED060E942107DACF0E94480695CF0E94D3
:1011C000ED06F0CFE0914B02F0914C02EE0FFF1FC5
:1011D000ED57FE4F81E080830E94630720914B0210
:1011E00030914C02F901EE0FFF1FED57FE4F818346
:1011F0002F5F3F4F2436310584F530934C02209306
:101200004B02E0914B02F0914C02EE0FFF1FED57A5
:10121000FE4F10820E94710720914B0230914C02C8
:10122000F901EE0FFF1FED57FE4F81832F5F3F4FF8
:10123000243631050CF007C630934C0220934B0244
:10124000E0914B02F0914C02EE0FFF1FED57FE4F65
:1012500081E080830E9455076EC510924C02109267
:101260004B02CFCFE0914B02F0914C02EE0FFF1FEB
:10127000ED57FE4F81E080830E94550720914B027D
:1012800030914C02F901EE0FFF1FED57FE4F8183A5
:101290002F5F3F4F243631050CF0AFC030934C0226
:1012A00020934B02E0914B02F0914C02EE0FFF1F96
:1012B000ED57FE4F10820E94710720914B02309132
:1012C0004C02F901EE0FFF1FED57FE4F81832F5F98
:1012D0003F4F243631050CF095C030934C022093DB
:1012E0004B02E0914B02F0914C02EE0FFF1FED57C5
:1012F000FE4F81E080830E94630720914B02309172
:101300004C02F901EE0FFF1FED57FE4F81832F5F57
:101310003F4F243631050CF07AC030934C022093B5
:101320004B02E0914B02F0914C02EE0FFF1FED5784
:10133000FE4F10820E94710720914B0230914C02A7
:10134000F901EE0FFF1FED57FE4F81832F5F3F4FD7
:10135000243631050CF060C030934C0220934B02D0
:10136000E0914B02F0914C02EE0FFF1FED57FE4F44
:1013700081E080830E94630720914B0230914C02F0
:10138000F901EE0FFF1FED57FE4F81832F5F3F4F97
:10139000243631050CF045C030934C0220934B02AB
:1013A000E0914B02F0914C02EE0FFF1FED57FE4F04
:1013B00010820E94710720914B0230914C02F9017A
:1013C000EE0FFF1FED57FE4F81832F5F3F4F2436F7
:1013D000310514F00C94A91930934C0220934B0260
:1013E000E0914B02F0914C02EE0FFF1FED57FE4FC4
:1013F00081E080830E9463074AC310924C021092DE
:101400004B0250CF10924C0210924B026ACF1092B6
:101410004C0210924B0285CF10924C0210924B025C
:101420009FCF10924C0210924B02BACFE0914B0228
:10143000F0914C02EE0FFF1FED57FE4F81E08083CD
:101440000E94550720914B0230914C02F901EE0F9A
:10145000FF1FED57FE4F81832F5F3F4F243631052D
:101460000CF06FC030934C0220934B0280914B02E2
:1014700090914C02FC01EE0FFF1FED57FE4F1082C2
:1014800026E021830196843691050CF05FC090938D
:101490004C0280934B02E0914B02F0914C02EE0F14
:1014A000FF1FED57FE4F81E080830E94630720916C
:1014B0004B0230914C02F901EE0FFF1FED57FE4F2A
:1014C00081832F5F3F4F243631050CF00BC53093DD
:1014D0004C0220934B0280914B0290914C02FC01F4
:1014E000EE0FFF1FED57FE4F108227E0218301967C
:1014F000843691050CF0FBC490934C0280934B0210
:10150000E0914B02F0914C02EE0FFF1FED57FE4FA2
:1015100081E080830E94550720914B0230914C025C
:10152000F901EE0FFF1FED57FE4F81832F5F3F4FF5
:10153000243631050CF0C7C530934C0220934B0282
:10154000DFC010924C0210924B0290CF10924C02CE
:1015500010924B02A0CFE0914B02F0914C02EE0FA3
:10156000FF1FED57FE4F81E080830E9455072091B9
:101570004B0230914C02F901EE0FFF1FED57FE4F69
:1015800081832F5F3F4F2436310534F530934C0271
:1015900020934B0280914B0290914C02FC01EE0F84
:1015A000FF1FED57FE4F108226E0218301968436FF
:1015B00091050CF083C590934C0280934B02E0910F
:1015C0004B02F0914C02EE0FFF1FED57FE4F81E0F2
:1015D00080830E946307A0CF10924C0210924B02AE
:1015E000D9CF80914B0290914C02FC01EE0FFF1F6E
:1015F000ED57FE4F21E0208327E0218301968436BA
:1016000091050CF065C590934C0280934B0280913C
:101610004B0290914C02FC01EE0FFF1FED57FE4F65
:10162000108227E0218354CD80914B0290914C028F
:10163000FC01EE0FFF1FED57FE4F21E0208327E056
:1016400021830196843691050CF066C090934C027C
:1016500080934B0280914B0290914C02FC01EE0F63
:10166000FF1FED57FE4F108226E02183019684363E
:1016700091050CF056C090934C0280934B028091E0
:101680004B0290914C02FC01EE0FFF1FED57FE4FF5
:1016900021E0208328E021830196843691050CF017
:1016A00065C090934C0280934B0280914B029091C5
:1016B0004C02FC01EE0FFF1FED57FE4F108227E09A
:1016C00021830196843691050CF055C090934C020D
:1016D00080934B0280914B0290914C02FC01EE0FE3
:1016E000FF1FED57FE4F21E020832DE2218301965D
:1016F000843691050CF0E7C490934C0280934B0222
:1017000080914B0290914C02FC01EE0FFF1FED57B0
:10171000FE4F108227E0BEC010924C0210924B0286
:1017200099CF10924C0210924B02A9CFE0914B023C
:10173000F0914C02EE0FFF1FED57FE4F81E08083CA
:101740000E94550720914B0230914C02F901EE0F97
:10175000FF1FED57FE4F81832F5F3F4F243631052A
:101760002CF430934C0220934B029FCF10924C02EA
:1017700010924B029ACF10924C0210924B02AACFB9
:1017800080914B0290914C02FC01EE0FFF1FED5730
:10179000FE4F21E0208329E02183019684369105C4
:1017A0000CF084C090934C0280934B0280914B02CA
:1017B00090914C02FC01EE0FFF1FED57FE4F10827F
:1017C00026E021830196843691050CF074C0909335
:1017D0004C0280934B02E0914B02F0914C02EE0FD1
:1017E000FF1FED57FE4F81E080830E946307209129
:1017F0004B0230914C02F901EE0FFF1FED57FE4FE7
:1018000081832F5F3F4F243631050CF059C0309350
:101810004C0220934B0280914B0290914C02FC01B0
:10182000EE0FFF1FED57FE4F108226E02183019639
:10183000843691050CF049C090934C0280934B0282
:10184000E0914B02F0914C02EE0FFF1FED57FE4F5F
:1018500081E080830E94630720914B0230914C020B
:10186000F901EE0FFF1FED57FE4F81832F5F3F4FB2
:10187000243631057CF530934C0220934B02809145
:101880004B0290914C02FC01EE0FFF1FED57FE4FF3
:10189000108226E0218301968436910514F00C9481
:1018A000A91990934C0280934B029ACD10924C024E
:1018B00010924B027BCF10924C0210924B028BCFB6
:1018C00010924C0210924B02A6CF10924C02109232
:1018D0004B02B6CF10924C0210924B02D0CFE09147
:1018E0004B02F0914C02EE0FFF1FED57FE4F81E0CF
:1018F00080830E94630720914B0230914C02F901D2
:10190000EE0FFF1FED57FE4F81832F5F3F4F2436B1
:1019100031050CF0AEC330934C0220934B02809102
:101920004B0290914C02FC01EE0FFF1FED57FE4F52
:10193000108227E0EAC1E0914B02F0914C02EE0FD9
:10194000FF1FED57FE4F81E080830E9463072091C7
:101950004B0230914C02F901EE0FFF1FED57FE4F85
:1019600081832F5F3F4F243631050CF0A6C03093A2
:101970004C0220934B0280914B0290914C02FC014F
:10198000EE0FFF1FED57FE4F108226E021830196D8
:10199000843691050CF096C090934C0280934B02D4
:1019A000E0914B02F0914C02EE0FFF1FED57FE4FFE
:1019B00081E080830E94550720914B0230914C02B8
:1019C000F901EE0FFF1FED57FE4F81832F5F3F4F51
:1019D000243631050CF07BC030934C0220934B022F
:1019E00080914B0290914C02FC01EE0FFF1FED57CE
:1019F000FE4F108227E021830196843691050CF07A
:101A00006BC090934C0280934B02E0914B02F0919B
:101A10004C02EE0FFF1FED57FE4F81E080830E94C6
:101A2000550720914B0230914C02F901EE0FFF1F38
:101A3000ED57FE4F81832F5F3F4F243631050CF069
:101A4000A0C330934C0220934B0280914B029091A3
:101A50004C02FC01EE0FFF1FED57FE4F108227E0F6
:101A6000218301968436910514F00C9442179093CB
:101A70004C0280934B02E0914B02F0914C02EE0F2E
:101A8000FF1FED57FE4F81E080830E945507209194
:101A90004B0230914C02F901EE0FFF1FED57FE4F44
:101AA00081832F5F3F4F2436310514F00C94AF191A
:101AB00030934C0220934B02E9C310924C021092D7
:101AC0004B0259CF10924C0210924B0269CF1092E8
:101AD0004C0210924B0284CF10924C0210924B0297
:101AE00094CFE0914B02F0914C02EE0FFF1FED57A7
:101AF000FE4F81E080830E94550720914B02309178
:101B00004C02F901EE0FFF1FED57FE4F81832F5F4F
:101B10003F4F2436310534F530934C0220934B026D
:101B200080914B0290914C02FC01EE0FFF1FED578C
:101B3000FE4F108226E021830196843691050CF039
:101B40001BC390934C0280934B02E0914B02F091A7
:101B50004C02EE0FFF1FED57FE4F81E080830E9485
:101B600063075FCF10924C0210924B02D9CFE091E5
:101B70004B02F0914C02EE0FFF1FED57FE4F81E03C
:101B800080830E94630720914B0230914C02F9013F
:101B9000EE0FFF1FED57FE4F81832F5F3F4F24361F
:101BA00031050CF044C030934C0220934B028091DD
:101BB0004B0290914C02FC01EE0FFF1FED57FE4FC0
:101BC000108226E02183019684369105ACF590932E
:101BD0004C0280934B02E0914B02F0914C02EE0FCD
:101BE000FF1FED57FE4F81E080830E945507209133
:101BF0004B0230914C02F901EE0FFF1FED57FE4FE3
:101C000081832F5F3F4F243631050CF052C2309351
:101C10004C0220934B0280914B0290914C02FC01AC
:101C2000EE0FFF1FED57FE4F108227E0BECC109243
:101C30004C0210924B02BBCF10924C0210924B02FE
:101C4000CACFE0914B02F0914C02EE0FFF1FED570F
:101C5000FE4F81E080830E94550720914B02309116
:101C60004C02F901EE0FFF1FED57FE4F81832F5FEE
:101C70003F4F24363105D4F430934C0220934B026D
:101C800080914B0290914C02FC01EE0FFF1FED572B
:101C9000FE4F108226E021830196843691050CF0D8
:101CA000D2C090934C0280934B02CACA10924C024D
:101CB00010924B02E5CFE0914B02F0914C02EE0FF7
:101CC000FF1FED57FE4F81E080830E945507209152
:101CD0004B0230914C02F901EE0FFF1FED57FE4F02
:101CE00081832F5F3F4F24363105D4F530934C026A
:101CF00020934B0280914B0290914C02FC01EE0F1D
:101D0000FF1FED57FE4F108226E021830196843697
:101D100091050CF0B3C190934C0280934B02E0917B
:101D20004B02F0914C02EE0FFF1FED57FE4F81E08A
:101D300080830E94630720914B0230914C02F9018D
:101D4000EE0FFF1FED57FE4F81832F5F3F4F24366D
:101D500031050CF0BDC130934C0220934B0257CC9F
:101D600010924C0210924B02C5CFE0914B02F091C1
:101D70004C02EE0FFF1FED57FE4F81E080830E9463
:101D8000550720914B0230914C02F901EE0FFF1FD5
:101D9000ED57FE4F81832F5F3F4F243631050CF006
:101DA00043C030934C0220934B0280914B029091A0
:101DB0004C02FC01EE0FFF1FED57FE4F108226E094
:101DC0002183019684369105A4F590934C0280936B
:101DD0004B02E0914B02F0914C02EE0FFF1FED57CA
:101DE000FE4F81E080830E94550720914B02309185
:101DF0004C02F901EE0FFF1FED57FE4F81832F5F5D
:101E00003F4F24363105D4F430934C0220934B02DB
:101E100080914B0290914C02FC01EE0FFF1FED5799
:101E2000FE4F108227E037CF10924C0210924B02E7
:101E3000BCCF10924C0210924B02CBCF10924C02AE
:101E400010924B02E5CF10924C0210924B02F8C94F
:101E5000E0914B02F0914C02EE0FFF1FED57FE4F49
:101E600081E080830E94630720914B0230914C02F5
:101E7000F901EE0FFF1FED57FE4F81832F5F3F4F9C
:101E8000243631052CF530934C0220934B0280917F
:101E90004B0290914C02FC01EE0FFF1FED57FE4FDD
:101EA000108226E02183019684369105B4F4909344
:101EB0004C0280934B02E0914B02F0914C02EE0FEA
:101EC000FF1FED57FE4F81E080830E945507EFCA48
:101ED00010924C0210924B02DACF10924C021092E8
:101EE0004B02E9CF10924C0210924B02F4CA1092AE
:101EF0004C0210924B0204CBE0914B02F0914C0249
:101F0000EE0FFF1FED57FE4F81E080830E945507C3
:101F100020914B0230914C02F901EE0FFF1FED575B
:101F2000FE4F81832F5F3F4F243631050CF044C0B4
:101F300030934C0220934B0280914B0290914C02C3
:101F4000FC01EE0FFF1FED57FE4F108226E02183AC
:101F5000019684369105ACF590934C0280934B0228
:101F6000E0914B02F0914C02EE0FFF1FED57FE4F38
:101F700081E080830E94550720914B0230914C02F2
:101F8000F901EE0FFF1FED57FE4F81832F5F3F4F8B
:101F9000243631050CF0EBC030934C0220934B02F9
:101FA00080914B0290914C02FC01EE0FFF1FED5708
:101FB000FE4F108227E0BFCD10924C0210924B02D0
:101FC000BBCF10924C0210924B02CACFE0914B0251
:101FD000F0914C02EE0FFF1FED57FE4F81E0808322
:101FE0000E94630720914B0230914C02F901EE0FE1
:101FF000FF1FED57FE4F81832F5F3F4F2436310582
:1020000074F530934C0220934B0280914B029091D7
:102010004C02FC01EE0FFF1FED57FE4F108226E031
:102020002183019684369105FCF490934C028093B1
:102030004B0280914B0290914C02FC01EE0FFF1F6E
:10204000ED57FE4F21E020832DE221830196843657
:1020500091057CF490934C0280934B0260CC1092DB
:102060004C0210924B02D1CF10924C0210924B02B4
:10207000E0CF10924C0210924B0251CC10924C02C5
:1020800010924B024CCE80914B0290914C02FC017D
:10209000EE0FFF1FED57FE4F21E0208329E0218343
:1020A0000196843691052CF490934C0280934B0258
:1020B000B2CD10924C0210924B02ADCD10924C0258
:1020C00010924B027CCA10924C0210924B0218CB19
:1020D00010924C0210924B029ACAE0914B02F0917E
:1020E0004C02EE0FFF1FED57FE4F81E080830E94F0
:1020F000630720914B0230914C02F901EE0FFF1F54
:10210000ED57FE4F81832F5F3F4F243631052CF56D
:1021100030934C0220934B0280914B0290914C02E1
:10212000FC01EE0FFF1FED57FE4F108227E02183C9
:10213000019684369105B4F490934C0280934B023F
:10214000E0914B02F0914C02EE0FFF1FED57FE4F56
:1021500081E080830E9463070FCF10924C0210929F
:102160004B02DACF10924C0210924B02E9CF109240
:102170004C0210924B0214CF10924C0210924B0260
:10218000E4CC10924C0210924B025FCCE0914B02D7
:10219000F0914C02EE0FFF1FED57FE4F81E0808360
:1021A0000E94630720914B0230914C02F901EE0F1F
:1021B000FF1FED57FE4F81832F5F3F4F24363105C0
:1021C0000CF070C030934C0220934B0280914B0274
:1021D00090914C02FC01EE0FFF1FED57FE4F108255
:1021E00027E021830196843691050CF060C090931E
:1021F0004C0280934B02E0914B02F0914C02EE0FA7
:10220000FF1FED57FE4F81E080830E94550720910C
:102210004B0230914C02F901EE0FFF1FED57FE4FBC
:1022200081832F5F3F4F243631050CF045C030933A
:102230004C0220934B0280914B0290914C02FC0186
:10224000EE0FFF1FED57FE4F108227E0218301960E
:1022500084369105B4F590934C0280934B028091A3
:102260004B0290914C02FC01EE0FFF1FED57FE4F09
:1022700021E020832CE2218301968436910514F01D
:102280000C94AF1990934C0280934B0280914B02B7
:1022900090914C02FC01EE0FFF1FED57FE4F108294
:1022A00028E0C0C910924C0210924B028FCF1092BE
:1022B0004C0210924B029FCF10924C0210924B0294
:1022C000BACF10924C0210924B02C9CF80914B02B0
:1022D00090914C02FC01EE0FFF1FED57FE4F21E0E5
:1022E000208323E221830196843691050CF0CFC030
:1022F00090934C0280934B0280914B0290914C0240
:10230000FC01EE0FFF1FED57FE4F108227E02183E7
:102310000196843691050CF0BFC090934C028093D7
:102320004B02E0914B02F0914C02EE0FFF1FED5774
:10233000FE4F81E080830E94630720914B02309121
:102340004C02F901EE0FFF1FED57FE4F81832F5F07
:102350003F4F243631050CF0A4C030934C0220933B
:102360004B0280914B0290914C02FC01EE0FFF1F3B
:10237000ED57FE4F108227E02183019684369105A8
:102380000CF094C090934C0280934B02E0914B026E
:10239000F0914C02EE0FFF1FED57FE4F81E080835E
:1023A0000E94630720914B0230914C02F901EE0F1D
:1023B000FF1FED57FE4F81832F5F3F4F24363105BE
:1023C0000CF079C030934C0220934B02E0914B0209
:1023D000F0914C02EE0FFF1FED57FE4F10820E944E
:1023E000630720914B0230914C02F901EE0FFF1F61
:1023F000ED57FE4F81832F5F3F4F243631050CF0A0
:102400005FC030934C0220934B02E0914B02F0915D
:102410004C02EE0FFF1FED57FE4F81E080830E94BC
:10242000550720914B0230914C02F901EE0FFF1F2E
:10243000ED57FE4F81832F5F3F4F243631050CF05F
:102440009DC330934C0220934B02E0914B02F091DC
:102450004C02EE0FFF1FED57FE4F10820E946307E4
:1024600020914B0230914C02F901EE0FFF1FED5706
:10247000FE4F81832F5F3F4F30934C0220934B02DE
:102480002436310514F00C9470080C9474081092E2
:102490004C0210924B0230CF10924C0210924B0221
:1024A00040CF10924C0210924B025BCF10924C0224
:1024B00010924B026BCF10924C0210924B0286CFBF
:1024C00010924C0210924B02A0CFE0914B02F0917F
:1024D0004C02EE0FFF1FED57FE4F81E080830E94FC
:1024E000550720914B0230914C02F901EE0FFF1F6E
:1024F000ED57FE4F81832F5F3F4F243631050CF09F
:102500007AC030934C0220934B0280914B02909101
:102510004C02FC01EE0FFF1FED57FE4F108227E02B
:1025200021830196843691050CF06AC090934C0289
:1025300080934B02E0914B02F0914C02EE0FFF1F93
:10254000ED57FE4F81E080830E94630720914B028C
:1025500030914C02F901EE0FFF1FED57FE4F8183C2
:102560002F5F3F4F243631050CF04FC030934C02A3
:1025700020934B0280914B0290914C02FC01EE0F94
:10258000FF1FED57FE4F108227E02183019684360E
:1025900091050CF0A5C390934C0280934B02E091FF
:1025A0004B02F0914C02EE0FFF1FED57FE4F81E002
:1025B00080830E94550720914B0230914C02F90113
:1025C000EE0FFF1FED57FE4F81832F5F3F4F2436E5
:1025D00031050CF052C430934C0220934B02809191
:1025E0004B0290914C02FC01EE0FFF1FED57FE4F86
:1025F000108228E035CA10924C0210924B0285CF0F
:1026000010924C0210924B0295CF10924C021092F5
:102610004B02B0CFE0914B02F0914C02EE0FFF1F46
:10262000ED57FE4F81E080830E94550720914B02B9
:1026300030914C02F901EE0FFF1FED57FE4F8183E1
:102640002F5F3F4F243631050CF07AC030934C0297
:1026500020934B0280914B0290914C02FC01EE0FB3
:10266000FF1FED57FE4F108227E02183019684362D
:1026700091050CF06AC090934C0280934B02E0915C
:102680004B02F0914C02EE0FFF1FED57FE4F81E021
:1026900080830E94550720914B0230914C02F90132
:1026A000EE0FFF1FED57FE4F81832F5F3F4F243604
:1026B00031050CF04FC030934C0220934B028091B7
:1026C0004B0290914C02FC01EE0FFF1FED57FE4FA5
:1026D000108227E021830196843691050CF067C5AE
:1026E00090934C0280934B02E0914B02F0914C028C
:1026F000EE0FFF1FED57FE4F81E080830E946307BE
:1027000020914B0230914C02F901EE0FFF1FED5763
:10271000FE4F81832F5F3F4F243631050CF014C6E6
:1027200030934C0220934B0280914B0290914C02CB
:10273000FC01EE0FFF1FED57FE4F108228E0AAC8E4
:1027400010924C0210924B0285CF10924C021092C4
:102750004B0295CF10924C0210924B02B0CF809159
:102760004B0290914C02FC01EE0FFF1FED57FE4F04
:1027700021E0208329E021830196843691050CF025
:10278000C4C090934C0280934B02E0914B02F091B5
:102790004C02EE0FFF1FED57FE4F10820E946307A1
:1027A00020914B0230914C02F901EE0FFF1FED57C3
:1027B000FE4F81832F5F3F4F243631050CF0AAC0B6
:1027C00030934C0220934B0280914B0290914C022B
:1027D000FC01EE0FFF1FED57FE4F21E0208323E2A7
:1027E00021830196843691050CF099C090934C0298
:1027F00080934B0280914B0290914C02FC01EE0FB2
:10280000FF1FED57FE4F108227E02183019684368B
:1028100091050CF089C090934C0280934B028091FB
:102820004B0290914C02FC01EE0FFF1FED57FE4F43
:1028300021E0208323E221830196843691050CF068
:1028400078C090934C0280934B02E0914B02F09140
:102850004C02EE0FFF1FED57FE4F10820E946307E0
:1028600020914B0230914C02F901EE0FFF1FED5702
:10287000FE4F81832F5F3F4F243631050CF05EC041
:1028800030934C0220934B02E0914B02F0914C02AA
:10289000EE0FFF1FED57FE4F81E080830E9455072A
:1028A00020914B0230914C02F901EE0FFF1FED57C2
:1028B000FE4F81832F5F3F4F243631050CF043C01C
:1028C00030934C0220934B0280914B0290914C022A
:1028D000FC01EE0FFF1FED57FE4F108228E0218311
:1028E000019684369105A4F590934C0280934B0297
:1028F00080914B0290914C02FC01EE0FFF1FED57AF
:10290000FE4F21E020832DE2B6CC10924C021092B3
:102910004B023BCF10924C0210924B0255CF1092BB
:102920004C0210924B0266CF10924C0210924B0256
:1029300076CF10924C0210924B0287CF10924C022D
:1029400010924B02A1CF10924C0210924B02BCCFBE
:1029500010924C0210924B02CBCF80914B0290917F
:102960004C02FC01EE0FFF1FED57FE4F21E02083CC
:1029700029E021830196843691050CF0D7C090930D
:102980004C0280934B0280914B0290914C02FC01CF
:10299000EE0FFF1FED57FE4F108229E021830196B5
:1029A000843691050CF0C7C090934C0280934B0283
:1029B000E0914B02F0914C02EE0FFF1FED57FE4FDE
:1029C00081E080830E94630720914B0230914C028A
:1029D000F901EE0FFF1FED57FE4F81832F5F3F4F31
:1029E000243631050CF0ACC030934C0220934B02DE
:1029F00080914B0290914C02FC01EE0FFF1FED57AE
:102A0000FE4F108229E021830196843691050CF057
:102A10009CC090934C0280934B02E0914B02F0914A
:102A20004C02EE0FFF1FED57FE4F81E080830E94A6
:102A3000550720914B0230914C02F901EE0FFF1F18
:102A4000ED57FE4F81832F5F3F4F243631050CF049
:102A500081C030934C0220934B0280914B029091A5
:102A60004C02FC01EE0FFF1FED57FE4F108228E0D5
:102A700021830196843691050CF071C090934C022D
:102A800080934B02E0914B02F0914C02EE0FFF1F3E
:102A9000ED57FE4F81E080830E94550720914B0245
:102AA00030914C02F901EE0FFF1FED57FE4F81836D
:102AB0002F5F3F4F243631050CF056C030934C0247
:102AC00020934B02E0914B02F0914C02EE0FFF1F5E
:102AD000ED57FE4F10820E94630720914B02309108
:102AE0004C02F901EE0FFF1FED57FE4F81832F5F60
:102AF0003F4F24363105ECF530934C0220934B02C6
:102B000080914B0290914C02FC01EE0FFF1FED579C
:102B1000FE4F21E020832DE221830196843691052A
:102B20006CF590934C0280934B028FCC10924C0228
:102B300010924B0228CF10924C0210924B0238CFC9
:102B400010924C0210924B0253CF10924C021092F2
:102B50004B0263CF10924C0210924B027ECF109228
:102B60004C0210924B028ECF10924C0210924B02EC
:102B7000A9CF10924C0210924B02C2CF10924C027D
:102B800010924B0262CCE0914B02F0914C02EE0F9E
:102B9000FF1FED57FE4F81E080830E946307209165
:102BA0004B0230914C02F901EE0FFF1FED57FE4F23
:102BB00081832F5F3F4F243631050CF078C030936E
:102BC0004C0220934B0280914B0290914C02FC01ED
:102BD000EE0FFF1FED57FE4F108227E02183019675
:102BE000843691050CF068C090934C0280934B02A0
:102BF000E0914B02F0914C02EE0FFF1FED57FE4F9C
:102C000081E080830E94630720914B0230914C0247
:102C1000F901EE0FFF1FED57FE4F81832F5F3F4FEE
:102C2000243631050CF04DC030934C0220934B02FA
:102C300080914B0290914C02FC01EE0FFF1FED576B
:102C4000FE4F108227E02183019684369105F4F52A
:102C500090934C0280934B02E0914B02F0914C0216
:102C6000EE0FFF1FED57FE4F81E080830E94630748
:102C700020914B0230914C02F901EE0FFF1FED57EE
:102C8000FE4F81832F5F3F4F2436310524F530936B
:102C90004C0220934B0280914B0290914C02FC011C
:102CA000EE0FFF1FED57FE4F108228E06ECC109202
:102CB0004C0210924B0287CF10924C0210924B02A2
:102CC00097CF10924C0210924B02B2CF10924C024E
:102CD00010924B02C1CF10924C0210924B02DBCFEC
:102CE00010924C0210924B025ACCE0914B02F091A0
:102CF0004C02EE0FFF1FED57FE4F81E080830E94D4
:102D0000630720914B0230914C02F901EE0FFF1F37
:102D1000ED57FE4F81832F5F3F4F243631050CF076
:102D20008EC030934C0220934B0280914B029091C5
:102D30004C02FC01EE0FFF1FED57FE4F108227E003
:102D400021830196843691050CF07EC090934C024D
:102D500080934B02E0914B02F0914C02EE0FFF1F6B
:102D6000ED57FE4F81E080830E94630720914B0264
:102D700030914C02F901EE0FFF1FED57FE4F81839A
:102D80002F5F3F4F243631050CF063C030934C0267
:102D900020934B0280914B0290914C02FC01EE0F6C
:102DA000FF1FED57FE4F108227E0218301968436E6
:102DB00091050CF053C090934C0280934B02E0912C
:102DC0004B02F0914C02EE0FFF1FED57FE4F81E0DA
:102DD00080830E94630720914B0230914C02F901DD
:102DE000EE0FFF1FED57FE4F81832F5F3F4F2436BD
:102DF0003105CCF530934C0220934B0280914B026D
:102E000090914C02FC01EE0FFF1FED57FE4F108218
:102E100028E0218301968436910554F590934C0265
:102E200080934B02E0914B02F0914C02EE0FFF1F9A
:102E3000ED57FE4F81E080830E946307BCCB109268
:102E40004C0210924B0271CF10924C0210924B0226
:102E500081CF10924C0210924B029CCF10924C02E8
:102E600010924B02ACCF10924C0210924B02C6CF84
:102E700010924C0210924B02D5CF10924C0210923D
:102E80004B02ADCB10924C0210924B020C943B0DB6
:102E9000E0914B02F0914C02EE0FFF1FED57FE4FF9
:102EA00081E080830E94630720914B0230914C02A5
:102EB000F901EE0FFF1FED57FE4F81832F5F3F4F4C
:102EC000243631050CF087C030934C0220934B021E
:102ED00080914B0290914C02FC01EE0FFF1FED57C9
:102EE000FE4F108227E021830196843691050CF075
:102EF00077C090934C0280934B02E0914B02F0918B
:102F00004C02EE0FFF1FED57FE4F81E080830E94C1
:102F1000630720914B0230914C02F901EE0FFF1F25
:102F2000ED57FE4F81832F5F3F4F243631050CF064
:102F3000A6C030934C0220934B0280914B0290919B
:102F40004C02FC01EE0FFF1FED57FE4F108227E0F1
:102F500021830196843691050CF096C090934C0223
:102F600080934B02E0914B02F0914C02EE0FFF1F59
:102F7000ED57FE4F81E080830E94630720914B0252
:102F800030914C02F901EE0FFF1FED57FE4F818388
:102F90002F5F3F4F243631050CF004C130934C02B3
:102FA00020934B0280914B0290914C02FC01EE0F5A
:102FB000FF1FED57FE4F108228E08CCBE0914B02B3
:102FC000F0914C02EE0FFF1FED57FE4F81E0808322
:102FD0000E94550769CF10924C0210924B0278CF95
:102FE00010924C0210924B0288CFE0914B02F0916C
:102FF0004C02EE0FFF1FED57FE4F81E080830E94D1
:10300000550720914B0230914C02F901EE0FFF1F42
:10301000ED57FE4F81832F5F3F4F243631052CF54E
:1030200030934C0220934B0280914B0290914C02C2
:10303000FC01EE0FFF1FED57FE4F108227E02183AA
:10304000019684369105B4F490934C0280934B0220
:10305000E0914B02F0914C02EE0FFF1FED57FE4F37
:1030600081E080830E94550754CF10924C02109249
:103070004B02DACF10924C0210924B02E9CF109221
:103080004C0210924B0259CF10924C0210924B02FC
:1030900069CFE0914B02F0914C02EE0FFF1FED570C
:1030A000FE4F81E080830E94550720914B023091B2
:1030B0004C02F901EE0FFF1FED57FE4F81832F5F8A
:1030C0003F4F243631050CF059C030934C02209309
:1030D0004B0280914B0290914C02FC01EE0FFF1FBE
:1030E000ED57FE4F108227E021830196843691052B
:1030F0000CF049C090934C0280934B02E0914B023C
:10310000F0914C02EE0FFF1FED57FE4F81E08083E0
:103110000E94550720914B0230914C02F901EE0FAD
:10312000FF1FED57FE4F81832F5F3F4F2436310540
:103130007CF530934C0220934B0280914B0290918E
:103140004C02FC01EE0FFF1FED57FE4F108227E0EF
:10315000218301968436910504F590934C02809367
:103160004B02E0914B02F0914C02EE0FFF1FED5726
:10317000FE4F81E080830E94550700CF10924C02E1
:1031800010924B02A6CF10924C0210924B02B6CF77
:1031900010924C0210924B02D0CF10924C0210921F
:1031A0004B02DFCF10924C0210924B02FBCE1092DA
:1031B0004C0210924B0298CAE0914B02F0914C02E3
:1031C000EE0FFF1FED57FE4F81E080830E945507F1
:1031D00020914B0230914C02F901EE0FFF1FED5789
:1031E000FE4F81832F5F3F4F243631050CF08EC098
:1031F00030934C0220934B0280914B0290914C02F1
:10320000FC01EE0FFF1FED57FE4F108227E02183D8
:103210000196843691050CF07EC090934C02809309
:103220004B02E0914B02F0914C02EE0FFF1FED5765
:10323000FE4F81E080830E94550720914B02309120
:103240004C02F901EE0FFF1FED57FE4F81832F5FF8
:103250003F4F243631050CF063C030934C0220936D
:103260004B0280914B0290914C02FC01EE0FFF1F2C
:10327000ED57FE4F108227E0218301968436910599
:103280000CF053C090934C0280934B02E0914B02A0
:10329000F0914C02EE0FFF1FED57FE4F81E080834F
:1032A0000E94550720914B0230914C02F901EE0F1C
:1032B000FF1FED57FE4F81832F5F3F4F24363105AF
:1032C000CCF530934C0220934B0280914B029091AD
:1032D0004C02FC01EE0FFF1FED57FE4F108228E05D
:1032E000218301968436910554F590934C02809386
:1032F0004B02E0914B02F0914C02EE0FFF1FED5795
:10330000FE4F81E080830E945507FAC910924C025B
:1033100010924B0271CF10924C0210924B0281CF4F
:1033200010924C0210924B029CCF10924C021092C1
:103330004B02ACCF10924C0210924B02C6CF1092AF
:103340004C0210924B02D5CF10924C0210924B02BD
:10335000EBC910924C0210924B020C94F00910929F
:103360004C0210924B020C9446110E944125E091B0
:103370004B02F0914C02EE0FFF1FED57FE4F81E024
:1033800080830E94550720914B0230914C02F90135
:10339000EE0FFF1FED57FE4F81832F5F3F4F243607
:1033A00031050CF002C130934C0220934B02E091A6
:1033B0004B02F0914C02EE0FFF1FED57FE4F1082B3
:1033C0000E94710720914B0230914C02F901EE0FDF
:1033D000FF1FED57FE4F81832F5F3F4F243631058E
:1033E0000CF0E8C030934C0220934B02E0914B026A
:1033F000F0914C02EE0FFF1FED57FE4F81E08083EE
:103400000E94550720914B0230914C02F901EE0FBA
:10341000FF1FED57FE4F81832F5F3F4F243631054D
:103420000CF0CDC030934C0220934B02E0914B0244
:10343000F0914C02EE0FFF1FED57FE4F10820E94DD
:10344000710720914B0230914C02F901EE0FFF1FE2
:10345000ED57FE4F81832F5F3F4F243631050CF02F
:10346000B3C030934C0220934B02E0914B02F09199
:103470004C02EE0FFF1FED57FE4F81E080830E944C
:10348000550720914B0230914C02F901EE0FFF1FBE
:10349000ED57FE4F81832F5F3F4F243631050CF0EF
:1034A00098C030934C0220934B02E0914B02F09174
:1034B0004C02EE0FFF1FED57FE4F10820E94710766
:1034C00020914B0230914C02F901EE0FFF1FED5796
:1034D000FE4F81832F5F3F4F243631050CF07EC0B5
:1034E00030934C0220934B02E0914B02F0914C023E
:1034F000EE0FFF1FED57FE4F81E080830E945507BE
:1035000020914B0230914C02F901EE0FFF1FED5755
:10351000FE4F81832F5F3F4F243631050CF063C08F
:1035200030934C0220934B02E0914B02F0914C02FD
:10353000EE0FFF1FED57FE4F10820E947107209182
:103540004B0230914C02F901EE0FFF1FED57FE4F79
:1035500081832F5F3F4F243631050CF049C03093F3
:103560004C0220934B0280914B0290914C02FC0143
:10357000EE0FFF1FED57FE4F21E020832DE2218348
:10358000019684369105CCF590934C0280934B02C2
:10359000E0914B02F0914C02EE0FFF1FED57FE4FF2
:1035A00010820E9471070C94301210924C021092FB
:1035B0004B02FDCE10924C0210924B0217CF10928C
:1035C0004C0210924B0232CF10924C0210924B02DE
:1035D0004CCF10924C0210924B0267CF10924C02CB
:1035E00010924B0281CF10924C0210924B029CCF52
:1035F00010924C0210924B02B6CF10924C021092D5
:103600004B02C6CFEB3508F079C00E2E000CFF0B35
:10361000E45FF44E0C942028671BBC1B7E1B7E1BB2
:103620007E1B7E1BC11B7E1B7E1B7E1B7E1BA91B64
:10363000991BCA1B8C1BCD1BD01BD91BDC1BE11B90
:10364000E41BE71BEC1BEF1BF21BF51B7E1B7E1B19
:10365000B01BB51B7E1BA21B7E1B7E1B7E1B7E1B15
:103660007E1B7E1B7E1B7E1B7E1B7E1B7E1B7E1B92
:103670007E1B7E1B7E1B7E1B7E1B7E1B7E1B7E1B82
:103680007E1B7E1B7E1B7E1B7E1B7E1B7E1B7E1B72
:103690007E1B7E1B671B671B7E1B941BC31BAB1B08
:1036A000021CFD1BBE1BF91BE91BC71BDE1B921B6B
:1036B000001CD61BFB1BD41B051C081CAD1BC51B0B
:1036C000961BB91BB71B9F1B0B1C0E1CA61B8091C6
:1036D0004B0290914C02FC01EE0FFF1FED57FE4F85
:1036E00010821182019690934C0280934B02843693
:1036F000910524F010924C0210924B0280914B02E3
:1037000090914C02FC01EE0FFF1FED57FE4F22E09F
:10371000208324E10C9480080E9421070E94ED067A
:103720000E9421070E94ED060E9421070E94ED06DB
:10373000E5CF0E94ED060E94ED060E9421070E943F
:10374000210734C00E9421070E9421070E94ED0634
:1037500059C00E9421070E94ED060E9421074BC01C
:103760000E9421070E942107DBCF0E94ED060E94E4
:1037700021070E942107D8CF0E9421070E9421071C
:10378000ECCF0E9421070E94ED060E9421070E94B3
:10379000210733C00E944806B1CF0E94ED06EECF4C
:1037A0000E94ED060E94ED060E94ED060E94ED06C5
:1037B000BDCF0E942107F6CF0E9421070E9421075A
:1037C000F3CF0E942107B9CF0E942107D0CF0E94DA
:1037D00021070E942107D9CF0E94ED06FACF0E944F
:1037E000ED06D1CF0E94ED06B1CF0E94ED060E94FA
:1037F000ED060E94ED060E94ED060E9421077ECF95
:103800000E9421070E94ED06C2CF0E942107F1CF3E
:103810000E94ED0687CF0E94ED06ABCF0E94ED0619
:103820008ECFCF92DF92EF92FF920F931F93CF93A1
:10383000DF93C0910501D0910601C230D10509F492
:1038400081C48091510190915201181619062CF4EF
:103850000197909352018093510180914F01909173
:103860005001181619062CF401979093500180937B
:103870004F0180916A0190916B01892B09F0C3C0BF
:1038800080917A0190917B01A0917C01B0917D01A2
:10389000813422E492072FE0A207B10558F4019683
:1038A000A11DB11D80937A0190937B01A0937C01AF
:1038B000B0937D0180915F01882309F4ADC08091B0
:1038C0005D0190915E01181619060CF026C1019752
:1038D00090935E0180935D01C0910501D091060136
:1038E000C230D10509F42EC480915F01882309F408
:1038F000DDC180911D010E94C801019709F0D6C168
:1039000080915D0190915E01892B09F0CFC11092E9
:103910005F010E947D02609113017091140180EBA0
:1039200094E00E940C2820910B0130910C01629FC1
:10393000C001639F900D729F900D112490935C01C4
:1039400080935B0183E090E09093800180937F01FE
:1039500010925A0110925901C330D10509F44EC397
:1039600080911B0390911C03892B09F0DAC32197E6
:10397000A1F488E00E94C801892B09F0AAC38091B4
:103980001101909112018130910509F492C30297BF
:1039900009F498C381E080936C01C0916801D091D3
:1039A0006901D0936701C0936601C0906401D09013
:1039B0006501D0926901C0926801E0906201F090C7
:1039C0006301F0926501E092640100916001109141
:1039D0006101109363010093620188E00E94C801B5
:1039E0009093610180936001CC0DDD1DCE0DDF1D34
:1039F000C00FD11F8C0F9D1F21E0892B09F020E003
:103A000020937E01FBC210927A0110927B011092EA
:103A10007C0110927D014ECF80917F0190918001B9
:103A20008230910509F4A7C0D4F4009739F10197C9
:103A300009F052CF80915D0190915E011816190630
:103A40002CF4019790935E0180935D0180915D015C
:103A500090915E01181619060CF45FC072C0833095
:103A6000910509F4D1C0049709F036CFC330D105D0
:103A700009F44DC01092800110927F01239709F440
:103A800051C020914B0230914C0280914D02909197
:103A90004E022817390769F4209117033091180353
:103AA0008091190390911A032817390711F00E9489
:103AB0007F0720914B0230914C0280914D029091F2
:103AC0004E022817390709F441C0809105019091F1
:103AD0000601039741F461E088E00E944B0260E038
:103AE00088E00E94F10180910F0190911001181659
:103AF00019062CF590935E0180935D0181E090E0C2
:103B00009093800180937F010E948605E5CE88E036
:103B10000E94C801892B09F0ADCFC0910501D09159
:103B20000601E2CE88E00E94C801892B09F0A9CFE6
:103B300084E090E09093800180937F01CDCE0E943D
:103B400086050E94AC0482E090E0F4CF80911B03D4
:103B500090911C03892B09F0BFCE80916C018130BC
:103B600009F4BACE60E082E00E94F10160E083E0F7
:103B70000E94F101B1CE80914D0190914E01181635
:103B800019062CF4019790934E0180934D0180917A
:103B90004D0190914E01181619060CF4BECF2091DC
:103BA0004B0230914C0280914D0290914E022817A9
:103BB000390719F00E94AC048FCE10925A0110926E
:103BC00059012091170330911803809119039091A6
:103BD0001A032817390769F00E947F0720914D02C8
:103BE00030914E0280914B0290914C022817390778
:103BF00009F7809153019091540190935C01809357
:103C00005B0183E090E096CF20914B0230914C0213
:103C100080914D0290914E022817390709F091CFFB
:103C200020911703309118038091190390911A0382
:103C30002817390779F00E947F0720914D023091B3
:103C40004E0280914B0290914C022817390709F4DB
:103C500043CE77CF80915B0190915C0118161906D5
:103C60002CF4019790935C0180935B0180911B037E
:103C700090911C03892B09F050CF80915B019091AA
:103C80005C01181619060CF448CF239741F461E043
:103C900088E00E94F10162E088E00E944B020E94ED
:103CA00069051092800110927F0116CE80917F01EC
:103CB00090918001049709F44FCE80915901909121
:103CC0005A01892B81F4809158018823C1F10E9407
:103CD000210781E090E090935A018093590110925E
:103CE00058010E94010600911B0110911D01809155
:103CF000090190910A01039709F040C0802F0E94AA
:103D0000C801892B69F5812F0E94C801892B41F5D3
:103D10008091590190915A01892B09F01DCE809113
:103D2000550190915601019709F0E2C00E94ED06FD
:103D300082E090E090935A01809359010DCE8091DA
:103D40005701882381F20E94ED0682E090E0909373
:103D50005A0180935901109257010E94BA05C3CFAE
:103D6000802F0E94C801019749F4812F0E94C80149
:103D7000019721F41092560110925501802F0E9454
:103D8000C801892B09F044C080911F019091200146
:103D900090930101809300016091130170911401CF
:103DA00080EB94E00E940C2820910B0130910C01D3
:103DB000629FC001639F900D729F900D112490939C
:103DC00054018093530180911D0390911E0300972D
:103DD00009F493C0909314018093130180916A01B8
:103DE00090916B01892B51F40E94860580910F01FF
:103DF0009091100190935E0180935D018091590133
:103E000090915A01009709F47DC0029709F4A1C06E
:103E1000812F0E94C801892B09F09ECD80911F013E
:103E20009091200190930101809300016091130112
:103E30007091140180EB94E00E940C2820910B01FA
:103E400030910C01629FC001639F900D729F900D95
:103E50001124909354018093530180911D039091FC
:103E60001E03009709F480C09093140180931301FE
:103E700080916A0190916B01892B51F40E94860513
:103E800080910F019091100190935E0180935D01EC
:103E90008091810190918201019709F06AC081E0CF
:103EA00080935F0180914D0290914E0290934C025D
:103EB00080934B028091190390911A0390931803F9
:103EC000809317038091550190915601892B31F40D
:103ED00082E090E0909356018093550180916A01B1
:103EE00090916B01892B09F437CD0E948C0234CD5F
:103EF0000E94210781E090E01DCF809115019091F3
:103F0000160168CF80914D0290914E0290934C0221
:103F100080934B028091190390911A039093180398
:103F2000809317038091550190915601892B31F4AC
:103F300081E090E090935601809355010E94210703
:103F400081E090E090935A01809359010E9401060C
:103F50005FCF8091510190915201892B09F058CF88
:103F600081E08093580154CF809115019091160102
:103F70007BCF8091590190915A01009771F0019780
:103F800009F0EACC80914F0190915001892B09F002
:103F9000E3CC81E080935701DFCC80914D0290917A
:103FA0004E0290934C0280934B02809119039091A2
:103FB0001A039093180380931703809155019091F1
:103FC0005601892B31F482E090E090935601809362
:103FD00055010E94ED0682E090E090935A01809393
:103FE00059010E94BA05B8CC2197D0937201C093B1
:103FF000710160E083E0CD2B09F4BFC0DF91CF9168
:104000001F910F91FF90EF90DF90CF9008958091D6
:104010001B010E94C801892BD1F461E083E00E945A
:10402000F10160E08BE00E94F10180916E0181114D
:104030009FC089E190E09093700180936F0161E0EF
:1040400082E00E94F10181E080936E01D7CF8091E0
:104050001D010E94C801892BD1F461E082E00E9419
:10406000F10161E08BE00E94F10180916D0181110D
:104070000AC089E190E0909372018093710161E040
:1040800083E00E94F10181E080936D01B7CFC02BE6
:10409000D12BCD2B09F0B2CF60E082E00E94F1017C
:1040A00060E083E00E94F10110926E0110926D01B8
:1040B000A5CF60E082E00E94F10161E083E00E9410
:1040C000F10168CC60E083E00E94F10161E082E0F0
:1040D000F6CF80916C01882351F080916A01909114
:1040E0006B01892B11F40E94690510926C0180917B
:1040F0006A0190916B01019709F04FCC8091070103
:1041000090910801892B09F048CC0E94690545CCA3
:1041100060E082E00E94F10161E083E00E94F10131
:104120003CCC80911101909112018130910581F375
:10413000029709F032CC60E083E00E94F10161E077
:1041400082E0ECCFC0917101D09172011C161D0666
:104150000CF44ACF00916F011091700110161106F6
:104160000CF055CF015011091093700100936F01AD
:10417000012B09F043CF60E082E0DF91CF911F91E6
:104180000F91FF90EF90DF90CF900C94F1011F9270
:104190000F920FB60F9211242F933F938F939F93FB
:1041A000AF93BF938091270390912803A091290397
:1041B000B0912A033091260323E0230F2D3758F5C1
:1041C0000196A11DB11D2093260380932703909390
:1041D0002803A0932903B0932A038091220390918E
:1041E0002303A0912403B09125030196A11DB11DC5
:1041F0008093220390932303A0932403B093250379
:10420000BF91AF919F918F913F912F910F900FBED2
:104210000F901F90189526E8230F0296A11DB11D3F
:10422000D2CF1F920F920FB60F9211242F933F936C
:104230004F935F936F937F938F939F93AF93BF93AE
:10424000EF93FF938091760190917701A09178018F
:10425000B0917901892B8A2B8B2BD1F1909175012B
:10426000E0917301F09174018081892780838091AE
:10427000760190917701A0917801B091790118169B
:1042800019061A061B069CF480917601909177011D
:10429000A0917801B09179010197A109B1098093AA
:1042A000760190937701A0937801B0937901FF9103
:1042B000EF91BF91AF919F918F917F916F915F919E
:1042C0004F913F912F910F900FBE0F901F90189517
:1042D000809102010E941F02EACF1F920F920FB637
:1042E0000F9211242F933F934F935F936F937F937C
:1042F0008F939F93AF93BF93EF93FF938BE293E0E2
:104300000E940B01FF91EF91BF91AF919F918F910F
:104310007F916F915F914F913F912F910F900FBEC1
:104320000F901F9018951F920F920FB60F921124A5
:104330002F938F939F93EF93FF93E0913B03F09123
:104340003C038081E0914103F091420382FD1BC058
:104350009081809144038F5F8F7320914503821772
:1043600041F0E0914403F0E0E55DFC4F958F8093D0
:104370004403FF91EF919F918F912F910F900FBE6A
:104380000F901F9018958081F4CF1F920F920FB657
:104390000F9211242F933F934F935F936F937F93CB
:1043A0008F939F93AF93BF93EF93FF93E09103019C
:1043B000F09104010995FF91EF91BF91AF919F9109
:1043C0008F917F916F915F914F913F912F910F90BE
:1043D0000FBE0F901F901895789484B5826084BDAD
:1043E00084B5816084BD85B5826085BD85B58160F9
:1043F00085BD80916E00816080936E001092810077
:104400008091810082608093810080918100816031
:1044100080938100809180008160809380008091F2
:10442000B10084608093B1008091B000816080937E
:10443000B00080917A00846080937A0080917A0045
:10444000826080937A0080917A00816080937A0004
:1044500080917A00806880937A001092C10061E0B8
:104460008DE00E944B0262E080911D010E944B0290
:1044700062E080911B010E944B0262E088E00E9492
:104480004B0261E085E00E944B0261E083E00E9404
:104490004B0261E084E00E944B0261E082E00E94F6
:1044A0004B0261E089E00E944B0261E08AE00E94D9
:1044B0004B0261E08BE00E944B0280E1809381001F
:1044C0001092800080E49FE19093870080938600A3
:1044D00081E18093810081E19CE1909304018093CC
:1044E000030181E080936F0080E480937C008091E1
:1044F0007A00806480937A0080917A0086FDFCCFF8
:104500006091780070917900072E000C880B990B50
:10451000611571058105910511F00E949025109299
:104520004C0210924B0210924E0210924D021092C9
:1045300018031092170310921A0310921903E091B6
:104540003B03F0913C0382E08083E0913703F091DC
:1045500038031082E0913903F0913A0387E68083B3
:1045600010924303E0913F03F091400386E0808383
:10457000E0913D03F0913E03808180618083E09172
:104580003D03F0913E03808188608083E0913D038C
:10459000F0913E03808180688083E0913D03F0913B
:1045A0003E0380818F7D8083109221039AEF492EF4
:1045B000512C612C712C24E3222E3AE0332E40E062
:1045C000842E40E0942E57ECA52EB12C06E010E08E
:1045D000F8948BE293E00E94EB00181619060CF099
:1045E000CAC18BE293E00E94C900EC0180912103D3
:1045F000882309F4D8C0EEEFE80FE83108F031C0A5
:104600000E2E000CFF0BE95FFC4D0C9420281F239D
:1046100034233E234823602375237C2385238A2368
:104620008F2331233123B023B523BA233123312300
:104630003123BF23C423C92331233123CE2361E097
:10464000C0FF60E089E00E94F10161E0C1FF60E02D
:104650008AE00E94F10161E0C2FF60E08BE00E940D
:10466000F10110922103B5CF3C9EC0013D9E900DFB
:1046700011249093220180932101F3CF3C9EC0012D
:104680003D9E900D11249093200180931F01E9CF4E
:10469000CD2B59F487E090E090931E0180931D018B
:1046A00010931C0100931B01DCCF10931E0100939B
:1046B0001D0187E090E090931C0180931B01D1CFF6
:1046C000BE01DD0F880B990B0E94132720E030E01C
:1046D00048EC52E40E946926609317017093180118
:1046E0008093190190931A01BCCFC058D109D0937F
:1046F0002003C0931F03B5CFD0931601C0931501BB
:10470000D0931401C0931301ACCFD0931E03C09378
:104710001D03F6CFD0931C03C0931B03A2CF80913F
:10472000110190911201C817D90709F49ACF80910D
:10473000190390911A0390931803809317038091A3
:104740004D0290914E0290934C0280934B020E9436
:104750007D020E946905D0931201C093110181CF9F
:10476000D0931001C0930F017CCFD0930E01C09362
:104770000D0177CFD0930C01C0930B0172CFD09372
:104780000A01C09309016DCFD0938201C0938101CA
:1047900068CFD0930801C093070163CFD09306017F
:1047A000C09305015ECFC032D105F4F080911703AC
:1047B00090911803FC01E15BFD4FC0830196883C9A
:1047C00091056CF490931803809317038091150161
:1047D000909116019093140180931301FACE1092D8
:1047E000180310921703F2CFCC31D10508F0C0C0E6
:1047F000FE01E350FC4D0C94202819242B24B824EE
:10480000B824B824B824B824B824B824B824B824C8
:10481000B8243A244D24B824B824B82465246A2442
:104820007F24B824B824B824B824B824B824882411
:10483000A1248091170390911803FC01E15BFD4FC7
:1048400020820196883C91050CF45DC010921803FB
:1048500010921703BECE47E050E069E371E08BE2AF
:1048600093E00E948D0081E090E090930601809398
:104870000501AFCE80917F0190918001009729F4CE
:1048800090E080E00E947A01A4CE039719F481E0C1
:1048900090E0F8CF82E090E0F5CF209119033091BD
:1048A0001A0340911703509118034217530749F018
:1048B0008F5F2F5F3F4F283C3105BCF330E020E095
:1048C000F4CF082E000C990BDDCF80917E01811171
:1048D000DECFD6CF8091190390911A0390931803DD
:1048E0008093170380914D0290914E0290934C0259
:1048F00080934B020E947D020E9469056ACE8091DE
:10490000190390911A03909318038093170361CEB3
:1049100080911703909118032091190330911A0385
:104920008217930709F4ACCF019797FD05C09093C8
:10493000180380931703ABCFB0921803A09217030C
:10494000A6CF60917A0170917B0180917C0190915A
:104950007D01A30192010E94CB256901822F220FC4
:10496000990B0E947A018D2D992787FD9A958ACF00
:10497000C09321032ECE78948114910409F428CE9B
:104980000E94F700882309F423CE0E94000020CE65
:10499000EBE2F3E01382128288EE93E0A0E0B0E055
:1049A00084839583A683B7838BE291E09183808390
:1049B00085EC90E09587848784EC90E097878687E4
:1049C00080EC90E0918B808B81EC90E0938B828BDC
:1049D00082EC90E0958B848B86EC90E0978B868BB5
:1049E000118E128E138E148E08958F929F92AF9215
:1049F000BF92CF92DF92EF92FF92CF93DF93EC01C1
:104A0000688179818A819B81611571058105910594
:104A100021F464E279ED8BE597E02DE133EF41E09D
:104A200050E00E94992549015A019B01AC01A7EA77
:104A3000B1E40E94B8256B017C01ACEEB4EFA50196
:104A400094010E94C625C60ED71EE81EF91EF7FE69
:104A500006C081E0C81AD108E10880E8F80AC882D7
:104A6000D982EA82FB82C701B6019F77DF91CF919D
:104A7000FF90EF90DF90CF90BF90AF909F908F907E
:104A800008958F929F92AF92BF92CF92DF92EF9252
:104A9000FF926091230170912401809125019091F2
:104AA0002601611571058105910521F464E279ED16
:104AB0008BE597E02DE133EF41E050E00E9499252E
:104AC00049015A019B01AC01A7EAB1E40E94B82553
:104AD0006B017C01ACEEB4EFA50194010E94C625E8
:104AE000C60ED71EE81EF91EF7FE06C081E0C81AE2
:104AF000D108E10880E8F80AC0922301D09224018D
:104B0000E0922501F0922601C701B6019F77FF9040
:104B1000EF90DF90CF90BF90AF909F908F900895CF
:104B200060932301709324018093250190932601C3
:104B30000895052E97FB1EF400940E94B02557FDA2
:104B400007D00E94CB2507FC03D04EF40C94B0256F
:104B500050954095309521953F4F4F4F5F4F0895A9
:104B600090958095709561957F4F8F4F9F4F0895D9
:104B70000E94ED25A59F900DB49F900DA49F800DE0
:104B8000911D11240895B7FF0C94B8250E94B825F3
:104B9000821B930B0895A1E21A2EAA1BBB1BFD01D9
:104BA0000DC0AA1FBB1FEE1FFF1FA217B307E4070C
:104BB000F50720F0A21BB30BE40BF50B661F771F64
:104BC000881F991F1A9469F7609570958095909544
:104BD0009B01AC01BD01CF010895A29FB001B39F1D
:104BE000C001A39F700D811D1124911DB29F700DF6
:104BF000811D1124911D08955058BB27AA270E949A
:104C000014260C9465270E94572738F00E945E27CF
:104C100020F039F49F3F19F426F40C9454270EF435
:104C2000E095E7FB0C944E27E92F0E94762758F376
:104C3000BA17620773078407950720F079F4A6F581
:104C40000C9498270EF4E0950B2EBA2FA02D0B0193
:104C5000B90190010C01CA01A0011124FF27591BC1
:104C600099F0593F50F4503E68F11A16F040A22FC7
:104C7000232F342F4427585FF3CF46953795279538
:104C8000A795F0405395C9F77EF41F16BA0B620B37
:104C9000730B840BBAF09150A1F0FF0FBB1F661F7E
:104CA000771F881FC2F70EC0BA0F621F731F841FC1
:104CB00048F4879577956795B795F7959E3F08F0E7
:104CC000B0CF9395880F08F09927EE0F97958795A9
:104CD00008950E947D260C9465270E945E2758F057
:104CE0000E94572740F029F45F3F29F00C944E278B
:104CF00051110C9499270C9454270E94762768F33D
:104D00009923B1F3552391F3951B550BBB27AA2784
:104D100062177307840738F09F5F5F4F220F331FBE
:104D2000441FAA1FA9F335D00E2E3AF0E0E832D086
:104D300091505040E695001CCAF72BD0FE2F29D089
:104D4000660F771F881FBB1F261737074807AB075B
:104D5000B0E809F0BB0B802DBF01FF2793585F4FD0
:104D60003AF09E3F510578F00C944E270C94992709
:104D70005F3FE4F3983ED4F3869577956795B795B2
:104D8000F7959F5FC9F7880F911D9695879597F9BD
:104D90000895E1E0660F771F881FBB1F6217730736
:104DA0008407BA0720F0621B730B840BBA0BEE1F4B
:104DB00088F7E09508950E94E2266894B1110C945A
:104DC000992708950E947E2788F09F5798F0B92F61
:104DD0009927B751B0F0E1F0660F771F881F991F30
:104DE0001AF0BA95C9F714C0B13091F00E94982713
:104DF000B1E008950C949827672F782F8827B85F23
:104E000039F0B93FCCF3869577956795B395D9F787
:104E10003EF490958095709561957F4F8F4F9F4F91
:104E20000895E89409C097FB3EF49095809570959D
:104E300061957F4F8F4F9F4F9923A9F0F92F96E9E6
:104E4000BB279395F695879577956795B795F1115B
:104E5000F8CFFAF4BB0F11F460FF1BC06F5F7F4FF8
:104E60008F4F9F4F16C0882311F096E911C077230A
:104E700021F09EE8872F762F05C0662371F096E813
:104E8000862F70E060E02AF09A95660F771F881FE2
:104E9000DAF7880F9695879597F9089597F99F67A0
:104EA00080E870E060E008959FEF80EC08950024B2
:104EB0000A941616170618060906089500240A947F
:104EC00012161306140605060895092E0394000C05
:104ED00011F4882352F0BB0F40F4BF2B11F460FF94
:104EE00004C06F5F7F4F8F4F9F4F089557FD9058BD
:104EF000440F551F59F05F3F71F04795880F97FB9E
:104F0000991F61F09F3F79F0879508951216130657
:104F10001406551FF2CF4695F1DF08C01616170686
:104F20001806991FF1CF86957105610508940895BB
:104F3000E894BB2766277727CB0197F908950E944D
:104F4000B2270C9465270E94572738F00E945E27ED
:104F500020F0952311F00C944E270C945427112423
:104F60000C9499270E94762770F3959FC1F3950FB3
:104F700050E0551F629FF001729FBB27F00DB11DDD
:104F8000639FAA27F00DB11DAA1F649F6627B00D6D
:104F9000A11D661F829F2227B00DA11D621F739F56
:104FA000B00DA11D621F839FA00D611D221F749F64
:104FB0003327A00D611D231F849F600D211D822FAB
:104FC000762F6A2F11249F5750409AF0F1F08823D2
:104FD0004AF0EE0FFF1FBB1F661F771F881F9150FF
:104FE0005040A9F79E3F510580F00C944E270C9439
:104FF00099275F3FE4F3983ED4F3869577956795BC
:10500000B795F795E7959F5FC1F7FE2B880F911D28
:105010009695879597F9089597FB072E16F40094B7
:1050200007D077FD09D00E94262807FC05D03EF462
:10503000909581959F4F0895709561957F4F089544
:10504000EE0FFF1F0590F491E02D0994AA1BBB1BE6
:1050500051E107C0AA1FBB1FA617B70710F0A61B78
:10506000B70B881F991F5A95A9F780959095BC0199
:08507000CD010895F894FFCF73
:10507800F401FF7C020100010002000A000500059E
:105088000001001E001E006666863F06000700BC81
:1050980002F40101000000000000002D018D00BA9B
:1050A800007F01EB00C900DD0054524357205635FC
:0250B8000000F6
:00000001FF
